{
  "_format": "hh-sol-artifact-1",
  "contractName": "ImpressoVotable",
  "sourceName": "contracts/ImpressoVotable.sol",
  "abi": [
    {
      "anonymous": false,
      "inputs": [
        {
          "indexed": false,
          "internalType": "address",
          "name": "previousAdmin",
          "type": "address"
        },
        {
          "indexed": false,
          "internalType": "address",
          "name": "newAdmin",
          "type": "address"
        }
      ],
      "name": "AdminChanged",
      "type": "event"
    },
    {
      "anonymous": false,
      "inputs": [
        {
          "indexed": true,
          "internalType": "address",
          "name": "owner",
          "type": "address"
        },
        {
          "indexed": true,
          "internalType": "address",
          "name": "spender",
          "type": "address"
        },
        {
          "indexed": false,
          "internalType": "uint256",
          "name": "value",
          "type": "uint256"
        }
      ],
      "name": "Approval",
      "type": "event"
    },
    {
      "anonymous": false,
      "inputs": [
        {
          "indexed": true,
          "internalType": "address",
          "name": "beacon",
          "type": "address"
        }
      ],
      "name": "BeaconUpgraded",
      "type": "event"
    },
    {
      "anonymous": false,
      "inputs": [
        {
          "indexed": true,
          "internalType": "address",
          "name": "commissioner",
          "type": "address"
        },
        {
          "indexed": false,
          "internalType": "uint256",
          "name": "newPercentage",
          "type": "uint256"
        }
      ],
      "name": "CommissionUpdated",
      "type": "event"
    },
    {
      "anonymous": false,
      "inputs": [
        {
          "indexed": false,
          "internalType": "uint8",
          "name": "version",
          "type": "uint8"
        }
      ],
      "name": "Initialized",
      "type": "event"
    },
    {
      "anonymous": false,
      "inputs": [
        {
          "indexed": true,
          "internalType": "address",
          "name": "previousOwner",
          "type": "address"
        },
        {
          "indexed": true,
          "internalType": "address",
          "name": "newOwner",
          "type": "address"
        }
      ],
      "name": "OwnershipTransferred",
      "type": "event"
    },
    {
      "anonymous": false,
      "inputs": [
        {
          "indexed": false,
          "internalType": "address",
          "name": "account",
          "type": "address"
        }
      ],
      "name": "Paused",
      "type": "event"
    },
    {
      "anonymous": false,
      "inputs": [
        {
          "indexed": true,
          "internalType": "address",
          "name": "from",
          "type": "address"
        },
        {
          "indexed": true,
          "internalType": "address",
          "name": "to",
          "type": "address"
        },
        {
          "indexed": false,
          "internalType": "uint256",
          "name": "value",
          "type": "uint256"
        }
      ],
      "name": "Transfer",
      "type": "event"
    },
    {
      "anonymous": false,
      "inputs": [
        {
          "indexed": false,
          "internalType": "address",
          "name": "account",
          "type": "address"
        }
      ],
      "name": "Unpaused",
      "type": "event"
    },
    {
      "anonymous": false,
      "inputs": [
        {
          "indexed": true,
          "internalType": "address",
          "name": "implementation",
          "type": "address"
        }
      ],
      "name": "Upgraded",
      "type": "event"
    },
    {
      "anonymous": false,
      "inputs": [
        {
          "indexed": false,
          "internalType": "string",
          "name": "title",
          "type": "string"
        },
        {
          "indexed": false,
          "internalType": "address",
          "name": "voterAddress",
          "type": "address"
        }
      ],
      "name": "Vote",
      "type": "event"
    },
    {
      "anonymous": false,
      "inputs": [
        {
          "indexed": false,
          "internalType": "string",
          "name": "title",
          "type": "string"
        }
      ],
      "name": "VotingEnded",
      "type": "event"
    },
    {
      "anonymous": false,
      "inputs": [
        {
          "indexed": false,
          "internalType": "string",
          "name": "title",
          "type": "string"
        },
        {
          "indexed": false,
          "internalType": "uint256",
          "name": "votesNeeded",
          "type": "uint256"
        }
      ],
      "name": "VotingStarted",
      "type": "event"
    },
    {
      "inputs": [
        {
          "internalType": "uint256",
          "name": "",
          "type": "uint256"
        }
      ],
      "name": "_commissionAddresses",
      "outputs": [
        {
          "internalType": "address",
          "name": "",
          "type": "address"
        }
      ],
      "stateMutability": "view",
      "type": "function"
    },
    {
      "inputs": [],
      "name": "_maxTotalSupply",
      "outputs": [
        {
          "internalType": "uint256",
          "name": "",
          "type": "uint256"
        }
      ],
      "stateMutability": "view",
      "type": "function"
    },
    {
      "inputs": [
        {
          "internalType": "address",
          "name": "owner",
          "type": "address"
        },
        {
          "internalType": "address",
          "name": "spender",
          "type": "address"
        }
      ],
      "name": "allowance",
      "outputs": [
        {
          "internalType": "uint256",
          "name": "",
          "type": "uint256"
        }
      ],
      "stateMutability": "view",
      "type": "function"
    },
    {
      "inputs": [
        {
          "internalType": "address",
          "name": "spender",
          "type": "address"
        },
        {
          "internalType": "uint256",
          "name": "amount",
          "type": "uint256"
        }
      ],
      "name": "approve",
      "outputs": [
        {
          "internalType": "bool",
          "name": "",
          "type": "bool"
        }
      ],
      "stateMutability": "nonpayable",
      "type": "function"
    },
    {
      "inputs": [
        {
          "internalType": "address",
          "name": "account",
          "type": "address"
        }
      ],
      "name": "balanceOf",
      "outputs": [
        {
          "internalType": "uint256",
          "name": "",
          "type": "uint256"
        }
      ],
      "stateMutability": "view",
      "type": "function"
    },
    {
      "inputs": [
        {
          "internalType": "address",
          "name": "voter",
          "type": "address"
        }
      ],
      "name": "blacklistVoter",
      "outputs": [],
      "stateMutability": "nonpayable",
      "type": "function"
    },
    {
      "inputs": [
        {
          "internalType": "uint256",
          "name": "amount",
          "type": "uint256"
        }
      ],
      "name": "burn",
      "outputs": [],
      "stateMutability": "nonpayable",
      "type": "function"
    },
    {
      "inputs": [
        {
          "internalType": "address",
          "name": "account",
          "type": "address"
        },
        {
          "internalType": "uint256",
          "name": "amount",
          "type": "uint256"
        }
      ],
      "name": "burnFrom",
      "outputs": [],
      "stateMutability": "nonpayable",
      "type": "function"
    },
    {
      "inputs": [
        {
          "internalType": "string",
          "name": "title",
          "type": "string"
        },
        {
          "internalType": "uint256",
          "name": "votesNeeded",
          "type": "uint256"
        }
      ],
      "name": "createVoting",
      "outputs": [],
      "stateMutability": "nonpayable",
      "type": "function"
    },
    {
      "inputs": [],
      "name": "decimals",
      "outputs": [
        {
          "internalType": "uint8",
          "name": "",
          "type": "uint8"
        }
      ],
      "stateMutability": "view",
      "type": "function"
    },
    {
      "inputs": [
        {
          "internalType": "address",
          "name": "spender",
          "type": "address"
        },
        {
          "internalType": "uint256",
          "name": "subtractedValue",
          "type": "uint256"
        }
      ],
      "name": "decreaseAllowance",
      "outputs": [
        {
          "internalType": "bool",
          "name": "",
          "type": "bool"
        }
      ],
      "stateMutability": "nonpayable",
      "type": "function"
    },
    {
      "inputs": [
        {
          "internalType": "address",
          "name": "addr",
          "type": "address"
        }
      ],
      "name": "getCommissionPercentage",
      "outputs": [
        {
          "internalType": "uint256",
          "name": "",
          "type": "uint256"
        }
      ],
      "stateMutability": "view",
      "type": "function"
    },
    {
      "inputs": [
        {
          "internalType": "address",
          "name": "spender",
          "type": "address"
        },
        {
          "internalType": "uint256",
          "name": "addedValue",
          "type": "uint256"
        }
      ],
      "name": "increaseAllowance",
      "outputs": [
        {
          "internalType": "bool",
          "name": "",
          "type": "bool"
        }
      ],
      "stateMutability": "nonpayable",
      "type": "function"
    },
    {
      "inputs": [
        {
          "internalType": "string",
          "name": "name",
          "type": "string"
        },
        {
          "internalType": "string",
          "name": "symbol",
          "type": "string"
        },
        {
          "internalType": "uint256",
          "name": "maxTotalSupply",
          "type": "uint256"
        },
        {
          "internalType": "bool",
          "name": "useMaxTotalSupply",
          "type": "bool"
        }
      ],
      "name": "initialize",
      "outputs": [],
      "stateMutability": "nonpayable",
      "type": "function"
    },
    {
      "inputs": [
        {
          "internalType": "string",
          "name": "",
          "type": "string"
        }
      ],
      "name": "isVotingActive",
      "outputs": [
        {
          "internalType": "bool",
          "name": "",
          "type": "bool"
        }
      ],
      "stateMutability": "view",
      "type": "function"
    },
    {
      "inputs": [
        {
          "internalType": "address",
          "name": "to",
          "type": "address"
        },
        {
          "internalType": "uint256",
          "name": "amount",
          "type": "uint256"
        }
      ],
      "name": "mint",
      "outputs": [],
      "stateMutability": "nonpayable",
      "type": "function"
    },
    {
      "inputs": [],
      "name": "name",
      "outputs": [
        {
          "internalType": "string",
          "name": "",
          "type": "string"
        }
      ],
      "stateMutability": "view",
      "type": "function"
    },
    {
      "inputs": [],
      "name": "owner",
      "outputs": [
        {
          "internalType": "address",
          "name": "",
          "type": "address"
        }
      ],
      "stateMutability": "view",
      "type": "function"
    },
    {
      "inputs": [],
      "name": "pause",
      "outputs": [],
      "stateMutability": "nonpayable",
      "type": "function"
    },
    {
      "inputs": [],
      "name": "paused",
      "outputs": [
        {
          "internalType": "bool",
          "name": "",
          "type": "bool"
        }
      ],
      "stateMutability": "view",
      "type": "function"
    },
    {
      "inputs": [],
      "name": "proxiableUUID",
      "outputs": [
        {
          "internalType": "bytes32",
          "name": "",
          "type": "bytes32"
        }
      ],
      "stateMutability": "view",
      "type": "function"
    },
    {
      "inputs": [],
      "name": "renounceOwnership",
      "outputs": [],
      "stateMutability": "nonpayable",
      "type": "function"
    },
    {
      "inputs": [
        {
          "internalType": "address[]",
          "name": "addrs",
          "type": "address[]"
        },
        {
          "internalType": "uint256[]",
          "name": "percentages",
          "type": "uint256[]"
        }
      ],
      "name": "setCommissionPercentages",
      "outputs": [],
      "stateMutability": "nonpayable",
      "type": "function"
    },
    {
      "inputs": [],
      "name": "symbol",
      "outputs": [
        {
          "internalType": "string",
          "name": "",
          "type": "string"
        }
      ],
      "stateMutability": "view",
      "type": "function"
    },
    {
      "inputs": [
        {
          "internalType": "bool",
          "name": "enable",
          "type": "bool"
        }
      ],
      "name": "toggleCommission",
      "outputs": [],
      "stateMutability": "nonpayable",
      "type": "function"
    },
    {
      "inputs": [],
      "name": "totalSupply",
      "outputs": [
        {
          "internalType": "uint256",
          "name": "",
          "type": "uint256"
        }
      ],
      "stateMutability": "view",
      "type": "function"
    },
    {
      "inputs": [
        {
          "internalType": "string",
          "name": "",
          "type": "string"
        }
      ],
      "name": "totalVotes",
      "outputs": [
        {
          "internalType": "uint256",
          "name": "",
          "type": "uint256"
        }
      ],
      "stateMutability": "view",
      "type": "function"
    },
    {
      "inputs": [
        {
          "internalType": "address",
          "name": "to",
          "type": "address"
        },
        {
          "internalType": "uint256",
          "name": "amount",
          "type": "uint256"
        }
      ],
      "name": "transfer",
      "outputs": [
        {
          "internalType": "bool",
          "name": "",
          "type": "bool"
        }
      ],
      "stateMutability": "nonpayable",
      "type": "function"
    },
    {
      "inputs": [
        {
          "internalType": "address",
          "name": "from",
          "type": "address"
        },
        {
          "internalType": "address",
          "name": "to",
          "type": "address"
        },
        {
          "internalType": "uint256",
          "name": "amount",
          "type": "uint256"
        }
      ],
      "name": "transferFrom",
      "outputs": [
        {
          "internalType": "bool",
          "name": "",
          "type": "bool"
        }
      ],
      "stateMutability": "nonpayable",
      "type": "function"
    },
    {
      "inputs": [
        {
          "internalType": "address",
          "name": "newOwner",
          "type": "address"
        }
      ],
      "name": "transferOwnership",
      "outputs": [],
      "stateMutability": "nonpayable",
      "type": "function"
    },
    {
      "inputs": [],
      "name": "unpause",
      "outputs": [],
      "stateMutability": "nonpayable",
      "type": "function"
    },
    {
      "inputs": [
        {
          "internalType": "address",
          "name": "newImplementation",
          "type": "address"
        }
      ],
      "name": "upgradeTo",
      "outputs": [],
      "stateMutability": "nonpayable",
      "type": "function"
    },
    {
      "inputs": [
        {
          "internalType": "address",
          "name": "newImplementation",
          "type": "address"
        },
        {
          "internalType": "bytes",
          "name": "data",
          "type": "bytes"
        }
      ],
      "name": "upgradeToAndCall",
      "outputs": [],
      "stateMutability": "payable",
      "type": "function"
    },
    {
      "inputs": [
        {
          "internalType": "string",
          "name": "votingTitle",
          "type": "string"
        }
      ],
      "name": "vote",
      "outputs": [],
      "stateMutability": "nonpayable",
      "type": "function"
    },
    {
      "inputs": [
        {
          "internalType": "string",
          "name": "",
          "type": "string"
        }
      ],
      "name": "votesCountNeeded",
      "outputs": [
        {
          "internalType": "uint256",
          "name": "",
          "type": "uint256"
        }
      ],
      "stateMutability": "view",
      "type": "function"
    },
    {
      "inputs": [
        {
          "internalType": "string",
          "name": "",
          "type": "string"
        },
        {
          "internalType": "address",
          "name": "",
          "type": "address"
        }
      ],
      "name": "votings",
      "outputs": [
        {
          "internalType": "bool",
          "name": "",
          "type": "bool"
        }
      ],
      "stateMutability": "view",
      "type": "function"
    }
  ],
  "bytecode": "0x60a06040523073ffffffffffffffffffffffffffffffffffffffff1660809073ffffffffffffffffffffffffffffffffffffffff168152503480156200004457600080fd5b50600161019160006101000a81548160ff021916908315150217905550620000716200007760201b60201c565b62000221565b600060019054906101000a900460ff1615620000ca576040517f08c379a0000000000000000000000000000000000000000000000000000000008152600401620000c190620001c4565b60405180910390fd5b60ff801660008054906101000a900460ff1660ff16146200013b5760ff6000806101000a81548160ff021916908360ff1602179055507f7f26b83ff96e1f2b6a682f133852f6798a09c465da95921460cefb384740249860ff60405162000132919062000204565b60405180910390a15b565b600082825260208201905092915050565b7f496e697469616c697a61626c653a20636f6e747261637420697320696e69746960008201527f616c697a696e6700000000000000000000000000000000000000000000000000602082015250565b6000620001ac6027836200013d565b9150620001b9826200014e565b604082019050919050565b60006020820190508181036000830152620001df816200019d565b9050919050565b600060ff82169050919050565b620001fe81620001e6565b82525050565b60006020820190506200021b6000830184620001f3565b92915050565b60805161544f62000259600039600081816111ce0152818161125c01528181611447015281816114d50152611585015261544f6000f3fe60806040526004361061020f5760003560e01c80634f1ef286116101185780638456cb59116100a0578063a9059cbb1161006f578063a9059cbb146107a0578063dd62ed3e146107dd578063f2fde38b1461081a578063f500aa0a14610843578063fc36e15b146108805761020f565b80638456cb59146106f65780638da5cb5b1461070d57806395d89b4114610738578063a457c2d7146107635761020f565b80635c975abb116100e75780635c975abb1461062557806370a0823114610650578063715018a61461068d57806375dee998146106a457806379cc6790146106cd5761020f565b80634f1ef2861461056457806352d1902d1461058057806356df006b146105ab5780635900f8f8146105e85761020f565b806323b872dd1161019b5780633730837c1161016a5780633730837c1461049357806339509351146104be5780633f4ba83a146104fb57806340c10f191461051257806342966c681461053b5761020f565b806323b872dd146103d9578063313ce56714610416578063342d1867146104415780633659cfe61461046a5761020f565b806318160ddd116101e257806318160ddd146102f657806319f7f532146103215780631a1625a51461034a5780631df1a88a146103735780632220112d146103b05761020f565b806304574fe81461021457806306fdde0314610251578063095ea7b31461027c5780631635f9cf146102b9575b600080fd5b34801561022057600080fd5b5061023b60048036038101906102369190613372565b6108a9565b60405161024891906133d6565b60405180910390f35b34801561025d57600080fd5b506102666108e0565b6040516102739190613470565b60405180910390f35b34801561028857600080fd5b506102a3600480360381019061029e9190613526565b610972565b6040516102b091906133d6565b60405180910390f35b3480156102c557600080fd5b506102e060048036038101906102db9190613566565b610995565b6040516102ed91906133d6565b60405180910390f35b34801561030257600080fd5b5061030b6109db565b60405161031891906135d1565b60405180910390f35b34801561032d57600080fd5b5061034860048036038101906103439190613618565b6109e5565b005b34801561035657600080fd5b50610371600480360381019061036c91906136b7565b610b6c565b005b34801561037f57600080fd5b5061039a60048036038101906103959190613372565b610cb9565b6040516103a791906135d1565b60405180910390f35b3480156103bc57600080fd5b506103d760048036038101906103d2919061389e565b610ce8565b005b3480156103e557600080fd5b5061040060048036038101906103fb9190613916565b610ffc565b60405161040d91906133d6565b60405180910390f35b34801561042257600080fd5b5061042b611195565b6040516104389190613985565b60405180910390f35b34801561044d57600080fd5b50610468600480360381019061046391906139a0565b61119e565b005b34801561047657600080fd5b50610491600480360381019061048c91906139cd565b6111cc565b005b34801561049f57600080fd5b506104a8611354565b6040516104b591906135d1565b60405180910390f35b3480156104ca57600080fd5b506104e560048036038101906104e09190613526565b61135b565b6040516104f291906133d6565b60405180910390f35b34801561050757600080fd5b50610510611392565b005b34801561051e57600080fd5b5061053960048036038101906105349190613526565b6113a4565b005b34801561054757600080fd5b50610562600480360381019061055d91906139fa565b611431565b005b61057e60048036038101906105799190613ac8565b611445565b005b34801561058c57600080fd5b50610595611581565b6040516105a29190613b3d565b60405180910390f35b3480156105b757600080fd5b506105d260048036038101906105cd91906139fa565b61163a565b6040516105df9190613b67565b60405180910390f35b3480156105f457600080fd5b5061060f600480360381019061060a9190613372565b61167a565b60405161061c91906135d1565b60405180910390f35b34801561063157600080fd5b5061063a6116a9565b60405161064791906133d6565b60405180910390f35b34801561065c57600080fd5b50610677600480360381019061067291906139cd565b6116c0565b60405161068491906135d1565b60405180910390f35b34801561069957600080fd5b506106a2611709565b005b3480156106b057600080fd5b506106cb60048036038101906106c691906139cd565b61171d565b005b3480156106d957600080fd5b506106f460048036038101906106ef9190613526565b611789565b005b34801561070257600080fd5b5061070b6117a9565b005b34801561071957600080fd5b506107226117c3565b60405161072f9190613b67565b60405180910390f35b34801561074457600080fd5b5061074d6117ed565b60405161075a9190613470565b60405180910390f35b34801561076f57600080fd5b5061078a60048036038101906107859190613526565b61187f565b60405161079791906133d6565b60405180910390f35b3480156107ac57600080fd5b506107c760048036038101906107c29190613526565b6118f6565b6040516107d491906133d6565b60405180910390f35b3480156107e957600080fd5b5061080460048036038101906107ff9190613b82565b611a89565b60405161081191906135d1565b60405180910390f35b34801561082657600080fd5b50610841600480360381019061083c91906139cd565b611b10565b005b34801561084f57600080fd5b5061086a600480360381019061086591906139cd565b611b93565b60405161087791906135d1565b60405180910390f35b34801561088c57600080fd5b506108a760048036038101906108a29190613372565b611be5565b005b61019b818051602081018201805184825260208301602085012081835280955050505050506000915054906101000a900460ff1681565b6060603680546108ef90613bf1565b80601f016020809104026020016040519081016040528092919081815260200182805461091b90613bf1565b80156109685780601f1061093d57610100808354040283529160200191610968565b820191906000526020600020905b81548152906001019060200180831161094b57829003601f168201915b5050505050905090565b60008061097d611ec6565b905061098a818585611ece565b600191505092915050565b610199828051602081018201805184825260208301602085012081835280955050505050506020528060005260406000206000915091509054906101000a900460ff1681565b6000603554905090565b60008060019054906101000a900460ff16159050808015610a165750600160008054906101000a900460ff1660ff16105b80610a435750610a2530612097565b158015610a425750600160008054906101000a900460ff1660ff16145b5b610a82576040517f08c379a0000000000000000000000000000000000000000000000000000000008152600401610a7990613c94565b60405180910390fd5b60016000806101000a81548160ff021916908360ff1602179055508015610abf576001600060016101000a81548160ff0219169083151502179055505b82610193819055508161019460006101000a81548160ff021916908315150217905550610aec85856120ba565b610af4612117565b610afc612168565b610b046121c1565b610b0c61221a565b8015610b655760008060016101000a81548160ff0219169083151502179055507f7f26b83ff96e1f2b6a682f133852f6798a09c465da95921460cefb38474024986001604051610b5c9190613cf9565b60405180910390a15b5050505050565b610b7461226b565b610b7c6122e9565b60008111610bbf576040517f08c379a0000000000000000000000000000000000000000000000000000000008152600401610bb690613d60565b60405180910390fd5b600061019c83604051610bd29190613dbc565b90815260200160405180910390205414610c21576040517f08c379a0000000000000000000000000000000000000000000000000000000008152600401610c1890613e45565b60405180910390fd5b8061019c83604051610c339190613dbc565b908152602001604051809103902081905550600161019b83604051610c589190613dbc565b908152602001604051809103902060006101000a81548160ff0219169083151502179055507e974e7a9f2acf0f113201dd02a3c9904153c5c7f5a5b71959eb47bb505f9b8c8282604051610cad929190613e65565b60405180910390a15050565b61019c818051602081018201805184825260208301602085012081835280955050505050506000915090505481565b610cf061226b565b610cf86122e9565b8051825114610d3c576040517f08c379a0000000000000000000000000000000000000000000000000000000008152600401610d3390613ee1565b60405180910390fd5b6003610192805490508351610d519190613f30565b1115610d92576040517f08c379a0000000000000000000000000000000000000000000000000000000008152600401610d8990613fd6565b60405180910390fd5b6000805b8251811015610dd457828181518110610db257610db1613ff6565b5b602002602001015182610dc59190613f30565b91508080600101915050610d96565b506064811115610e19576040517f08c379a0000000000000000000000000000000000000000000000000000000008152600401610e1090614097565b60405180910390fd5b60005b8351811015610ff6576000848281518110610e3a57610e39613ff6565b5b602002602001015190506000848381518110610e5957610e58613ff6565b5b602002602001015190506064811115610ea7576040517f08c379a0000000000000000000000000000000000000000000000000000000008152600401610e9e90614103565b60405180910390fd5b600061019560008473ffffffffffffffffffffffffffffffffffffffff1673ffffffffffffffffffffffffffffffffffffffff1681526020019081526020016000205403610f5457610192829080600181540180825580915050600190039060005260206000200160009091909190916101000a81548173ffffffffffffffffffffffffffffffffffffffff021916908373ffffffffffffffffffffffffffffffffffffffff1602179055505b8061019560008473ffffffffffffffffffffffffffffffffffffffff1673ffffffffffffffffffffffffffffffffffffffff168152602001908152602001600020819055508173ffffffffffffffffffffffffffffffffffffffff167f87342df63874e81545b667a9f796b2b67e7e4430236e63aaf0e3f6bb137bc76f82604051610fdf91906135d1565b60405180910390a250508080600101915050610e1c565b50505050565b60006110066122e9565b611011843384612333565b600073ffffffffffffffffffffffffffffffffffffffff168473ffffffffffffffffffffffffffffffffffffffff1603611080576040517f08c379a00000000000000000000000000000000000000000000000000000000081526004016110779061416f565b60405180910390fd5b600061019160009054906101000a900460ff16156111735760005b6101928054905081101561117157600061019282815481106110c0576110bf613ff6565b5b9060005260206000200160009054906101000a900473ffffffffffffffffffffffffffffffffffffffff1690506000606461019560008473ffffffffffffffffffffffffffffffffffffffff1673ffffffffffffffffffffffffffffffffffffffff168152602001908152602001600020548761113d919061418f565b6111479190614200565b905080846111559190613f30565b93506111628883836123bf565b5050808060010191505061109b565b505b611189858583866111849190614231565b6123bf565b60019150509392505050565b60006012905090565b6111a661226b565b6111ae6122e9565b8061019160006101000a81548160ff02191690831515021790555050565b7f000000000000000000000000000000000000000000000000000000000000000073ffffffffffffffffffffffffffffffffffffffff163073ffffffffffffffffffffffffffffffffffffffff160361125a576040517f08c379a0000000000000000000000000000000000000000000000000000000008152600401611251906142d7565b60405180910390fd5b7f000000000000000000000000000000000000000000000000000000000000000073ffffffffffffffffffffffffffffffffffffffff16611299612638565b73ffffffffffffffffffffffffffffffffffffffff16146112ef576040517f08c379a00000000000000000000000000000000000000000000000000000000081526004016112e690614369565b60405180910390fd5b6112f88161268f565b61135181600067ffffffffffffffff81111561131757611316613247565b5b6040519080825280601f01601f1916602001820160405280156113495781602001600182028036833780820191505090505b50600061269a565b50565b6101935481565b600080611366611ec6565b90506113878185856113788589611a89565b6113829190613f30565b611ece565b600191505092915050565b61139a61226b565b6113a2612808565b565b6113ac61226b565b6113b46122e9565b61019460009054906101000a900460ff16156114235761019354816113d76109db565b6113e19190613f30565b1115611422576040517f08c379a0000000000000000000000000000000000000000000000000000000008152600401611419906143d5565b60405180910390fd5b5b61142d828261286b565b5050565b61144261143c611ec6565b826129c2565b50565b7f000000000000000000000000000000000000000000000000000000000000000073ffffffffffffffffffffffffffffffffffffffff163073ffffffffffffffffffffffffffffffffffffffff16036114d3576040517f08c379a00000000000000000000000000000000000000000000000000000000081526004016114ca906142d7565b60405180910390fd5b7f000000000000000000000000000000000000000000000000000000000000000073ffffffffffffffffffffffffffffffffffffffff16611512612638565b73ffffffffffffffffffffffffffffffffffffffff1614611568576040517f08c379a000000000000000000000000000000000000000000000000000000000815260040161155f90614369565b60405180910390fd5b6115718261268f565b61157d8282600161269a565b5050565b60007f000000000000000000000000000000000000000000000000000000000000000073ffffffffffffffffffffffffffffffffffffffff163073ffffffffffffffffffffffffffffffffffffffff1614611611576040517f08c379a000000000000000000000000000000000000000000000000000000000815260040161160890614467565b60405180910390fd5b7f360894a13ba1a3210667c828492db98dca3e2076cc3735a920a3ca505d382bbc60001b905090565b610192818154811061164b57600080fd5b906000526020600020016000915054906101000a900473ffffffffffffffffffffffffffffffffffffffff1681565b61019a818051602081018201805184825260208301602085012081835280955050505050506000915090505481565b6000609760009054906101000a900460ff16905090565b6000603360008373ffffffffffffffffffffffffffffffffffffffff1673ffffffffffffffffffffffffffffffffffffffff168152602001908152602001600020549050919050565b61171161226b565b61171b6000612b91565b565b61172561226b565b61172d6122e9565b600161019860008373ffffffffffffffffffffffffffffffffffffffff1673ffffffffffffffffffffffffffffffffffffffff16815260200190815260200160002060006101000a81548160ff02191690831515021790555050565b61179b82611795611ec6565b83612333565b6117a582826129c2565b5050565b6117b161226b565b6117b96122e9565b6117c1612c57565b565b600060fb60009054906101000a900473ffffffffffffffffffffffffffffffffffffffff16905090565b6060603780546117fc90613bf1565b80601f016020809104026020016040519081016040528092919081815260200182805461182890613bf1565b80156118755780601f1061184a57610100808354040283529160200191611875565b820191906000526020600020905b81548152906001019060200180831161185857829003601f168201915b5050505050905090565b60008061188a611ec6565b905060006118988286611a89565b9050838110156118dd576040517f08c379a00000000000000000000000000000000000000000000000000000000081526004016118d4906144f9565b60405180910390fd5b6118ea8286868403611ece565b60019250505092915050565b60006119006122e9565b6000339050600073ffffffffffffffffffffffffffffffffffffffff168173ffffffffffffffffffffffffffffffffffffffff1603611974576040517f08c379a000000000000000000000000000000000000000000000000000000000815260040161196b9061416f565b60405180910390fd5b600061019160009054906101000a900460ff1615611a675760005b61019280549050811015611a6557600061019282815481106119b4576119b3613ff6565b5b9060005260206000200160009054906101000a900473ffffffffffffffffffffffffffffffffffffffff1690506000606461019560008473ffffffffffffffffffffffffffffffffffffffff1673ffffffffffffffffffffffffffffffffffffffff1681526020019081526020016000205488611a31919061418f565b611a3b9190614200565b90508084611a499190613f30565b9350611a568583836123bf565b5050808060010191505061198f565b505b611a7d82868387611a789190614231565b6123bf565b60019250505092915050565b6000603460008473ffffffffffffffffffffffffffffffffffffffff1673ffffffffffffffffffffffffffffffffffffffff16815260200190815260200160002060008373ffffffffffffffffffffffffffffffffffffffff1673ffffffffffffffffffffffffffffffffffffffff16815260200190815260200160002054905092915050565b611b1861226b565b600073ffffffffffffffffffffffffffffffffffffffff168173ffffffffffffffffffffffffffffffffffffffff1603611b87576040517f08c379a0000000000000000000000000000000000000000000000000000000008152600401611b7e9061458b565b60405180910390fd5b611b9081612b91565b50565b6000611b9d6122e9565b61019560008373ffffffffffffffffffffffffffffffffffffffff1673ffffffffffffffffffffffffffffffffffffffff168152602001908152602001600020549050919050565b611bed6122e9565b61019b81604051611bfe9190613dbc565b908152602001604051809103902060009054906101000a900460ff16611c59576040517f08c379a0000000000000000000000000000000000000000000000000000000008152600401611c50906145f7565b60405180910390fd5b61019860003373ffffffffffffffffffffffffffffffffffffffff1673ffffffffffffffffffffffffffffffffffffffff16815260200190815260200160002060009054906101000a900460ff1615611ce7576040517f08c379a0000000000000000000000000000000000000000000000000000000008152600401611cde90614663565b60405180910390fd5b61019981604051611cf89190613dbc565b908152602001604051809103902060003373ffffffffffffffffffffffffffffffffffffffff1673ffffffffffffffffffffffffffffffffffffffff16815260200190815260200160002060009054906101000a900460ff1615611d91576040517f08c379a0000000000000000000000000000000000000000000000000000000008152600401611d88906146cf565b60405180910390fd5b600161019982604051611da49190613dbc565b908152602001604051809103902060003373ffffffffffffffffffffffffffffffffffffffff1673ffffffffffffffffffffffffffffffffffffffff16815260200190815260200160002060006101000a81548160ff02191690831515021790555061019a81604051611e179190613dbc565b90815260200160405180910390206000815480929190611e36906146ef565b91905055507f6df8a0bf3c87bd629e9f543b9d0831beeea8b80de3f478dd846541ed8d97405b8133604051611e6c929190614737565b60405180910390a161019c81604051611e859190613dbc565b90815260200160405180910390205461019a82604051611ea59190613dbc565b90815260200160405180910390205410611ec357611ec281612cba565b5b50565b600033905090565b600073ffffffffffffffffffffffffffffffffffffffff168373ffffffffffffffffffffffffffffffffffffffff1603611f3d576040517f08c379a0000000000000000000000000000000000000000000000000000000008152600401611f34906147d9565b60405180910390fd5b600073ffffffffffffffffffffffffffffffffffffffff168273ffffffffffffffffffffffffffffffffffffffff1603611fac576040517f08c379a0000000000000000000000000000000000000000000000000000000008152600401611fa39061486b565b60405180910390fd5b80603460008573ffffffffffffffffffffffffffffffffffffffff1673ffffffffffffffffffffffffffffffffffffffff16815260200190815260200160002060008473ffffffffffffffffffffffffffffffffffffffff1673ffffffffffffffffffffffffffffffffffffffff168152602001908152602001600020819055508173ffffffffffffffffffffffffffffffffffffffff168373ffffffffffffffffffffffffffffffffffffffff167f8c5be1e5ebec7d5bd14f71427d1e84f3dd0314c0f7b2291e5b200ac8c7c3b9258360405161208a91906135d1565b60405180910390a3505050565b6000808273ffffffffffffffffffffffffffffffffffffffff163b119050919050565b600060019054906101000a900460ff16612109576040517f08c379a0000000000000000000000000000000000000000000000000000000008152600401612100906148fd565b60405180910390fd5b6121138282612cc6565b5050565b600060019054906101000a900460ff16612166576040517f08c379a000000000000000000000000000000000000000000000000000000000815260040161215d906148fd565b60405180910390fd5b565b600060019054906101000a900460ff166121b7576040517f08c379a00000000000000000000000000000000000000000000000000000000081526004016121ae906148fd565b60405180910390fd5b6121bf612d39565b565b600060019054906101000a900460ff16612210576040517f08c379a0000000000000000000000000000000000000000000000000000000008152600401612207906148fd565b60405180910390fd5b612218612da5565b565b600060019054906101000a900460ff16612269576040517f08c379a0000000000000000000000000000000000000000000000000000000008152600401612260906148fd565b60405180910390fd5b565b612273611ec6565b73ffffffffffffffffffffffffffffffffffffffff166122916117c3565b73ffffffffffffffffffffffffffffffffffffffff16146122e7576040517f08c379a00000000000000000000000000000000000000000000000000000000081526004016122de90614969565b60405180910390fd5b565b6122f16116a9565b15612331576040517f08c379a0000000000000000000000000000000000000000000000000000000008152600401612328906149d5565b60405180910390fd5b565b600061233f8484611a89565b90507fffffffffffffffffffffffffffffffffffffffffffffffffffffffffffffffff81146123b957818110156123ab576040517f08c379a00000000000000000000000000000000000000000000000000000000081526004016123a290614a41565b60405180910390fd5b6123b88484848403611ece565b5b50505050565b600073ffffffffffffffffffffffffffffffffffffffff168373ffffffffffffffffffffffffffffffffffffffff160361242e576040517f08c379a000000000000000000000000000000000000000000000000000000000815260040161242590614ad3565b60405180910390fd5b600073ffffffffffffffffffffffffffffffffffffffff168273ffffffffffffffffffffffffffffffffffffffff160361249d576040517f08c379a000000000000000000000000000000000000000000000000000000000815260040161249490614b65565b60405180910390fd5b6124a8838383612e06565b6000603360008573ffffffffffffffffffffffffffffffffffffffff1673ffffffffffffffffffffffffffffffffffffffff1681526020019081526020016000205490508181101561252f576040517f08c379a000000000000000000000000000000000000000000000000000000000815260040161252690614bf7565b60405180910390fd5b818103603360008673ffffffffffffffffffffffffffffffffffffffff1673ffffffffffffffffffffffffffffffffffffffff1681526020019081526020016000208190555081603360008573ffffffffffffffffffffffffffffffffffffffff1673ffffffffffffffffffffffffffffffffffffffff168152602001908152602001600020600082825401925050819055508273ffffffffffffffffffffffffffffffffffffffff168473ffffffffffffffffffffffffffffffffffffffff167fddf252ad1be2c89b69c2b068fc378daa952ba7f163c4a11628f55a4df523b3ef8460405161261f91906135d1565b60405180910390a3612632848484612e16565b50505050565b60006126667f360894a13ba1a3210667c828492db98dca3e2076cc3735a920a3ca505d382bbc60001b612e1b565b60000160009054906101000a900473ffffffffffffffffffffffffffffffffffffffff16905090565b61269761226b565b50565b6126c67f4910fdfa16fed3260ed0e7147f7cc6da11a60208b5b9406d12a635614ffd914360001b612e25565b60000160009054906101000a900460ff16156126ea576126e583612e2f565b612803565b8273ffffffffffffffffffffffffffffffffffffffff166352d1902d6040518163ffffffff1660e01b8152600401602060405180830381865afa92505050801561275257506040513d601f19601f8201168201806040525081019061274f9190614c43565b60015b612791576040517f08c379a000000000000000000000000000000000000000000000000000000000815260040161278890614ce2565b60405180910390fd5b7f360894a13ba1a3210667c828492db98dca3e2076cc3735a920a3ca505d382bbc60001b81146127f6576040517f08c379a00000000000000000000000000000000000000000000000000000000081526004016127ed90614d74565b60405180910390fd5b50612802838383612ee8565b5b505050565b612810612f14565b6000609760006101000a81548160ff0219169083151502179055507f5db9ee0a495bf2e6ff9c91a7834c1ba4fdd244a5e8aa4e537bd38aeae4b073aa612854611ec6565b6040516128619190613b67565b60405180910390a1565b600073ffffffffffffffffffffffffffffffffffffffff168273ffffffffffffffffffffffffffffffffffffffff16036128da576040517f08c379a00000000000000000000000000000000000000000000000000000000081526004016128d190614de0565b60405180910390fd5b6128e660008383612e06565b80603560008282546128f89190613f30565b9250508190555080603360008473ffffffffffffffffffffffffffffffffffffffff1673ffffffffffffffffffffffffffffffffffffffff168152602001908152602001600020600082825401925050819055508173ffffffffffffffffffffffffffffffffffffffff16600073ffffffffffffffffffffffffffffffffffffffff167fddf252ad1be2c89b69c2b068fc378daa952ba7f163c4a11628f55a4df523b3ef836040516129aa91906135d1565b60405180910390a36129be60008383612e16565b5050565b600073ffffffffffffffffffffffffffffffffffffffff168273ffffffffffffffffffffffffffffffffffffffff1603612a31576040517f08c379a0000000000000000000000000000000000000000000000000000000008152600401612a2890614e72565b60405180910390fd5b612a3d82600083612e06565b6000603360008473ffffffffffffffffffffffffffffffffffffffff1673ffffffffffffffffffffffffffffffffffffffff16815260200190815260200160002054905081811015612ac4576040517f08c379a0000000000000000000000000000000000000000000000000000000008152600401612abb90614f04565b60405180910390fd5b818103603360008573ffffffffffffffffffffffffffffffffffffffff1673ffffffffffffffffffffffffffffffffffffffff1681526020019081526020016000208190555081603560008282540392505081905550600073ffffffffffffffffffffffffffffffffffffffff168373ffffffffffffffffffffffffffffffffffffffff167fddf252ad1be2c89b69c2b068fc378daa952ba7f163c4a11628f55a4df523b3ef84604051612b7891906135d1565b60405180910390a3612b8c83600084612e16565b505050565b600060fb60009054906101000a900473ffffffffffffffffffffffffffffffffffffffff1690508160fb60006101000a81548173ffffffffffffffffffffffffffffffffffffffff021916908373ffffffffffffffffffffffffffffffffffffffff1602179055508173ffffffffffffffffffffffffffffffffffffffff168173ffffffffffffffffffffffffffffffffffffffff167f8be0079c531659141344cd1fd0a4f28419497f9722a3daafe3b4186f6b6457e060405160405180910390a35050565b612c5f6122e9565b6001609760006101000a81548160ff0219169083151502179055507f62e78cea01bee320cd4e420270b5ea74000d11b0c9f74754ebdbfc544b05a258612ca3611ec6565b604051612cb09190613b67565b60405180910390a1565b612cc381612f5d565b50565b600060019054906101000a900460ff16612d15576040517f08c379a0000000000000000000000000000000000000000000000000000000008152600401612d0c906148fd565b60405180910390fd5b8160369081612d2491906150c6565b508060379081612d3491906150c6565b505050565b600060019054906101000a900460ff16612d88576040517f08c379a0000000000000000000000000000000000000000000000000000000008152600401612d7f906148fd565b60405180910390fd5b6000609760006101000a81548160ff021916908315150217905550565b600060019054906101000a900460ff16612df4576040517f08c379a0000000000000000000000000000000000000000000000000000000008152600401612deb906148fd565b60405180910390fd5b612e04612dff611ec6565b612b91565b565b612e11838383612ff4565b505050565b505050565b6000819050919050565b6000819050919050565b612e3881612097565b612e77576040517f08c379a0000000000000000000000000000000000000000000000000000000008152600401612e6e9061520a565b60405180910390fd5b80612ea47f360894a13ba1a3210667c828492db98dca3e2076cc3735a920a3ca505d382bbc60001b612e1b565b60000160006101000a81548173ffffffffffffffffffffffffffffffffffffffff021916908373ffffffffffffffffffffffffffffffffffffffff16021790555050565b612ef18361304c565b600082511180612efe5750805b15612f0f57612f0d838361309b565b505b505050565b612f1c6116a9565b612f5b576040517f08c379a0000000000000000000000000000000000000000000000000000000008152600401612f5290615276565b60405180910390fd5b565b600061019a82604051612f709190613dbc565b908152602001604051809103902081905550600061019b82604051612f959190613dbc565b908152602001604051809103902060006101000a81548160ff0219169083151502179055507f74e0b2978c99ca20b757f0f8b458fc435f508ea64c542132a673e898b96f535d81604051612fe99190613470565b60405180910390a150565b612fff8383836130c8565b6130076116a9565b15613047576040517f08c379a000000000000000000000000000000000000000000000000000000000815260040161303e90615308565b60405180910390fd5b505050565b61305581612e2f565b8073ffffffffffffffffffffffffffffffffffffffff167fbc7cd75a20ee27fd9adebab32041f755214dbc6bffa90cc0225b39da2e5c2d3b60405160405180910390a250565b60606130c083836040518060600160405280602781526020016153f3602791396130cd565b905092915050565b505050565b60606000808573ffffffffffffffffffffffffffffffffffffffff16856040516130f7919061536f565b600060405180830381855af49150503d8060008114613132576040519150601f19603f3d011682016040523d82523d6000602084013e613137565b606091505b509150915061314886838387613153565b925050509392505050565b606083156131b55760008351036131ad5761316d85612097565b6131ac576040517f08c379a00000000000000000000000000000000000000000000000000000000081526004016131a3906153d2565b60405180910390fd5b5b8290506131c0565b6131bf83836131c8565b5b949350505050565b6000825111156131db5781518083602001fd5b806040517f08c379a000000000000000000000000000000000000000000000000000000000815260040161320f9190613470565b60405180910390fd5b6000604051905090565b600080fd5b600080fd5b600080fd5b600080fd5b6000601f19601f8301169050919050565b7f4e487b7100000000000000000000000000000000000000000000000000000000600052604160045260246000fd5b61327f82613236565b810181811067ffffffffffffffff8211171561329e5761329d613247565b5b80604052505050565b60006132b1613218565b90506132bd8282613276565b919050565b600067ffffffffffffffff8211156132dd576132dc613247565b5b6132e682613236565b9050602081019050919050565b82818337600083830152505050565b6000613315613310846132c2565b6132a7565b90508281526020810184848401111561333157613330613231565b5b61333c8482856132f3565b509392505050565b600082601f8301126133595761335861322c565b5b8135613369848260208601613302565b91505092915050565b60006020828403121561338857613387613222565b5b600082013567ffffffffffffffff8111156133a6576133a5613227565b5b6133b284828501613344565b91505092915050565b60008115159050919050565b6133d0816133bb565b82525050565b60006020820190506133eb60008301846133c7565b92915050565b600081519050919050565b600082825260208201905092915050565b60005b8381101561342b578082015181840152602081019050613410565b60008484015250505050565b6000613442826133f1565b61344c81856133fc565b935061345c81856020860161340d565b61346581613236565b840191505092915050565b6000602082019050818103600083015261348a8184613437565b905092915050565b600073ffffffffffffffffffffffffffffffffffffffff82169050919050565b60006134bd82613492565b9050919050565b6134cd816134b2565b81146134d857600080fd5b50565b6000813590506134ea816134c4565b92915050565b6000819050919050565b613503816134f0565b811461350e57600080fd5b50565b600081359050613520816134fa565b92915050565b6000806040838503121561353d5761353c613222565b5b600061354b858286016134db565b925050602061355c85828601613511565b9150509250929050565b6000806040838503121561357d5761357c613222565b5b600083013567ffffffffffffffff81111561359b5761359a613227565b5b6135a785828601613344565b92505060206135b8858286016134db565b9150509250929050565b6135cb816134f0565b82525050565b60006020820190506135e660008301846135c2565b92915050565b6135f5816133bb565b811461360057600080fd5b50565b600081359050613612816135ec565b92915050565b6000806000806080858703121561363257613631613222565b5b600085013567ffffffffffffffff8111156136505761364f613227565b5b61365c87828801613344565b945050602085013567ffffffffffffffff81111561367d5761367c613227565b5b61368987828801613344565b935050604061369a87828801613511565b92505060606136ab87828801613603565b91505092959194509250565b600080604083850312156136ce576136cd613222565b5b600083013567ffffffffffffffff8111156136ec576136eb613227565b5b6136f885828601613344565b925050602061370985828601613511565b9150509250929050565b600067ffffffffffffffff82111561372e5761372d613247565b5b602082029050602081019050919050565b600080fd5b600061375761375284613713565b6132a7565b9050808382526020820190506020840283018581111561377a5761377961373f565b5b835b818110156137a3578061378f88826134db565b84526020840193505060208101905061377c565b5050509392505050565b600082601f8301126137c2576137c161322c565b5b81356137d2848260208601613744565b91505092915050565b600067ffffffffffffffff8211156137f6576137f5613247565b5b602082029050602081019050919050565b600061381a613815846137db565b6132a7565b9050808382526020820190506020840283018581111561383d5761383c61373f565b5b835b8181101561386657806138528882613511565b84526020840193505060208101905061383f565b5050509392505050565b600082601f8301126138855761388461322c565b5b8135613895848260208601613807565b91505092915050565b600080604083850312156138b5576138b4613222565b5b600083013567ffffffffffffffff8111156138d3576138d2613227565b5b6138df858286016137ad565b925050602083013567ffffffffffffffff811115613900576138ff613227565b5b61390c85828601613870565b9150509250929050565b60008060006060848603121561392f5761392e613222565b5b600061393d868287016134db565b935050602061394e868287016134db565b925050604061395f86828701613511565b9150509250925092565b600060ff82169050919050565b61397f81613969565b82525050565b600060208201905061399a6000830184613976565b92915050565b6000602082840312156139b6576139b5613222565b5b60006139c484828501613603565b91505092915050565b6000602082840312156139e3576139e2613222565b5b60006139f1848285016134db565b91505092915050565b600060208284031215613a1057613a0f613222565b5b6000613a1e84828501613511565b91505092915050565b600067ffffffffffffffff821115613a4257613a41613247565b5b613a4b82613236565b9050602081019050919050565b6000613a6b613a6684613a27565b6132a7565b905082815260208101848484011115613a8757613a86613231565b5b613a928482856132f3565b509392505050565b600082601f830112613aaf57613aae61322c565b5b8135613abf848260208601613a58565b91505092915050565b60008060408385031215613adf57613ade613222565b5b6000613aed858286016134db565b925050602083013567ffffffffffffffff811115613b0e57613b0d613227565b5b613b1a85828601613a9a565b9150509250929050565b6000819050919050565b613b3781613b24565b82525050565b6000602082019050613b526000830184613b2e565b92915050565b613b61816134b2565b82525050565b6000602082019050613b7c6000830184613b58565b92915050565b60008060408385031215613b9957613b98613222565b5b6000613ba7858286016134db565b9250506020613bb8858286016134db565b9150509250929050565b7f4e487b7100000000000000000000000000000000000000000000000000000000600052602260045260246000fd5b60006002820490506001821680613c0957607f821691505b602082108103613c1c57613c1b613bc2565b5b50919050565b7f496e697469616c697a61626c653a20636f6e747261637420697320616c72656160008201527f647920696e697469616c697a6564000000000000000000000000000000000000602082015250565b6000613c7e602e836133fc565b9150613c8982613c22565b604082019050919050565b60006020820190508181036000830152613cad81613c71565b9050919050565b6000819050919050565b6000819050919050565b6000613ce3613cde613cd984613cb4565b613cbe565b613969565b9050919050565b613cf381613cc8565b82525050565b6000602082019050613d0e6000830184613cea565b92915050565b7f766f7465734e6565646564206d757374206265203e2030000000000000000000600082015250565b6000613d4a6017836133fc565b9150613d5582613d14565b602082019050919050565b60006020820190508181036000830152613d7981613d3d565b9050919050565b600081905092915050565b6000613d96826133f1565b613da08185613d80565b9350613db081856020860161340d565b80840191505092915050565b6000613dc88284613d8b565b915081905092915050565b7f566f74696e6720776974682074686973207469746c6520616c7265616479206560008201527f7869737473000000000000000000000000000000000000000000000000000000602082015250565b6000613e2f6025836133fc565b9150613e3a82613dd3565b604082019050919050565b60006020820190508181036000830152613e5e81613e22565b9050919050565b60006040820190508181036000830152613e7f8185613437565b9050613e8e60208301846135c2565b9392505050565b7f417272617973206c656e677468206d69736d6174636800000000000000000000600082015250565b6000613ecb6016836133fc565b9150613ed682613e95565b602082019050919050565b60006020820190508181036000830152613efa81613ebe565b9050919050565b7f4e487b7100000000000000000000000000000000000000000000000000000000600052601160045260246000fd5b6000613f3b826134f0565b9150613f46836134f0565b9250828201905080821115613f5e57613f5d613f01565b5b92915050565b7f45786365656473206d6178696d756d206e756d626572206f6620636f6d6d697360008201527f73696f6e20616464726573736573000000000000000000000000000000000000602082015250565b6000613fc0602e836133fc565b9150613fcb82613f64565b604082019050919050565b60006020820190508181036000830152613fef81613fb3565b9050919050565b7f4e487b7100000000000000000000000000000000000000000000000000000000600052603260045260246000fd5b7f546f74616c20636f6d6d697373696f6e2070657263656e74616765732065786360008201527f6565642031303025000000000000000000000000000000000000000000000000602082015250565b60006140816028836133fc565b915061408c82614025565b604082019050919050565b600060208201905081810360008301526140b081614074565b9050919050565b7f50657263656e74616765206d757374206265203c3d2031303000000000000000600082015250565b60006140ed6019836133fc565b91506140f8826140b7565b602082019050919050565b6000602082019050818103600083015261411c816140e0565b9050919050565b7f5472616e736665722066726f6d20302061646472657373000000000000000000600082015250565b60006141596017836133fc565b915061416482614123565b602082019050919050565b600060208201905081810360008301526141888161414c565b9050919050565b600061419a826134f0565b91506141a5836134f0565b92508282026141b3816134f0565b915082820484148315176141ca576141c9613f01565b5b5092915050565b7f4e487b7100000000000000000000000000000000000000000000000000000000600052601260045260246000fd5b600061420b826134f0565b9150614216836134f0565b925082614226576142256141d1565b5b828204905092915050565b600061423c826134f0565b9150614247836134f0565b925082820390508181111561425f5761425e613f01565b5b92915050565b7f46756e6374696f6e206d7573742062652063616c6c6564207468726f7567682060008201527f64656c656761746563616c6c0000000000000000000000000000000000000000602082015250565b60006142c1602c836133fc565b91506142cc82614265565b604082019050919050565b600060208201905081810360008301526142f0816142b4565b9050919050565b7f46756e6374696f6e206d7573742062652063616c6c6564207468726f7567682060008201527f6163746976652070726f78790000000000000000000000000000000000000000602082015250565b6000614353602c836133fc565b915061435e826142f7565b604082019050919050565b6000602082019050818103600083015261438281614346565b9050919050565b7f45786365656473206d6178696d756d20746f74616c20737570706c7900000000600082015250565b60006143bf601c836133fc565b91506143ca82614389565b602082019050919050565b600060208201905081810360008301526143ee816143b2565b9050919050565b7f555550535570677261646561626c653a206d757374206e6f742062652063616c60008201527f6c6564207468726f7567682064656c656761746563616c6c0000000000000000602082015250565b60006144516038836133fc565b915061445c826143f5565b604082019050919050565b6000602082019050818103600083015261448081614444565b9050919050565b7f45524332303a2064656372656173656420616c6c6f77616e63652062656c6f7760008201527f207a65726f000000000000000000000000000000000000000000000000000000602082015250565b60006144e36025836133fc565b91506144ee82614487565b604082019050919050565b60006020820190508181036000830152614512816144d6565b9050919050565b7f4f776e61626c653a206e6577206f776e657220697320746865207a65726f206160008201527f6464726573730000000000000000000000000000000000000000000000000000602082015250565b60006145756026836133fc565b915061458082614519565b604082019050919050565b600060208201905081810360008301526145a481614568565b9050919050565b7f566f74696e6720656e646564206f72206e6f7420657869737473000000000000600082015250565b60006145e1601a836133fc565b91506145ec826145ab565b602082019050919050565b60006020820190508181036000830152614610816145d4565b9050919050565b7f4e6f7420616c6c6f77656420746f20766f746500000000000000000000000000600082015250565b600061464d6013836133fc565b915061465882614617565b602082019050919050565b6000602082019050818103600083015261467c81614640565b9050919050565b7f416c726561647920766f74656400000000000000000000000000000000000000600082015250565b60006146b9600d836133fc565b91506146c482614683565b602082019050919050565b600060208201905081810360008301526146e8816146ac565b9050919050565b60006146fa826134f0565b91507fffffffffffffffffffffffffffffffffffffffffffffffffffffffffffffffff820361472c5761472b613f01565b5b600182019050919050565b600060408201905081810360008301526147518185613437565b90506147606020830184613b58565b9392505050565b7f45524332303a20617070726f76652066726f6d20746865207a65726f2061646460008201527f7265737300000000000000000000000000000000000000000000000000000000602082015250565b60006147c36024836133fc565b91506147ce82614767565b604082019050919050565b600060208201905081810360008301526147f2816147b6565b9050919050565b7f45524332303a20617070726f766520746f20746865207a65726f20616464726560008201527f7373000000000000000000000000000000000000000000000000000000000000602082015250565b60006148556022836133fc565b9150614860826147f9565b604082019050919050565b6000602082019050818103600083015261488481614848565b9050919050565b7f496e697469616c697a61626c653a20636f6e7472616374206973206e6f74206960008201527f6e697469616c697a696e67000000000000000000000000000000000000000000602082015250565b60006148e7602b836133fc565b91506148f28261488b565b604082019050919050565b60006020820190508181036000830152614916816148da565b9050919050565b7f4f776e61626c653a2063616c6c6572206973206e6f7420746865206f776e6572600082015250565b60006149536020836133fc565b915061495e8261491d565b602082019050919050565b6000602082019050818103600083015261498281614946565b9050919050565b7f5061757361626c653a2070617573656400000000000000000000000000000000600082015250565b60006149bf6010836133fc565b91506149ca82614989565b602082019050919050565b600060208201905081810360008301526149ee816149b2565b9050919050565b7f45524332303a20696e73756666696369656e7420616c6c6f77616e6365000000600082015250565b6000614a2b601d836133fc565b9150614a36826149f5565b602082019050919050565b60006020820190508181036000830152614a5a81614a1e565b9050919050565b7f45524332303a207472616e736665722066726f6d20746865207a65726f20616460008201527f6472657373000000000000000000000000000000000000000000000000000000602082015250565b6000614abd6025836133fc565b9150614ac882614a61565b604082019050919050565b60006020820190508181036000830152614aec81614ab0565b9050919050565b7f45524332303a207472616e7366657220746f20746865207a65726f206164647260008201527f6573730000000000000000000000000000000000000000000000000000000000602082015250565b6000614b4f6023836133fc565b9150614b5a82614af3565b604082019050919050565b60006020820190508181036000830152614b7e81614b42565b9050919050565b7f45524332303a207472616e7366657220616d6f756e742065786365656473206260008201527f616c616e63650000000000000000000000000000000000000000000000000000602082015250565b6000614be16026836133fc565b9150614bec82614b85565b604082019050919050565b60006020820190508181036000830152614c1081614bd4565b9050919050565b614c2081613b24565b8114614c2b57600080fd5b50565b600081519050614c3d81614c17565b92915050565b600060208284031215614c5957614c58613222565b5b6000614c6784828501614c2e565b91505092915050565b7f45524331393637557067726164653a206e657720696d706c656d656e7461746960008201527f6f6e206973206e6f742055555053000000000000000000000000000000000000602082015250565b6000614ccc602e836133fc565b9150614cd782614c70565b604082019050919050565b60006020820190508181036000830152614cfb81614cbf565b9050919050565b7f45524331393637557067726164653a20756e737570706f727465642070726f7860008201527f6961626c65555549440000000000000000000000000000000000000000000000602082015250565b6000614d5e6029836133fc565b9150614d6982614d02565b604082019050919050565b60006020820190508181036000830152614d8d81614d51565b9050919050565b7f45524332303a206d696e7420746f20746865207a65726f206164647265737300600082015250565b6000614dca601f836133fc565b9150614dd582614d94565b602082019050919050565b60006020820190508181036000830152614df981614dbd565b9050919050565b7f45524332303a206275726e2066726f6d20746865207a65726f2061646472657360008201527f7300000000000000000000000000000000000000000000000000000000000000602082015250565b6000614e5c6021836133fc565b9150614e6782614e00565b604082019050919050565b60006020820190508181036000830152614e8b81614e4f565b9050919050565b7f45524332303a206275726e20616d6f756e7420657863656564732062616c616e60008201527f6365000000000000000000000000000000000000000000000000000000000000602082015250565b6000614eee6022836133fc565b9150614ef982614e92565b604082019050919050565b60006020820190508181036000830152614f1d81614ee1565b9050919050565b60008190508160005260206000209050919050565b60006020601f8301049050919050565b600082821b905092915050565b600060088302614f867fffffffffffffffffffffffffffffffffffffffffffffffffffffffffffffffff82614f49565b614f908683614f49565b95508019841693508086168417925050509392505050565b6000614fc3614fbe614fb9846134f0565b613cbe565b6134f0565b9050919050565b6000819050919050565b614fdd83614fa8565b614ff1614fe982614fca565b848454614f56565b825550505050565b600090565b615006614ff9565b615011818484614fd4565b505050565b5b818110156150355761502a600082614ffe565b600181019050615017565b5050565b601f82111561507a5761504b81614f24565b61505484614f39565b81016020851015615063578190505b61507761506f85614f39565b830182615016565b50505b505050565b600082821c905092915050565b600061509d6000198460080261507f565b1980831691505092915050565b60006150b6838361508c565b9150826002028217905092915050565b6150cf826133f1565b67ffffffffffffffff8111156150e8576150e7613247565b5b6150f28254613bf1565b6150fd828285615039565b600060209050601f831160018114615130576000841561511e578287015190505b61512885826150aa565b865550615190565b601f19841661513e86614f24565b60005b8281101561516657848901518255600182019150602085019450602081019050615141565b86831015615183578489015161517f601f89168261508c565b8355505b6001600288020188555050505b505050505050565b7f455243313936373a206e657720696d706c656d656e746174696f6e206973206e60008201527f6f74206120636f6e747261637400000000000000000000000000000000000000602082015250565b60006151f4602d836133fc565b91506151ff82615198565b604082019050919050565b60006020820190508181036000830152615223816151e7565b9050919050565b7f5061757361626c653a206e6f7420706175736564000000000000000000000000600082015250565b60006152606014836133fc565b915061526b8261522a565b602082019050919050565b6000602082019050818103600083015261528f81615253565b9050919050565b7f45524332305061757361626c653a20746f6b656e207472616e7366657220776860008201527f696c652070617573656400000000000000000000000000000000000000000000602082015250565b60006152f2602a836133fc565b91506152fd82615296565b604082019050919050565b60006020820190508181036000830152615321816152e5565b9050919050565b600081519050919050565b600081905092915050565b600061534982615328565b6153538185615333565b935061536381856020860161340d565b80840191505092915050565b600061537b828461533e565b915081905092915050565b7f416464726573733a2063616c6c20746f206e6f6e2d636f6e7472616374000000600082015250565b60006153bc601d836133fc565b91506153c782615386565b602082019050919050565b600060208201905081810360008301526153eb816153af565b905091905056fe416464726573733a206c6f772d6c6576656c2064656c65676174652063616c6c206661696c6564a2646970667358221220bfd15f6466022d1b19ff6d6d122da23593bfb38dae5d10028d8af63a964337f664736f6c63430008180033",
  "linkReferences": {},
  "deployedLinkReferences": {}
}