{
  "_format": "hh-sol-artifact-1",
  "contractName": "Impresso",
  "sourceName": "contracts/Impresso.sol",
  "abi": [
    {
      "inputs": [],
      "stateMutability": "nonpayable",
      "type": "constructor"
    },
    {
      "anonymous": false,
      "inputs": [
        {
          "indexed": false,
          "internalType": "address",
          "name": "previousAdmin",
          "type": "address"
        },
        {
          "indexed": false,
          "internalType": "address",
          "name": "newAdmin",
          "type": "address"
        }
      ],
      "name": "AdminChanged",
      "type": "event"
    },
    {
      "anonymous": false,
      "inputs": [
        {
          "indexed": true,
          "internalType": "address",
          "name": "owner",
          "type": "address"
        },
        {
          "indexed": true,
          "internalType": "address",
          "name": "spender",
          "type": "address"
        },
        {
          "indexed": false,
          "internalType": "uint256",
          "name": "value",
          "type": "uint256"
        }
      ],
      "name": "Approval",
      "type": "event"
    },
    {
      "anonymous": false,
      "inputs": [
        {
          "indexed": true,
          "internalType": "address",
          "name": "beacon",
          "type": "address"
        }
      ],
      "name": "BeaconUpgraded",
      "type": "event"
    },
    {
      "anonymous": false,
      "inputs": [
        {
          "indexed": true,
          "internalType": "address",
          "name": "commissioner",
          "type": "address"
        },
        {
          "indexed": false,
          "internalType": "uint256",
          "name": "newPercentage",
          "type": "uint256"
        }
      ],
      "name": "CommissionUpdated",
      "type": "event"
    },
    {
      "anonymous": false,
      "inputs": [
        {
          "indexed": false,
          "internalType": "uint8",
          "name": "version",
          "type": "uint8"
        }
      ],
      "name": "Initialized",
      "type": "event"
    },
    {
      "anonymous": false,
      "inputs": [
        {
          "indexed": true,
          "internalType": "address",
          "name": "previousOwner",
          "type": "address"
        },
        {
          "indexed": true,
          "internalType": "address",
          "name": "newOwner",
          "type": "address"
        }
      ],
      "name": "OwnershipTransferred",
      "type": "event"
    },
    {
      "anonymous": false,
      "inputs": [
        {
          "indexed": false,
          "internalType": "address",
          "name": "account",
          "type": "address"
        }
      ],
      "name": "Paused",
      "type": "event"
    },
    {
      "anonymous": false,
      "inputs": [
        {
          "indexed": true,
          "internalType": "address",
          "name": "from",
          "type": "address"
        },
        {
          "indexed": true,
          "internalType": "address",
          "name": "to",
          "type": "address"
        },
        {
          "indexed": false,
          "internalType": "uint256",
          "name": "value",
          "type": "uint256"
        }
      ],
      "name": "Transfer",
      "type": "event"
    },
    {
      "anonymous": false,
      "inputs": [
        {
          "indexed": false,
          "internalType": "address",
          "name": "account",
          "type": "address"
        }
      ],
      "name": "Unpaused",
      "type": "event"
    },
    {
      "anonymous": false,
      "inputs": [
        {
          "indexed": true,
          "internalType": "address",
          "name": "implementation",
          "type": "address"
        }
      ],
      "name": "Upgraded",
      "type": "event"
    },
    {
      "inputs": [
        {
          "internalType": "uint256",
          "name": "",
          "type": "uint256"
        }
      ],
      "name": "_commissionAddresses",
      "outputs": [
        {
          "internalType": "address",
          "name": "",
          "type": "address"
        }
      ],
      "stateMutability": "view",
      "type": "function"
    },
    {
      "inputs": [],
      "name": "_maxTotalSupply",
      "outputs": [
        {
          "internalType": "uint256",
          "name": "",
          "type": "uint256"
        }
      ],
      "stateMutability": "view",
      "type": "function"
    },
    {
      "inputs": [
        {
          "internalType": "address",
          "name": "owner",
          "type": "address"
        },
        {
          "internalType": "address",
          "name": "spender",
          "type": "address"
        }
      ],
      "name": "allowance",
      "outputs": [
        {
          "internalType": "uint256",
          "name": "",
          "type": "uint256"
        }
      ],
      "stateMutability": "view",
      "type": "function"
    },
    {
      "inputs": [
        {
          "internalType": "address",
          "name": "spender",
          "type": "address"
        },
        {
          "internalType": "uint256",
          "name": "amount",
          "type": "uint256"
        }
      ],
      "name": "approve",
      "outputs": [
        {
          "internalType": "bool",
          "name": "",
          "type": "bool"
        }
      ],
      "stateMutability": "nonpayable",
      "type": "function"
    },
    {
      "inputs": [
        {
          "internalType": "address",
          "name": "account",
          "type": "address"
        }
      ],
      "name": "balanceOf",
      "outputs": [
        {
          "internalType": "uint256",
          "name": "",
          "type": "uint256"
        }
      ],
      "stateMutability": "view",
      "type": "function"
    },
    {
      "inputs": [
        {
          "internalType": "uint256",
          "name": "amount",
          "type": "uint256"
        }
      ],
      "name": "burn",
      "outputs": [],
      "stateMutability": "nonpayable",
      "type": "function"
    },
    {
      "inputs": [
        {
          "internalType": "address",
          "name": "account",
          "type": "address"
        },
        {
          "internalType": "uint256",
          "name": "amount",
          "type": "uint256"
        }
      ],
      "name": "burnFrom",
      "outputs": [],
      "stateMutability": "nonpayable",
      "type": "function"
    },
    {
      "inputs": [],
      "name": "decimals",
      "outputs": [
        {
          "internalType": "uint8",
          "name": "",
          "type": "uint8"
        }
      ],
      "stateMutability": "view",
      "type": "function"
    },
    {
      "inputs": [
        {
          "internalType": "address",
          "name": "spender",
          "type": "address"
        },
        {
          "internalType": "uint256",
          "name": "subtractedValue",
          "type": "uint256"
        }
      ],
      "name": "decreaseAllowance",
      "outputs": [
        {
          "internalType": "bool",
          "name": "",
          "type": "bool"
        }
      ],
      "stateMutability": "nonpayable",
      "type": "function"
    },
    {
      "inputs": [
        {
          "internalType": "address",
          "name": "addr",
          "type": "address"
        }
      ],
      "name": "getCommissionPercentage",
      "outputs": [
        {
          "internalType": "uint256",
          "name": "",
          "type": "uint256"
        }
      ],
      "stateMutability": "view",
      "type": "function"
    },
    {
      "inputs": [
        {
          "internalType": "address",
          "name": "spender",
          "type": "address"
        },
        {
          "internalType": "uint256",
          "name": "addedValue",
          "type": "uint256"
        }
      ],
      "name": "increaseAllowance",
      "outputs": [
        {
          "internalType": "bool",
          "name": "",
          "type": "bool"
        }
      ],
      "stateMutability": "nonpayable",
      "type": "function"
    },
    {
      "inputs": [
        {
          "internalType": "string",
          "name": "name",
          "type": "string"
        },
        {
          "internalType": "string",
          "name": "symbol",
          "type": "string"
        },
        {
          "internalType": "uint256",
          "name": "maxTotalSupply",
          "type": "uint256"
        },
        {
          "internalType": "bool",
          "name": "useMaxTotalSupply",
          "type": "bool"
        }
      ],
      "name": "initialize",
      "outputs": [],
      "stateMutability": "nonpayable",
      "type": "function"
    },
    {
      "inputs": [
        {
          "internalType": "address",
          "name": "to",
          "type": "address"
        },
        {
          "internalType": "uint256",
          "name": "amount",
          "type": "uint256"
        }
      ],
      "name": "mint",
      "outputs": [],
      "stateMutability": "nonpayable",
      "type": "function"
    },
    {
      "inputs": [],
      "name": "name",
      "outputs": [
        {
          "internalType": "string",
          "name": "",
          "type": "string"
        }
      ],
      "stateMutability": "view",
      "type": "function"
    },
    {
      "inputs": [],
      "name": "owner",
      "outputs": [
        {
          "internalType": "address",
          "name": "",
          "type": "address"
        }
      ],
      "stateMutability": "view",
      "type": "function"
    },
    {
      "inputs": [],
      "name": "pause",
      "outputs": [],
      "stateMutability": "nonpayable",
      "type": "function"
    },
    {
      "inputs": [],
      "name": "paused",
      "outputs": [
        {
          "internalType": "bool",
          "name": "",
          "type": "bool"
        }
      ],
      "stateMutability": "view",
      "type": "function"
    },
    {
      "inputs": [],
      "name": "proxiableUUID",
      "outputs": [
        {
          "internalType": "bytes32",
          "name": "",
          "type": "bytes32"
        }
      ],
      "stateMutability": "view",
      "type": "function"
    },
    {
      "inputs": [],
      "name": "renounceOwnership",
      "outputs": [],
      "stateMutability": "nonpayable",
      "type": "function"
    },
    {
      "inputs": [
        {
          "internalType": "address[]",
          "name": "addrs",
          "type": "address[]"
        },
        {
          "internalType": "uint256[]",
          "name": "percentages",
          "type": "uint256[]"
        }
      ],
      "name": "setCommissionPercentages",
      "outputs": [],
      "stateMutability": "nonpayable",
      "type": "function"
    },
    {
      "inputs": [],
      "name": "symbol",
      "outputs": [
        {
          "internalType": "string",
          "name": "",
          "type": "string"
        }
      ],
      "stateMutability": "view",
      "type": "function"
    },
    {
      "inputs": [
        {
          "internalType": "bool",
          "name": "enable",
          "type": "bool"
        }
      ],
      "name": "toggleCommission",
      "outputs": [],
      "stateMutability": "nonpayable",
      "type": "function"
    },
    {
      "inputs": [],
      "name": "totalSupply",
      "outputs": [
        {
          "internalType": "uint256",
          "name": "",
          "type": "uint256"
        }
      ],
      "stateMutability": "view",
      "type": "function"
    },
    {
      "inputs": [
        {
          "internalType": "address",
          "name": "to",
          "type": "address"
        },
        {
          "internalType": "uint256",
          "name": "amount",
          "type": "uint256"
        }
      ],
      "name": "transfer",
      "outputs": [
        {
          "internalType": "bool",
          "name": "",
          "type": "bool"
        }
      ],
      "stateMutability": "nonpayable",
      "type": "function"
    },
    {
      "inputs": [
        {
          "internalType": "address",
          "name": "from",
          "type": "address"
        },
        {
          "internalType": "address",
          "name": "to",
          "type": "address"
        },
        {
          "internalType": "uint256",
          "name": "amount",
          "type": "uint256"
        }
      ],
      "name": "transferFrom",
      "outputs": [
        {
          "internalType": "bool",
          "name": "",
          "type": "bool"
        }
      ],
      "stateMutability": "nonpayable",
      "type": "function"
    },
    {
      "inputs": [
        {
          "internalType": "address",
          "name": "newOwner",
          "type": "address"
        }
      ],
      "name": "transferOwnership",
      "outputs": [],
      "stateMutability": "nonpayable",
      "type": "function"
    },
    {
      "inputs": [],
      "name": "unpause",
      "outputs": [],
      "stateMutability": "nonpayable",
      "type": "function"
    },
    {
      "inputs": [
        {
          "internalType": "address",
          "name": "newImplementation",
          "type": "address"
        }
      ],
      "name": "upgradeTo",
      "outputs": [],
      "stateMutability": "nonpayable",
      "type": "function"
    },
    {
      "inputs": [
        {
          "internalType": "address",
          "name": "newImplementation",
          "type": "address"
        },
        {
          "internalType": "bytes",
          "name": "data",
          "type": "bytes"
        }
      ],
      "name": "upgradeToAndCall",
      "outputs": [],
      "stateMutability": "payable",
      "type": "function"
    }
  ],
  "bytecode": "0x60a06040523073ffffffffffffffffffffffffffffffffffffffff1660809073ffffffffffffffffffffffffffffffffffffffff168152503480156200004457600080fd5b50600161019160006101000a81548160ff021916908315150217905550620000716200007760201b60201c565b62000221565b600060019054906101000a900460ff1615620000ca576040517f08c379a0000000000000000000000000000000000000000000000000000000008152600401620000c190620001c4565b60405180910390fd5b60ff801660008054906101000a900460ff1660ff16146200013b5760ff6000806101000a81548160ff021916908360ff1602179055507f7f26b83ff96e1f2b6a682f133852f6798a09c465da95921460cefb384740249860ff60405162000132919062000204565b60405180910390a15b565b600082825260208201905092915050565b7f496e697469616c697a61626c653a20636f6e747261637420697320696e69746960008201527f616c697a696e6700000000000000000000000000000000000000000000000000602082015250565b6000620001ac6027836200013d565b9150620001b9826200014e565b604082019050919050565b60006020820190508181036000830152620001df816200019d565b9050919050565b600060ff82169050919050565b620001fe81620001e6565b82525050565b60006020820190506200021b6000830184620001f3565b92915050565b60805161483d6200025960003960008181610e1901528181610ea7015281816110920152818161112001526111d0015261483d6000f3fe6080604052600436106101c25760003560e01c80634f1ef286116100f75780638456cb5911610095578063a9059cbb11610064578063a9059cbb1461060d578063dd62ed3e1461064a578063f2fde38b14610687578063f500aa0a146106b0576101c2565b80638456cb59146105635780638da5cb5b1461057a57806395d89b41146105a5578063a457c2d7146105d0576101c2565b80635c975abb116100d15780635c975abb146104bb57806370a08231146104e6578063715018a61461052357806379cc67901461053a576101c2565b80634f1ef2861461043757806352d1902d1461045357806356df006b1461047e576101c2565b8063342d186711610164578063395093511161013e57806339509351146103915780633f4ba83a146103ce57806340c10f19146103e557806342966c681461040e576101c2565b8063342d1867146103145780633659cfe61461033d5780633730837c14610366576101c2565b806319f7f532116101a057806319f7f5321461025a5780632220112d1461028357806323b872dd146102ac578063313ce567146102e9576101c2565b806306fdde03146101c7578063095ea7b3146101f257806318160ddd1461022f575b600080fd5b3480156101d357600080fd5b506101dc6106ed565b6040516101e99190612ad4565b60405180910390f35b3480156101fe57600080fd5b5061021960048036038101906102149190612b9e565b61077f565b6040516102269190612bf9565b60405180910390f35b34801561023b57600080fd5b506102446107a2565b6040516102519190612c23565b60405180910390f35b34801561026657600080fd5b50610281600480360381019061027c9190612d9f565b6107ac565b005b34801561028f57600080fd5b506102aa60048036038101906102a59190612fc9565b610933565b005b3480156102b857600080fd5b506102d360048036038101906102ce9190613041565b610c47565b6040516102e09190612bf9565b60405180910390f35b3480156102f557600080fd5b506102fe610de0565b60405161030b91906130b0565b60405180910390f35b34801561032057600080fd5b5061033b600480360381019061033691906130cb565b610de9565b005b34801561034957600080fd5b50610364600480360381019061035f91906130f8565b610e17565b005b34801561037257600080fd5b5061037b610f9f565b6040516103889190612c23565b60405180910390f35b34801561039d57600080fd5b506103b860048036038101906103b39190612b9e565b610fa6565b6040516103c59190612bf9565b60405180910390f35b3480156103da57600080fd5b506103e3610fdd565b005b3480156103f157600080fd5b5061040c60048036038101906104079190612b9e565b610fef565b005b34801561041a57600080fd5b5061043560048036038101906104309190613125565b61107c565b005b610451600480360381019061044c91906131f3565b611090565b005b34801561045f57600080fd5b506104686111cc565b6040516104759190613268565b60405180910390f35b34801561048a57600080fd5b506104a560048036038101906104a09190613125565b611285565b6040516104b29190613292565b60405180910390f35b3480156104c757600080fd5b506104d06112c5565b6040516104dd9190612bf9565b60405180910390f35b3480156104f257600080fd5b5061050d600480360381019061050891906130f8565b6112dc565b60405161051a9190612c23565b60405180910390f35b34801561052f57600080fd5b50610538611325565b005b34801561054657600080fd5b50610561600480360381019061055c9190612b9e565b611339565b005b34801561056f57600080fd5b50610578611359565b005b34801561058657600080fd5b5061058f611373565b60405161059c9190613292565b60405180910390f35b3480156105b157600080fd5b506105ba61139d565b6040516105c79190612ad4565b60405180910390f35b3480156105dc57600080fd5b506105f760048036038101906105f29190612b9e565b61142f565b6040516106049190612bf9565b60405180910390f35b34801561061957600080fd5b50610634600480360381019061062f9190612b9e565b6114a6565b6040516106419190612bf9565b60405180910390f35b34801561065657600080fd5b50610671600480360381019061066c91906132ad565b611639565b60405161067e9190612c23565b60405180910390f35b34801561069357600080fd5b506106ae60048036038101906106a991906130f8565b6116c0565b005b3480156106bc57600080fd5b506106d760048036038101906106d291906130f8565b611743565b6040516106e49190612c23565b60405180910390f35b6060603680546106fc9061331c565b80601f01602080910402602001604051908101604052809291908181526020018280546107289061331c565b80156107755780601f1061074a57610100808354040283529160200191610775565b820191906000526020600020905b81548152906001019060200180831161075857829003601f168201915b5050505050905090565b60008061078a611795565b905061079781858561179d565b600191505092915050565b6000603554905090565b60008060019054906101000a900460ff161590508080156107dd5750600160008054906101000a900460ff1660ff16105b8061080a57506107ec30611966565b1580156108095750600160008054906101000a900460ff1660ff16145b5b610849576040517f08c379a0000000000000000000000000000000000000000000000000000000008152600401610840906133bf565b60405180910390fd5b60016000806101000a81548160ff021916908360ff1602179055508015610886576001600060016101000a81548160ff0219169083151502179055505b82610193819055508161019460006101000a81548160ff0219169083151502179055506108b38585611989565b6108bb6119e6565b6108c3611a37565b6108cb611a90565b6108d3611ae9565b801561092c5760008060016101000a81548160ff0219169083151502179055507f7f26b83ff96e1f2b6a682f133852f6798a09c465da95921460cefb384740249860016040516109239190613424565b60405180910390a15b5050505050565b61093b611b3a565b610943611bb8565b8051825114610987576040517f08c379a000000000000000000000000000000000000000000000000000000000815260040161097e9061348b565b60405180910390fd5b600361019280549050835161099c91906134da565b11156109dd576040517f08c379a00000000000000000000000000000000000000000000000000000000081526004016109d490613580565b60405180910390fd5b6000805b8251811015610a1f578281815181106109fd576109fc6135a0565b5b602002602001015182610a1091906134da565b915080806001019150506109e1565b506064811115610a64576040517f08c379a0000000000000000000000000000000000000000000000000000000008152600401610a5b90613641565b60405180910390fd5b60005b8351811015610c41576000848281518110610a8557610a846135a0565b5b602002602001015190506000848381518110610aa457610aa36135a0565b5b602002602001015190506064811115610af2576040517f08c379a0000000000000000000000000000000000000000000000000000000008152600401610ae9906136ad565b60405180910390fd5b600061019560008473ffffffffffffffffffffffffffffffffffffffff1673ffffffffffffffffffffffffffffffffffffffff1681526020019081526020016000205403610b9f57610192829080600181540180825580915050600190039060005260206000200160009091909190916101000a81548173ffffffffffffffffffffffffffffffffffffffff021916908373ffffffffffffffffffffffffffffffffffffffff1602179055505b8061019560008473ffffffffffffffffffffffffffffffffffffffff1673ffffffffffffffffffffffffffffffffffffffff168152602001908152602001600020819055508173ffffffffffffffffffffffffffffffffffffffff167f87342df63874e81545b667a9f796b2b67e7e4430236e63aaf0e3f6bb137bc76f82604051610c2a9190612c23565b60405180910390a250508080600101915050610a67565b50505050565b6000610c51611bb8565b610c5c843384611c02565b600073ffffffffffffffffffffffffffffffffffffffff168473ffffffffffffffffffffffffffffffffffffffff1603610ccb576040517f08c379a0000000000000000000000000000000000000000000000000000000008152600401610cc290613719565b60405180910390fd5b600061019160009054906101000a900460ff1615610dbe5760005b61019280549050811015610dbc5760006101928281548110610d0b57610d0a6135a0565b5b9060005260206000200160009054906101000a900473ffffffffffffffffffffffffffffffffffffffff1690506000606461019560008473ffffffffffffffffffffffffffffffffffffffff1673ffffffffffffffffffffffffffffffffffffffff1681526020019081526020016000205487610d889190613739565b610d9291906137aa565b90508084610da091906134da565b9350610dad888383611c8e565b50508080600101915050610ce6565b505b610dd485858386610dcf91906137db565b611c8e565b60019150509392505050565b60006012905090565b610df1611b3a565b610df9611bb8565b8061019160006101000a81548160ff02191690831515021790555050565b7f000000000000000000000000000000000000000000000000000000000000000073ffffffffffffffffffffffffffffffffffffffff163073ffffffffffffffffffffffffffffffffffffffff1603610ea5576040517f08c379a0000000000000000000000000000000000000000000000000000000008152600401610e9c90613881565b60405180910390fd5b7f000000000000000000000000000000000000000000000000000000000000000073ffffffffffffffffffffffffffffffffffffffff16610ee4611f07565b73ffffffffffffffffffffffffffffffffffffffff1614610f3a576040517f08c379a0000000000000000000000000000000000000000000000000000000008152600401610f3190613913565b60405180910390fd5b610f4381611f5e565b610f9c81600067ffffffffffffffff811115610f6257610f61612c48565b5b6040519080825280601f01601f191660200182016040528015610f945781602001600182028036833780820191505090505b506000611f69565b50565b6101935481565b600080610fb1611795565b9050610fd2818585610fc38589611639565b610fcd91906134da565b61179d565b600191505092915050565b610fe5611b3a565b610fed6120d7565b565b610ff7611b3a565b610fff611bb8565b61019460009054906101000a900460ff161561106e5761019354816110226107a2565b61102c91906134da565b111561106d576040517f08c379a00000000000000000000000000000000000000000000000000000000081526004016110649061397f565b60405180910390fd5b5b611078828261213a565b5050565b61108d611087611795565b82612291565b50565b7f000000000000000000000000000000000000000000000000000000000000000073ffffffffffffffffffffffffffffffffffffffff163073ffffffffffffffffffffffffffffffffffffffff160361111e576040517f08c379a000000000000000000000000000000000000000000000000000000000815260040161111590613881565b60405180910390fd5b7f000000000000000000000000000000000000000000000000000000000000000073ffffffffffffffffffffffffffffffffffffffff1661115d611f07565b73ffffffffffffffffffffffffffffffffffffffff16146111b3576040517f08c379a00000000000000000000000000000000000000000000000000000000081526004016111aa90613913565b60405180910390fd5b6111bc82611f5e565b6111c882826001611f69565b5050565b60007f000000000000000000000000000000000000000000000000000000000000000073ffffffffffffffffffffffffffffffffffffffff163073ffffffffffffffffffffffffffffffffffffffff161461125c576040517f08c379a000000000000000000000000000000000000000000000000000000000815260040161125390613a11565b60405180910390fd5b7f360894a13ba1a3210667c828492db98dca3e2076cc3735a920a3ca505d382bbc60001b905090565b610192818154811061129657600080fd5b906000526020600020016000915054906101000a900473ffffffffffffffffffffffffffffffffffffffff1681565b6000609760009054906101000a900460ff16905090565b6000603360008373ffffffffffffffffffffffffffffffffffffffff1673ffffffffffffffffffffffffffffffffffffffff168152602001908152602001600020549050919050565b61132d611b3a565b6113376000612460565b565b61134b82611345611795565b83611c02565b6113558282612291565b5050565b611361611b3a565b611369611bb8565b611371612526565b565b600060fb60009054906101000a900473ffffffffffffffffffffffffffffffffffffffff16905090565b6060603780546113ac9061331c565b80601f01602080910402602001604051908101604052809291908181526020018280546113d89061331c565b80156114255780601f106113fa57610100808354040283529160200191611425565b820191906000526020600020905b81548152906001019060200180831161140857829003601f168201915b5050505050905090565b60008061143a611795565b905060006114488286611639565b90508381101561148d576040517f08c379a000000000000000000000000000000000000000000000000000000000815260040161148490613aa3565b60405180910390fd5b61149a828686840361179d565b60019250505092915050565b60006114b0611bb8565b6000339050600073ffffffffffffffffffffffffffffffffffffffff168173ffffffffffffffffffffffffffffffffffffffff1603611524576040517f08c379a000000000000000000000000000000000000000000000000000000000815260040161151b90613719565b60405180910390fd5b600061019160009054906101000a900460ff16156116175760005b610192805490508110156116155760006101928281548110611564576115636135a0565b5b9060005260206000200160009054906101000a900473ffffffffffffffffffffffffffffffffffffffff1690506000606461019560008473ffffffffffffffffffffffffffffffffffffffff1673ffffffffffffffffffffffffffffffffffffffff16815260200190815260200160002054886115e19190613739565b6115eb91906137aa565b905080846115f991906134da565b9350611606858383611c8e565b5050808060010191505061153f565b505b61162d8286838761162891906137db565b611c8e565b60019250505092915050565b6000603460008473ffffffffffffffffffffffffffffffffffffffff1673ffffffffffffffffffffffffffffffffffffffff16815260200190815260200160002060008373ffffffffffffffffffffffffffffffffffffffff1673ffffffffffffffffffffffffffffffffffffffff16815260200190815260200160002054905092915050565b6116c8611b3a565b600073ffffffffffffffffffffffffffffffffffffffff168173ffffffffffffffffffffffffffffffffffffffff1603611737576040517f08c379a000000000000000000000000000000000000000000000000000000000815260040161172e90613b35565b60405180910390fd5b61174081612460565b50565b600061174d611bb8565b61019560008373ffffffffffffffffffffffffffffffffffffffff1673ffffffffffffffffffffffffffffffffffffffff168152602001908152602001600020549050919050565b600033905090565b600073ffffffffffffffffffffffffffffffffffffffff168373ffffffffffffffffffffffffffffffffffffffff160361180c576040517f08c379a000000000000000000000000000000000000000000000000000000000815260040161180390613bc7565b60405180910390fd5b600073ffffffffffffffffffffffffffffffffffffffff168273ffffffffffffffffffffffffffffffffffffffff160361187b576040517f08c379a000000000000000000000000000000000000000000000000000000000815260040161187290613c59565b60405180910390fd5b80603460008573ffffffffffffffffffffffffffffffffffffffff1673ffffffffffffffffffffffffffffffffffffffff16815260200190815260200160002060008473ffffffffffffffffffffffffffffffffffffffff1673ffffffffffffffffffffffffffffffffffffffff168152602001908152602001600020819055508173ffffffffffffffffffffffffffffffffffffffff168373ffffffffffffffffffffffffffffffffffffffff167f8c5be1e5ebec7d5bd14f71427d1e84f3dd0314c0f7b2291e5b200ac8c7c3b925836040516119599190612c23565b60405180910390a3505050565b6000808273ffffffffffffffffffffffffffffffffffffffff163b119050919050565b600060019054906101000a900460ff166119d8576040517f08c379a00000000000000000000000000000000000000000000000000000000081526004016119cf90613ceb565b60405180910390fd5b6119e28282612589565b5050565b600060019054906101000a900460ff16611a35576040517f08c379a0000000000000000000000000000000000000000000000000000000008152600401611a2c90613ceb565b60405180910390fd5b565b600060019054906101000a900460ff16611a86576040517f08c379a0000000000000000000000000000000000000000000000000000000008152600401611a7d90613ceb565b60405180910390fd5b611a8e6125fc565b565b600060019054906101000a900460ff16611adf576040517f08c379a0000000000000000000000000000000000000000000000000000000008152600401611ad690613ceb565b60405180910390fd5b611ae7612668565b565b600060019054906101000a900460ff16611b38576040517f08c379a0000000000000000000000000000000000000000000000000000000008152600401611b2f90613ceb565b60405180910390fd5b565b611b42611795565b73ffffffffffffffffffffffffffffffffffffffff16611b60611373565b73ffffffffffffffffffffffffffffffffffffffff1614611bb6576040517f08c379a0000000000000000000000000000000000000000000000000000000008152600401611bad90613d57565b60405180910390fd5b565b611bc06112c5565b15611c00576040517f08c379a0000000000000000000000000000000000000000000000000000000008152600401611bf790613dc3565b60405180910390fd5b565b6000611c0e8484611639565b90507fffffffffffffffffffffffffffffffffffffffffffffffffffffffffffffffff8114611c885781811015611c7a576040517f08c379a0000000000000000000000000000000000000000000000000000000008152600401611c7190613e2f565b60405180910390fd5b611c87848484840361179d565b5b50505050565b600073ffffffffffffffffffffffffffffffffffffffff168373ffffffffffffffffffffffffffffffffffffffff1603611cfd576040517f08c379a0000000000000000000000000000000000000000000000000000000008152600401611cf490613ec1565b60405180910390fd5b600073ffffffffffffffffffffffffffffffffffffffff168273ffffffffffffffffffffffffffffffffffffffff1603611d6c576040517f08c379a0000000000000000000000000000000000000000000000000000000008152600401611d6390613f53565b60405180910390fd5b611d778383836126c9565b6000603360008573ffffffffffffffffffffffffffffffffffffffff1673ffffffffffffffffffffffffffffffffffffffff16815260200190815260200160002054905081811015611dfe576040517f08c379a0000000000000000000000000000000000000000000000000000000008152600401611df590613fe5565b60405180910390fd5b818103603360008673ffffffffffffffffffffffffffffffffffffffff1673ffffffffffffffffffffffffffffffffffffffff1681526020019081526020016000208190555081603360008573ffffffffffffffffffffffffffffffffffffffff1673ffffffffffffffffffffffffffffffffffffffff168152602001908152602001600020600082825401925050819055508273ffffffffffffffffffffffffffffffffffffffff168473ffffffffffffffffffffffffffffffffffffffff167fddf252ad1be2c89b69c2b068fc378daa952ba7f163c4a11628f55a4df523b3ef84604051611eee9190612c23565b60405180910390a3611f018484846126d9565b50505050565b6000611f357f360894a13ba1a3210667c828492db98dca3e2076cc3735a920a3ca505d382bbc60001b6126de565b60000160009054906101000a900473ffffffffffffffffffffffffffffffffffffffff16905090565b611f66611b3a565b50565b611f957f4910fdfa16fed3260ed0e7147f7cc6da11a60208b5b9406d12a635614ffd914360001b6126e8565b60000160009054906101000a900460ff1615611fb957611fb4836126f2565b6120d2565b8273ffffffffffffffffffffffffffffffffffffffff166352d1902d6040518163ffffffff1660e01b8152600401602060405180830381865afa92505050801561202157506040513d601f19601f8201168201806040525081019061201e9190614031565b60015b612060576040517f08c379a0000000000000000000000000000000000000000000000000000000008152600401612057906140d0565b60405180910390fd5b7f360894a13ba1a3210667c828492db98dca3e2076cc3735a920a3ca505d382bbc60001b81146120c5576040517f08c379a00000000000000000000000000000000000000000000000000000000081526004016120bc90614162565b60405180910390fd5b506120d18383836127ab565b5b505050565b6120df6127d7565b6000609760006101000a81548160ff0219169083151502179055507f5db9ee0a495bf2e6ff9c91a7834c1ba4fdd244a5e8aa4e537bd38aeae4b073aa612123611795565b6040516121309190613292565b60405180910390a1565b600073ffffffffffffffffffffffffffffffffffffffff168273ffffffffffffffffffffffffffffffffffffffff16036121a9576040517f08c379a00000000000000000000000000000000000000000000000000000000081526004016121a0906141ce565b60405180910390fd5b6121b5600083836126c9565b80603560008282546121c791906134da565b9250508190555080603360008473ffffffffffffffffffffffffffffffffffffffff1673ffffffffffffffffffffffffffffffffffffffff168152602001908152602001600020600082825401925050819055508173ffffffffffffffffffffffffffffffffffffffff16600073ffffffffffffffffffffffffffffffffffffffff167fddf252ad1be2c89b69c2b068fc378daa952ba7f163c4a11628f55a4df523b3ef836040516122799190612c23565b60405180910390a361228d600083836126d9565b5050565b600073ffffffffffffffffffffffffffffffffffffffff168273ffffffffffffffffffffffffffffffffffffffff1603612300576040517f08c379a00000000000000000000000000000000000000000000000000000000081526004016122f790614260565b60405180910390fd5b61230c826000836126c9565b6000603360008473ffffffffffffffffffffffffffffffffffffffff1673ffffffffffffffffffffffffffffffffffffffff16815260200190815260200160002054905081811015612393576040517f08c379a000000000000000000000000000000000000000000000000000000000815260040161238a906142f2565b60405180910390fd5b818103603360008573ffffffffffffffffffffffffffffffffffffffff1673ffffffffffffffffffffffffffffffffffffffff1681526020019081526020016000208190555081603560008282540392505081905550600073ffffffffffffffffffffffffffffffffffffffff168373ffffffffffffffffffffffffffffffffffffffff167fddf252ad1be2c89b69c2b068fc378daa952ba7f163c4a11628f55a4df523b3ef846040516124479190612c23565b60405180910390a361245b836000846126d9565b505050565b600060fb60009054906101000a900473ffffffffffffffffffffffffffffffffffffffff1690508160fb60006101000a81548173ffffffffffffffffffffffffffffffffffffffff021916908373ffffffffffffffffffffffffffffffffffffffff1602179055508173ffffffffffffffffffffffffffffffffffffffff168173ffffffffffffffffffffffffffffffffffffffff167f8be0079c531659141344cd1fd0a4f28419497f9722a3daafe3b4186f6b6457e060405160405180910390a35050565b61252e611bb8565b6001609760006101000a81548160ff0219169083151502179055507f62e78cea01bee320cd4e420270b5ea74000d11b0c9f74754ebdbfc544b05a258612572611795565b60405161257f9190613292565b60405180910390a1565b600060019054906101000a900460ff166125d8576040517f08c379a00000000000000000000000000000000000000000000000000000000081526004016125cf90613ceb565b60405180910390fd5b81603690816125e791906144b4565b5080603790816125f791906144b4565b505050565b600060019054906101000a900460ff1661264b576040517f08c379a000000000000000000000000000000000000000000000000000000000815260040161264290613ceb565b60405180910390fd5b6000609760006101000a81548160ff021916908315150217905550565b600060019054906101000a900460ff166126b7576040517f08c379a00000000000000000000000000000000000000000000000000000000081526004016126ae90613ceb565b60405180910390fd5b6126c76126c2611795565b612460565b565b6126d4838383612820565b505050565b505050565b6000819050919050565b6000819050919050565b6126fb81611966565b61273a576040517f08c379a0000000000000000000000000000000000000000000000000000000008152600401612731906145f8565b60405180910390fd5b806127677f360894a13ba1a3210667c828492db98dca3e2076cc3735a920a3ca505d382bbc60001b6126de565b60000160006101000a81548173ffffffffffffffffffffffffffffffffffffffff021916908373ffffffffffffffffffffffffffffffffffffffff16021790555050565b6127b483612878565b6000825111806127c15750805b156127d2576127d083836128c7565b505b505050565b6127df6112c5565b61281e576040517f08c379a000000000000000000000000000000000000000000000000000000000815260040161281590614664565b60405180910390fd5b565b61282b8383836128f4565b6128336112c5565b15612873576040517f08c379a000000000000000000000000000000000000000000000000000000000815260040161286a906146f6565b60405180910390fd5b505050565b612881816126f2565b8073ffffffffffffffffffffffffffffffffffffffff167fbc7cd75a20ee27fd9adebab32041f755214dbc6bffa90cc0225b39da2e5c2d3b60405160405180910390a250565b60606128ec83836040518060600160405280602781526020016147e1602791396128f9565b905092915050565b505050565b60606000808573ffffffffffffffffffffffffffffffffffffffff1685604051612923919061475d565b600060405180830381855af49150503d806000811461295e576040519150601f19603f3d011682016040523d82523d6000602084013e612963565b606091505b50915091506129748683838761297f565b925050509392505050565b606083156129e15760008351036129d95761299985611966565b6129d8576040517f08c379a00000000000000000000000000000000000000000000000000000000081526004016129cf906147c0565b60405180910390fd5b5b8290506129ec565b6129eb83836129f4565b5b949350505050565b600082511115612a075781518083602001fd5b806040517f08c379a0000000000000000000000000000000000000000000000000000000008152600401612a3b9190612ad4565b60405180910390fd5b600081519050919050565b600082825260208201905092915050565b60005b83811015612a7e578082015181840152602081019050612a63565b60008484015250505050565b6000601f19601f8301169050919050565b6000612aa682612a44565b612ab08185612a4f565b9350612ac0818560208601612a60565b612ac981612a8a565b840191505092915050565b60006020820190508181036000830152612aee8184612a9b565b905092915050565b6000604051905090565b600080fd5b600080fd5b600073ffffffffffffffffffffffffffffffffffffffff82169050919050565b6000612b3582612b0a565b9050919050565b612b4581612b2a565b8114612b5057600080fd5b50565b600081359050612b6281612b3c565b92915050565b6000819050919050565b612b7b81612b68565b8114612b8657600080fd5b50565b600081359050612b9881612b72565b92915050565b60008060408385031215612bb557612bb4612b00565b5b6000612bc385828601612b53565b9250506020612bd485828601612b89565b9150509250929050565b60008115159050919050565b612bf381612bde565b82525050565b6000602082019050612c0e6000830184612bea565b92915050565b612c1d81612b68565b82525050565b6000602082019050612c386000830184612c14565b92915050565b600080fd5b600080fd5b7f4e487b7100000000000000000000000000000000000000000000000000000000600052604160045260246000fd5b612c8082612a8a565b810181811067ffffffffffffffff82111715612c9f57612c9e612c48565b5b80604052505050565b6000612cb2612af6565b9050612cbe8282612c77565b919050565b600067ffffffffffffffff821115612cde57612cdd612c48565b5b612ce782612a8a565b9050602081019050919050565b82818337600083830152505050565b6000612d16612d1184612cc3565b612ca8565b905082815260208101848484011115612d3257612d31612c43565b5b612d3d848285612cf4565b509392505050565b600082601f830112612d5a57612d59612c3e565b5b8135612d6a848260208601612d03565b91505092915050565b612d7c81612bde565b8114612d8757600080fd5b50565b600081359050612d9981612d73565b92915050565b60008060008060808587031215612db957612db8612b00565b5b600085013567ffffffffffffffff811115612dd757612dd6612b05565b5b612de387828801612d45565b945050602085013567ffffffffffffffff811115612e0457612e03612b05565b5b612e1087828801612d45565b9350506040612e2187828801612b89565b9250506060612e3287828801612d8a565b91505092959194509250565b600067ffffffffffffffff821115612e5957612e58612c48565b5b602082029050602081019050919050565b600080fd5b6000612e82612e7d84612e3e565b612ca8565b90508083825260208201905060208402830185811115612ea557612ea4612e6a565b5b835b81811015612ece5780612eba8882612b53565b845260208401935050602081019050612ea7565b5050509392505050565b600082601f830112612eed57612eec612c3e565b5b8135612efd848260208601612e6f565b91505092915050565b600067ffffffffffffffff821115612f2157612f20612c48565b5b602082029050602081019050919050565b6000612f45612f4084612f06565b612ca8565b90508083825260208201905060208402830185811115612f6857612f67612e6a565b5b835b81811015612f915780612f7d8882612b89565b845260208401935050602081019050612f6a565b5050509392505050565b600082601f830112612fb057612faf612c3e565b5b8135612fc0848260208601612f32565b91505092915050565b60008060408385031215612fe057612fdf612b00565b5b600083013567ffffffffffffffff811115612ffe57612ffd612b05565b5b61300a85828601612ed8565b925050602083013567ffffffffffffffff81111561302b5761302a612b05565b5b61303785828601612f9b565b9150509250929050565b60008060006060848603121561305a57613059612b00565b5b600061306886828701612b53565b935050602061307986828701612b53565b925050604061308a86828701612b89565b9150509250925092565b600060ff82169050919050565b6130aa81613094565b82525050565b60006020820190506130c560008301846130a1565b92915050565b6000602082840312156130e1576130e0612b00565b5b60006130ef84828501612d8a565b91505092915050565b60006020828403121561310e5761310d612b00565b5b600061311c84828501612b53565b91505092915050565b60006020828403121561313b5761313a612b00565b5b600061314984828501612b89565b91505092915050565b600067ffffffffffffffff82111561316d5761316c612c48565b5b61317682612a8a565b9050602081019050919050565b600061319661319184613152565b612ca8565b9050828152602081018484840111156131b2576131b1612c43565b5b6131bd848285612cf4565b509392505050565b600082601f8301126131da576131d9612c3e565b5b81356131ea848260208601613183565b91505092915050565b6000806040838503121561320a57613209612b00565b5b600061321885828601612b53565b925050602083013567ffffffffffffffff81111561323957613238612b05565b5b613245858286016131c5565b9150509250929050565b6000819050919050565b6132628161324f565b82525050565b600060208201905061327d6000830184613259565b92915050565b61328c81612b2a565b82525050565b60006020820190506132a76000830184613283565b92915050565b600080604083850312156132c4576132c3612b00565b5b60006132d285828601612b53565b92505060206132e385828601612b53565b9150509250929050565b7f4e487b7100000000000000000000000000000000000000000000000000000000600052602260045260246000fd5b6000600282049050600182168061333457607f821691505b602082108103613347576133466132ed565b5b50919050565b7f496e697469616c697a61626c653a20636f6e747261637420697320616c72656160008201527f647920696e697469616c697a6564000000000000000000000000000000000000602082015250565b60006133a9602e83612a4f565b91506133b48261334d565b604082019050919050565b600060208201905081810360008301526133d88161339c565b9050919050565b6000819050919050565b6000819050919050565b600061340e613409613404846133df565b6133e9565b613094565b9050919050565b61341e816133f3565b82525050565b60006020820190506134396000830184613415565b92915050565b7f417272617973206c656e677468206d69736d6174636800000000000000000000600082015250565b6000613475601683612a4f565b91506134808261343f565b602082019050919050565b600060208201905081810360008301526134a481613468565b9050919050565b7f4e487b7100000000000000000000000000000000000000000000000000000000600052601160045260246000fd5b60006134e582612b68565b91506134f083612b68565b9250828201905080821115613508576135076134ab565b5b92915050565b7f45786365656473206d6178696d756d206e756d626572206f6620636f6d6d697360008201527f73696f6e20616464726573736573000000000000000000000000000000000000602082015250565b600061356a602e83612a4f565b91506135758261350e565b604082019050919050565b600060208201905081810360008301526135998161355d565b9050919050565b7f4e487b7100000000000000000000000000000000000000000000000000000000600052603260045260246000fd5b7f546f74616c20636f6d6d697373696f6e2070657263656e74616765732065786360008201527f6565642031303025000000000000000000000000000000000000000000000000602082015250565b600061362b602883612a4f565b9150613636826135cf565b604082019050919050565b6000602082019050818103600083015261365a8161361e565b9050919050565b7f50657263656e74616765206d757374206265203c3d2031303000000000000000600082015250565b6000613697601983612a4f565b91506136a282613661565b602082019050919050565b600060208201905081810360008301526136c68161368a565b9050919050565b7f5472616e736665722066726f6d20302061646472657373000000000000000000600082015250565b6000613703601783612a4f565b915061370e826136cd565b602082019050919050565b60006020820190508181036000830152613732816136f6565b9050919050565b600061374482612b68565b915061374f83612b68565b925082820261375d81612b68565b91508282048414831517613774576137736134ab565b5b5092915050565b7f4e487b7100000000000000000000000000000000000000000000000000000000600052601260045260246000fd5b60006137b582612b68565b91506137c083612b68565b9250826137d0576137cf61377b565b5b828204905092915050565b60006137e682612b68565b91506137f183612b68565b9250828203905081811115613809576138086134ab565b5b92915050565b7f46756e6374696f6e206d7573742062652063616c6c6564207468726f7567682060008201527f64656c656761746563616c6c0000000000000000000000000000000000000000602082015250565b600061386b602c83612a4f565b91506138768261380f565b604082019050919050565b6000602082019050818103600083015261389a8161385e565b9050919050565b7f46756e6374696f6e206d7573742062652063616c6c6564207468726f7567682060008201527f6163746976652070726f78790000000000000000000000000000000000000000602082015250565b60006138fd602c83612a4f565b9150613908826138a1565b604082019050919050565b6000602082019050818103600083015261392c816138f0565b9050919050565b7f45786365656473206d6178696d756d20746f74616c20737570706c7900000000600082015250565b6000613969601c83612a4f565b915061397482613933565b602082019050919050565b600060208201905081810360008301526139988161395c565b9050919050565b7f555550535570677261646561626c653a206d757374206e6f742062652063616c60008201527f6c6564207468726f7567682064656c656761746563616c6c0000000000000000602082015250565b60006139fb603883612a4f565b9150613a068261399f565b604082019050919050565b60006020820190508181036000830152613a2a816139ee565b9050919050565b7f45524332303a2064656372656173656420616c6c6f77616e63652062656c6f7760008201527f207a65726f000000000000000000000000000000000000000000000000000000602082015250565b6000613a8d602583612a4f565b9150613a9882613a31565b604082019050919050565b60006020820190508181036000830152613abc81613a80565b9050919050565b7f4f776e61626c653a206e6577206f776e657220697320746865207a65726f206160008201527f6464726573730000000000000000000000000000000000000000000000000000602082015250565b6000613b1f602683612a4f565b9150613b2a82613ac3565b604082019050919050565b60006020820190508181036000830152613b4e81613b12565b9050919050565b7f45524332303a20617070726f76652066726f6d20746865207a65726f2061646460008201527f7265737300000000000000000000000000000000000000000000000000000000602082015250565b6000613bb1602483612a4f565b9150613bbc82613b55565b604082019050919050565b60006020820190508181036000830152613be081613ba4565b9050919050565b7f45524332303a20617070726f766520746f20746865207a65726f20616464726560008201527f7373000000000000000000000000000000000000000000000000000000000000602082015250565b6000613c43602283612a4f565b9150613c4e82613be7565b604082019050919050565b60006020820190508181036000830152613c7281613c36565b9050919050565b7f496e697469616c697a61626c653a20636f6e7472616374206973206e6f74206960008201527f6e697469616c697a696e67000000000000000000000000000000000000000000602082015250565b6000613cd5602b83612a4f565b9150613ce082613c79565b604082019050919050565b60006020820190508181036000830152613d0481613cc8565b9050919050565b7f4f776e61626c653a2063616c6c6572206973206e6f7420746865206f776e6572600082015250565b6000613d41602083612a4f565b9150613d4c82613d0b565b602082019050919050565b60006020820190508181036000830152613d7081613d34565b9050919050565b7f5061757361626c653a2070617573656400000000000000000000000000000000600082015250565b6000613dad601083612a4f565b9150613db882613d77565b602082019050919050565b60006020820190508181036000830152613ddc81613da0565b9050919050565b7f45524332303a20696e73756666696369656e7420616c6c6f77616e6365000000600082015250565b6000613e19601d83612a4f565b9150613e2482613de3565b602082019050919050565b60006020820190508181036000830152613e4881613e0c565b9050919050565b7f45524332303a207472616e736665722066726f6d20746865207a65726f20616460008201527f6472657373000000000000000000000000000000000000000000000000000000602082015250565b6000613eab602583612a4f565b9150613eb682613e4f565b604082019050919050565b60006020820190508181036000830152613eda81613e9e565b9050919050565b7f45524332303a207472616e7366657220746f20746865207a65726f206164647260008201527f6573730000000000000000000000000000000000000000000000000000000000602082015250565b6000613f3d602383612a4f565b9150613f4882613ee1565b604082019050919050565b60006020820190508181036000830152613f6c81613f30565b9050919050565b7f45524332303a207472616e7366657220616d6f756e742065786365656473206260008201527f616c616e63650000000000000000000000000000000000000000000000000000602082015250565b6000613fcf602683612a4f565b9150613fda82613f73565b604082019050919050565b60006020820190508181036000830152613ffe81613fc2565b9050919050565b61400e8161324f565b811461401957600080fd5b50565b60008151905061402b81614005565b92915050565b60006020828403121561404757614046612b00565b5b60006140558482850161401c565b91505092915050565b7f45524331393637557067726164653a206e657720696d706c656d656e7461746960008201527f6f6e206973206e6f742055555053000000000000000000000000000000000000602082015250565b60006140ba602e83612a4f565b91506140c58261405e565b604082019050919050565b600060208201905081810360008301526140e9816140ad565b9050919050565b7f45524331393637557067726164653a20756e737570706f727465642070726f7860008201527f6961626c65555549440000000000000000000000000000000000000000000000602082015250565b600061414c602983612a4f565b9150614157826140f0565b604082019050919050565b6000602082019050818103600083015261417b8161413f565b9050919050565b7f45524332303a206d696e7420746f20746865207a65726f206164647265737300600082015250565b60006141b8601f83612a4f565b91506141c382614182565b602082019050919050565b600060208201905081810360008301526141e7816141ab565b9050919050565b7f45524332303a206275726e2066726f6d20746865207a65726f2061646472657360008201527f7300000000000000000000000000000000000000000000000000000000000000602082015250565b600061424a602183612a4f565b9150614255826141ee565b604082019050919050565b600060208201905081810360008301526142798161423d565b9050919050565b7f45524332303a206275726e20616d6f756e7420657863656564732062616c616e60008201527f6365000000000000000000000000000000000000000000000000000000000000602082015250565b60006142dc602283612a4f565b91506142e782614280565b604082019050919050565b6000602082019050818103600083015261430b816142cf565b9050919050565b60008190508160005260206000209050919050565b60006020601f8301049050919050565b600082821b905092915050565b6000600883026143747fffffffffffffffffffffffffffffffffffffffffffffffffffffffffffffffff82614337565b61437e8683614337565b95508019841693508086168417925050509392505050565b60006143b16143ac6143a784612b68565b6133e9565b612b68565b9050919050565b6000819050919050565b6143cb83614396565b6143df6143d7826143b8565b848454614344565b825550505050565b600090565b6143f46143e7565b6143ff8184846143c2565b505050565b5b81811015614423576144186000826143ec565b600181019050614405565b5050565b601f8211156144685761443981614312565b61444284614327565b81016020851015614451578190505b61446561445d85614327565b830182614404565b50505b505050565b600082821c905092915050565b600061448b6000198460080261446d565b1980831691505092915050565b60006144a4838361447a565b9150826002028217905092915050565b6144bd82612a44565b67ffffffffffffffff8111156144d6576144d5612c48565b5b6144e0825461331c565b6144eb828285614427565b600060209050601f83116001811461451e576000841561450c578287015190505b6145168582614498565b86555061457e565b601f19841661452c86614312565b60005b828110156145545784890151825560018201915060208501945060208101905061452f565b86831015614571578489015161456d601f89168261447a565b8355505b6001600288020188555050505b505050505050565b7f455243313936373a206e657720696d706c656d656e746174696f6e206973206e60008201527f6f74206120636f6e747261637400000000000000000000000000000000000000602082015250565b60006145e2602d83612a4f565b91506145ed82614586565b604082019050919050565b60006020820190508181036000830152614611816145d5565b9050919050565b7f5061757361626c653a206e6f7420706175736564000000000000000000000000600082015250565b600061464e601483612a4f565b915061465982614618565b602082019050919050565b6000602082019050818103600083015261467d81614641565b9050919050565b7f45524332305061757361626c653a20746f6b656e207472616e7366657220776860008201527f696c652070617573656400000000000000000000000000000000000000000000602082015250565b60006146e0602a83612a4f565b91506146eb82614684565b604082019050919050565b6000602082019050818103600083015261470f816146d3565b9050919050565b600081519050919050565b600081905092915050565b600061473782614716565b6147418185614721565b9350614751818560208601612a60565b80840191505092915050565b6000614769828461472c565b915081905092915050565b7f416464726573733a2063616c6c20746f206e6f6e2d636f6e7472616374000000600082015250565b60006147aa601d83612a4f565b91506147b582614774565b602082019050919050565b600060208201905081810360008301526147d98161479d565b905091905056fe416464726573733a206c6f772d6c6576656c2064656c65676174652063616c6c206661696c6564a2646970667358221220e1ed2d8167bae46551a1bf04311535bb230ab7afc75cc8935ea25da12bc48ce764736f6c63430008180033",
  "linkReferences": {},
  "deployedLinkReferences": {}
}