{
  "_format": "hh-sol-artifact-1",
  "contractName": "ImpressoAC",
  "sourceName": "contracts/ImpressoAC.sol",
  "abi": [
    {
      "inputs": [],
      "stateMutability": "nonpayable",
      "type": "constructor"
    },
    {
      "anonymous": false,
      "inputs": [
        {
          "indexed": false,
          "internalType": "address",
          "name": "previousAdmin",
          "type": "address"
        },
        {
          "indexed": false,
          "internalType": "address",
          "name": "newAdmin",
          "type": "address"
        }
      ],
      "name": "AdminChanged",
      "type": "event"
    },
    {
      "anonymous": false,
      "inputs": [
        {
          "indexed": true,
          "internalType": "address",
          "name": "owner",
          "type": "address"
        },
        {
          "indexed": true,
          "internalType": "address",
          "name": "spender",
          "type": "address"
        },
        {
          "indexed": false,
          "internalType": "uint256",
          "name": "value",
          "type": "uint256"
        }
      ],
      "name": "Approval",
      "type": "event"
    },
    {
      "anonymous": false,
      "inputs": [
        {
          "indexed": true,
          "internalType": "address",
          "name": "beacon",
          "type": "address"
        }
      ],
      "name": "BeaconUpgraded",
      "type": "event"
    },
    {
      "anonymous": false,
      "inputs": [
        {
          "indexed": true,
          "internalType": "address",
          "name": "commissioner",
          "type": "address"
        },
        {
          "indexed": false,
          "internalType": "uint256",
          "name": "newPercentage",
          "type": "uint256"
        }
      ],
      "name": "CommissionUpdated",
      "type": "event"
    },
    {
      "anonymous": false,
      "inputs": [
        {
          "indexed": false,
          "internalType": "uint8",
          "name": "version",
          "type": "uint8"
        }
      ],
      "name": "Initialized",
      "type": "event"
    },
    {
      "anonymous": false,
      "inputs": [
        {
          "indexed": false,
          "internalType": "address",
          "name": "account",
          "type": "address"
        }
      ],
      "name": "Paused",
      "type": "event"
    },
    {
      "anonymous": false,
      "inputs": [
        {
          "indexed": true,
          "internalType": "bytes32",
          "name": "role",
          "type": "bytes32"
        },
        {
          "indexed": true,
          "internalType": "bytes32",
          "name": "previousAdminRole",
          "type": "bytes32"
        },
        {
          "indexed": true,
          "internalType": "bytes32",
          "name": "newAdminRole",
          "type": "bytes32"
        }
      ],
      "name": "RoleAdminChanged",
      "type": "event"
    },
    {
      "anonymous": false,
      "inputs": [
        {
          "indexed": true,
          "internalType": "bytes32",
          "name": "role",
          "type": "bytes32"
        },
        {
          "indexed": true,
          "internalType": "address",
          "name": "account",
          "type": "address"
        },
        {
          "indexed": true,
          "internalType": "address",
          "name": "sender",
          "type": "address"
        }
      ],
      "name": "RoleGranted",
      "type": "event"
    },
    {
      "anonymous": false,
      "inputs": [
        {
          "indexed": true,
          "internalType": "bytes32",
          "name": "role",
          "type": "bytes32"
        },
        {
          "indexed": true,
          "internalType": "address",
          "name": "account",
          "type": "address"
        },
        {
          "indexed": true,
          "internalType": "address",
          "name": "sender",
          "type": "address"
        }
      ],
      "name": "RoleRevoked",
      "type": "event"
    },
    {
      "anonymous": false,
      "inputs": [
        {
          "indexed": true,
          "internalType": "address",
          "name": "from",
          "type": "address"
        },
        {
          "indexed": true,
          "internalType": "address",
          "name": "to",
          "type": "address"
        },
        {
          "indexed": false,
          "internalType": "uint256",
          "name": "value",
          "type": "uint256"
        }
      ],
      "name": "Transfer",
      "type": "event"
    },
    {
      "anonymous": false,
      "inputs": [
        {
          "indexed": false,
          "internalType": "address",
          "name": "account",
          "type": "address"
        }
      ],
      "name": "Unpaused",
      "type": "event"
    },
    {
      "anonymous": false,
      "inputs": [
        {
          "indexed": true,
          "internalType": "address",
          "name": "implementation",
          "type": "address"
        }
      ],
      "name": "Upgraded",
      "type": "event"
    },
    {
      "inputs": [],
      "name": "BURNER_ROLE",
      "outputs": [
        {
          "internalType": "bytes32",
          "name": "",
          "type": "bytes32"
        }
      ],
      "stateMutability": "view",
      "type": "function"
    },
    {
      "inputs": [],
      "name": "DEFAULT_ADMIN_ROLE",
      "outputs": [
        {
          "internalType": "bytes32",
          "name": "",
          "type": "bytes32"
        }
      ],
      "stateMutability": "view",
      "type": "function"
    },
    {
      "inputs": [],
      "name": "MINTER_ROLE",
      "outputs": [
        {
          "internalType": "bytes32",
          "name": "",
          "type": "bytes32"
        }
      ],
      "stateMutability": "view",
      "type": "function"
    },
    {
      "inputs": [],
      "name": "PAUSER_ROLE",
      "outputs": [
        {
          "internalType": "bytes32",
          "name": "",
          "type": "bytes32"
        }
      ],
      "stateMutability": "view",
      "type": "function"
    },
    {
      "inputs": [],
      "name": "UPGRADER_ROLE",
      "outputs": [
        {
          "internalType": "bytes32",
          "name": "",
          "type": "bytes32"
        }
      ],
      "stateMutability": "view",
      "type": "function"
    },
    {
      "inputs": [
        {
          "internalType": "uint256",
          "name": "",
          "type": "uint256"
        }
      ],
      "name": "_commissionAddresses",
      "outputs": [
        {
          "internalType": "address",
          "name": "",
          "type": "address"
        }
      ],
      "stateMutability": "view",
      "type": "function"
    },
    {
      "inputs": [],
      "name": "_maxTotalSupply",
      "outputs": [
        {
          "internalType": "uint256",
          "name": "",
          "type": "uint256"
        }
      ],
      "stateMutability": "view",
      "type": "function"
    },
    {
      "inputs": [
        {
          "internalType": "address",
          "name": "owner",
          "type": "address"
        },
        {
          "internalType": "address",
          "name": "spender",
          "type": "address"
        }
      ],
      "name": "allowance",
      "outputs": [
        {
          "internalType": "uint256",
          "name": "",
          "type": "uint256"
        }
      ],
      "stateMutability": "view",
      "type": "function"
    },
    {
      "inputs": [
        {
          "internalType": "address",
          "name": "spender",
          "type": "address"
        },
        {
          "internalType": "uint256",
          "name": "amount",
          "type": "uint256"
        }
      ],
      "name": "approve",
      "outputs": [
        {
          "internalType": "bool",
          "name": "",
          "type": "bool"
        }
      ],
      "stateMutability": "nonpayable",
      "type": "function"
    },
    {
      "inputs": [
        {
          "internalType": "address",
          "name": "account",
          "type": "address"
        }
      ],
      "name": "balanceOf",
      "outputs": [
        {
          "internalType": "uint256",
          "name": "",
          "type": "uint256"
        }
      ],
      "stateMutability": "view",
      "type": "function"
    },
    {
      "inputs": [
        {
          "internalType": "uint256",
          "name": "amount",
          "type": "uint256"
        }
      ],
      "name": "burn",
      "outputs": [],
      "stateMutability": "nonpayable",
      "type": "function"
    },
    {
      "inputs": [
        {
          "internalType": "address",
          "name": "account",
          "type": "address"
        },
        {
          "internalType": "uint256",
          "name": "amount",
          "type": "uint256"
        }
      ],
      "name": "burn",
      "outputs": [],
      "stateMutability": "nonpayable",
      "type": "function"
    },
    {
      "inputs": [
        {
          "internalType": "address",
          "name": "account",
          "type": "address"
        },
        {
          "internalType": "uint256",
          "name": "amount",
          "type": "uint256"
        }
      ],
      "name": "burnFrom",
      "outputs": [],
      "stateMutability": "nonpayable",
      "type": "function"
    },
    {
      "inputs": [],
      "name": "decimals",
      "outputs": [
        {
          "internalType": "uint8",
          "name": "",
          "type": "uint8"
        }
      ],
      "stateMutability": "view",
      "type": "function"
    },
    {
      "inputs": [
        {
          "internalType": "address",
          "name": "spender",
          "type": "address"
        },
        {
          "internalType": "uint256",
          "name": "subtractedValue",
          "type": "uint256"
        }
      ],
      "name": "decreaseAllowance",
      "outputs": [
        {
          "internalType": "bool",
          "name": "",
          "type": "bool"
        }
      ],
      "stateMutability": "nonpayable",
      "type": "function"
    },
    {
      "inputs": [
        {
          "internalType": "address",
          "name": "addr",
          "type": "address"
        }
      ],
      "name": "getCommissionPercentage",
      "outputs": [
        {
          "internalType": "uint256",
          "name": "",
          "type": "uint256"
        }
      ],
      "stateMutability": "view",
      "type": "function"
    },
    {
      "inputs": [
        {
          "internalType": "bytes32",
          "name": "role",
          "type": "bytes32"
        }
      ],
      "name": "getRoleAdmin",
      "outputs": [
        {
          "internalType": "bytes32",
          "name": "",
          "type": "bytes32"
        }
      ],
      "stateMutability": "view",
      "type": "function"
    },
    {
      "inputs": [
        {
          "internalType": "bytes32",
          "name": "role",
          "type": "bytes32"
        },
        {
          "internalType": "address",
          "name": "account",
          "type": "address"
        }
      ],
      "name": "grantRole",
      "outputs": [],
      "stateMutability": "nonpayable",
      "type": "function"
    },
    {
      "inputs": [
        {
          "internalType": "address",
          "name": "user",
          "type": "address"
        },
        {
          "internalType": "string",
          "name": "role",
          "type": "string"
        }
      ],
      "name": "grantRoleForAddress",
      "outputs": [],
      "stateMutability": "nonpayable",
      "type": "function"
    },
    {
      "inputs": [
        {
          "internalType": "bytes32",
          "name": "role",
          "type": "bytes32"
        },
        {
          "internalType": "address",
          "name": "account",
          "type": "address"
        }
      ],
      "name": "hasRole",
      "outputs": [
        {
          "internalType": "bool",
          "name": "",
          "type": "bool"
        }
      ],
      "stateMutability": "view",
      "type": "function"
    },
    {
      "inputs": [
        {
          "internalType": "address",
          "name": "spender",
          "type": "address"
        },
        {
          "internalType": "uint256",
          "name": "addedValue",
          "type": "uint256"
        }
      ],
      "name": "increaseAllowance",
      "outputs": [
        {
          "internalType": "bool",
          "name": "",
          "type": "bool"
        }
      ],
      "stateMutability": "nonpayable",
      "type": "function"
    },
    {
      "inputs": [
        {
          "internalType": "string",
          "name": "name",
          "type": "string"
        },
        {
          "internalType": "string",
          "name": "symbol",
          "type": "string"
        },
        {
          "internalType": "uint256",
          "name": "maxTotalSupply",
          "type": "uint256"
        },
        {
          "internalType": "bool",
          "name": "useMaxTotalSupply",
          "type": "bool"
        },
        {
          "internalType": "address",
          "name": "owner",
          "type": "address"
        }
      ],
      "name": "initialize",
      "outputs": [],
      "stateMutability": "nonpayable",
      "type": "function"
    },
    {
      "inputs": [
        {
          "internalType": "address",
          "name": "to",
          "type": "address"
        },
        {
          "internalType": "uint256",
          "name": "amount",
          "type": "uint256"
        }
      ],
      "name": "mint",
      "outputs": [],
      "stateMutability": "nonpayable",
      "type": "function"
    },
    {
      "inputs": [],
      "name": "name",
      "outputs": [
        {
          "internalType": "string",
          "name": "",
          "type": "string"
        }
      ],
      "stateMutability": "view",
      "type": "function"
    },
    {
      "inputs": [],
      "name": "pause",
      "outputs": [],
      "stateMutability": "nonpayable",
      "type": "function"
    },
    {
      "inputs": [],
      "name": "paused",
      "outputs": [
        {
          "internalType": "bool",
          "name": "",
          "type": "bool"
        }
      ],
      "stateMutability": "view",
      "type": "function"
    },
    {
      "inputs": [],
      "name": "proxiableUUID",
      "outputs": [
        {
          "internalType": "bytes32",
          "name": "",
          "type": "bytes32"
        }
      ],
      "stateMutability": "view",
      "type": "function"
    },
    {
      "inputs": [
        {
          "internalType": "bytes32",
          "name": "role",
          "type": "bytes32"
        },
        {
          "internalType": "address",
          "name": "account",
          "type": "address"
        }
      ],
      "name": "renounceRole",
      "outputs": [],
      "stateMutability": "nonpayable",
      "type": "function"
    },
    {
      "inputs": [
        {
          "internalType": "bytes32",
          "name": "role",
          "type": "bytes32"
        },
        {
          "internalType": "address",
          "name": "account",
          "type": "address"
        }
      ],
      "name": "revokeRole",
      "outputs": [],
      "stateMutability": "nonpayable",
      "type": "function"
    },
    {
      "inputs": [
        {
          "internalType": "address[]",
          "name": "addrs",
          "type": "address[]"
        },
        {
          "internalType": "uint256[]",
          "name": "percentages",
          "type": "uint256[]"
        }
      ],
      "name": "setCommissionPercentages",
      "outputs": [],
      "stateMutability": "nonpayable",
      "type": "function"
    },
    {
      "inputs": [
        {
          "internalType": "bytes4",
          "name": "interfaceId",
          "type": "bytes4"
        }
      ],
      "name": "supportsInterface",
      "outputs": [
        {
          "internalType": "bool",
          "name": "",
          "type": "bool"
        }
      ],
      "stateMutability": "view",
      "type": "function"
    },
    {
      "inputs": [],
      "name": "symbol",
      "outputs": [
        {
          "internalType": "string",
          "name": "",
          "type": "string"
        }
      ],
      "stateMutability": "view",
      "type": "function"
    },
    {
      "inputs": [
        {
          "internalType": "bool",
          "name": "enable",
          "type": "bool"
        }
      ],
      "name": "toggleCommission",
      "outputs": [],
      "stateMutability": "nonpayable",
      "type": "function"
    },
    {
      "inputs": [],
      "name": "totalSupply",
      "outputs": [
        {
          "internalType": "uint256",
          "name": "",
          "type": "uint256"
        }
      ],
      "stateMutability": "view",
      "type": "function"
    },
    {
      "inputs": [
        {
          "internalType": "address",
          "name": "to",
          "type": "address"
        },
        {
          "internalType": "uint256",
          "name": "amount",
          "type": "uint256"
        }
      ],
      "name": "transfer",
      "outputs": [
        {
          "internalType": "bool",
          "name": "",
          "type": "bool"
        }
      ],
      "stateMutability": "nonpayable",
      "type": "function"
    },
    {
      "inputs": [
        {
          "internalType": "address",
          "name": "from",
          "type": "address"
        },
        {
          "internalType": "address",
          "name": "to",
          "type": "address"
        },
        {
          "internalType": "uint256",
          "name": "amount",
          "type": "uint256"
        }
      ],
      "name": "transferFrom",
      "outputs": [
        {
          "internalType": "bool",
          "name": "",
          "type": "bool"
        }
      ],
      "stateMutability": "nonpayable",
      "type": "function"
    },
    {
      "inputs": [],
      "name": "unpause",
      "outputs": [],
      "stateMutability": "nonpayable",
      "type": "function"
    },
    {
      "inputs": [
        {
          "internalType": "address",
          "name": "newImplementation",
          "type": "address"
        }
      ],
      "name": "upgradeTo",
      "outputs": [],
      "stateMutability": "nonpayable",
      "type": "function"
    },
    {
      "inputs": [
        {
          "internalType": "address",
          "name": "newImplementation",
          "type": "address"
        },
        {
          "internalType": "bytes",
          "name": "data",
          "type": "bytes"
        }
      ],
      "name": "upgradeToAndCall",
      "outputs": [],
      "stateMutability": "payable",
      "type": "function"
    }
  ],
  "bytecode": "0x60a06040523073ffffffffffffffffffffffffffffffffffffffff1660809073ffffffffffffffffffffffffffffffffffffffff168152503480156200004457600080fd5b5060016101c360006101000a81548160ff021916908315150217905550620000716200007760201b60201c565b62000221565b600060019054906101000a900460ff1615620000ca576040517f08c379a0000000000000000000000000000000000000000000000000000000008152600401620000c190620001c4565b60405180910390fd5b60ff801660008054906101000a900460ff1660ff16146200013b5760ff6000806101000a81548160ff021916908360ff1602179055507f7f26b83ff96e1f2b6a682f133852f6798a09c465da95921460cefb384740249860ff60405162000132919062000204565b60405180910390a15b565b600082825260208201905092915050565b7f496e697469616c697a61626c653a20636f6e747261637420697320696e69746960008201527f616c697a696e6700000000000000000000000000000000000000000000000000602082015250565b6000620001ac6027836200013d565b9150620001b9826200014e565b604082019050919050565b60006020820190508181036000830152620001df816200019d565b9050919050565b600060ff82169050919050565b620001fe81620001e6565b82525050565b60006020820190506200021b6000830184620001f3565b92915050565b6080516155b1620002596000396000818161105f015281816110ed0152818161131e015281816113ac015261145c01526155b16000f3fe6080604052600436106102305760003560e01c806352d1902d1161012e5780639dc29fac116100ab578063d547741f1161006f578063d547741f14610852578063dd62ed3e1461087b578063e63ab1e9146108b8578063f500aa0a146108e3578063f72c0d8b1461092057610230565b80639dc29fac14610759578063a217fddf14610782578063a457c2d7146107ad578063a9059cbb146107ea578063d53913931461082757610230565b806379cc6790116100f257806379cc6790146106885780638456cb59146106b157806391d14854146106c857806395d89b41146107055780639b6982751461073057610230565b806352d1902d1461058f57806356df006b146105ba5780635c975abb146105f757806360621e8a1461062257806370a082311461064b57610230565b8063313ce567116101bc578063395093511161018057806339509351146104cd5780633f4ba83a1461050a57806340c10f191461052157806342966c681461054a5780634f1ef2861461057357610230565b8063313ce567146103fc578063342d18671461042757806336568abe146104505780633659cfe6146104795780633730837c146104a257610230565b80632220112d116102035780632220112d1461030557806323b872dd1461032e578063248a9ca31461036b578063282c51f3146103a85780632f2ff15d146103d357610230565b806301ffc9a71461023557806306fdde0314610272578063095ea7b31461029d57806318160ddd146102da575b600080fd5b34801561024157600080fd5b5061025c600480360381019061025791906134f3565b61094b565b604051610269919061353b565b60405180910390f35b34801561027e57600080fd5b506102876109c5565b60405161029491906135e6565b60405180910390f35b3480156102a957600080fd5b506102c460048036038101906102bf919061369c565b610a57565b6040516102d1919061353b565b60405180910390f35b3480156102e657600080fd5b506102ef610a7a565b6040516102fc91906136eb565b60405180910390f35b34801561031157600080fd5b5061032c60048036038101906103279190613911565b610a84565b005b34801561033a57600080fd5b5061035560048036038101906103509190613989565b610d9e565b604051610362919061353b565b60405180910390f35b34801561037757600080fd5b50610392600480360381019061038d9190613a12565b610f37565b60405161039f9190613a4e565b60405180910390f35b3480156103b457600080fd5b506103bd610f58565b6040516103ca9190613a4e565b60405180910390f35b3480156103df57600080fd5b506103fa60048036038101906103f59190613a69565b610f7c565b005b34801561040857600080fd5b50610411610f9d565b60405161041e9190613ac5565b60405180910390f35b34801561043357600080fd5b5061044e60048036038101906104499190613b0c565b610fa6565b005b34801561045c57600080fd5b5061047760048036038101906104729190613a69565b610fda565b005b34801561048557600080fd5b506104a0600480360381019061049b9190613b39565b61105d565b005b3480156104ae57600080fd5b506104b76111e5565b6040516104c491906136eb565b60405180910390f35b3480156104d957600080fd5b506104f460048036038101906104ef919061369c565b6111ec565b604051610501919061353b565b60405180910390f35b34801561051657600080fd5b5061051f611223565b005b34801561052d57600080fd5b506105486004803603810190610543919061369c565b611258565b005b34801561055657600080fd5b50610571600480360381019061056c9190613b66565b611308565b005b61058d60048036038101906105889190613c48565b61131c565b005b34801561059b57600080fd5b506105a4611458565b6040516105b19190613a4e565b60405180910390f35b3480156105c657600080fd5b506105e160048036038101906105dc9190613b66565b611511565b6040516105ee9190613cb3565b60405180910390f35b34801561060357600080fd5b5061060c611551565b604051610619919061353b565b60405180910390f35b34801561062e57600080fd5b5061064960048036038101906106449190613d6f565b611568565b005b34801561065757600080fd5b50610672600480360381019061066d9190613b39565b611698565b60405161067f91906136eb565b60405180910390f35b34801561069457600080fd5b506106af60048036038101906106aa919061369c565b6116e1565b005b3480156106bd57600080fd5b506106c6611701565b005b3480156106d457600080fd5b506106ef60048036038101906106ea9190613a69565b61173e565b6040516106fc919061353b565b60405180910390f35b34801561071157600080fd5b5061071a6117aa565b60405161072791906135e6565b60405180910390f35b34801561073c57600080fd5b5061075760048036038101906107529190613dcb565b61183c565b005b34801561076557600080fd5b50610780600480360381019061077b919061369c565b611a79565b005b34801561078e57600080fd5b50610797611aba565b6040516107a49190613a4e565b60405180910390f35b3480156107b957600080fd5b506107d460048036038101906107cf919061369c565b611ac1565b6040516107e1919061353b565b60405180910390f35b3480156107f657600080fd5b50610811600480360381019061080c919061369c565b611b38565b60405161081e919061353b565b60405180910390f35b34801561083357600080fd5b5061083c611ccb565b6040516108499190613a4e565b60405180910390f35b34801561085e57600080fd5b5061087960048036038101906108749190613a69565b611cef565b005b34801561088757600080fd5b506108a2600480360381019061089d9190613e7e565b611d10565b6040516108af91906136eb565b60405180910390f35b3480156108c457600080fd5b506108cd611d97565b6040516108da9190613a4e565b60405180910390f35b3480156108ef57600080fd5b5061090a60048036038101906109059190613b39565b611dbb565b60405161091791906136eb565b60405180910390f35b34801561092c57600080fd5b50610935611e0d565b6040516109429190613a4e565b60405180910390f35b60007f7965db0b000000000000000000000000000000000000000000000000000000007bffffffffffffffffffffffffffffffffffffffffffffffffffffffff1916827bffffffffffffffffffffffffffffffffffffffffffffffffffffffff191614806109be57506109bd82611e31565b5b9050919050565b6060603680546109d490613eed565b80601f0160208091040260200160405190810160405280929190818152602001828054610a0090613eed565b8015610a4d5780601f10610a2257610100808354040283529160200191610a4d565b820191906000526020600020905b815481529060010190602001808311610a3057829003601f168201915b5050505050905090565b600080610a62611e9b565b9050610a6f818585611ea3565b600191505092915050565b6000603554905090565b6000801b610a918161206c565b610a99612080565b8151835114610add576040517f08c379a0000000000000000000000000000000000000000000000000000000008152600401610ad490613f6a565b60405180910390fd5b60036101c4805490508451610af29190613fb9565b1115610b33576040517f08c379a0000000000000000000000000000000000000000000000000000000008152600401610b2a9061405f565b60405180910390fd5b6000805b8351811015610b7557838181518110610b5357610b5261407f565b5b602002602001015182610b669190613fb9565b91508080600101915050610b37565b506064811115610bba576040517f08c379a0000000000000000000000000000000000000000000000000000000008152600401610bb190614120565b60405180910390fd5b60005b8451811015610d97576000858281518110610bdb57610bda61407f565b5b602002602001015190506000858381518110610bfa57610bf961407f565b5b602002602001015190506064811115610c48576040517f08c379a0000000000000000000000000000000000000000000000000000000008152600401610c3f9061418c565b60405180910390fd5b60006101c760008473ffffffffffffffffffffffffffffffffffffffff1673ffffffffffffffffffffffffffffffffffffffff1681526020019081526020016000205403610cf5576101c4829080600181540180825580915050600190039060005260206000200160009091909190916101000a81548173ffffffffffffffffffffffffffffffffffffffff021916908373ffffffffffffffffffffffffffffffffffffffff1602179055505b806101c760008473ffffffffffffffffffffffffffffffffffffffff1673ffffffffffffffffffffffffffffffffffffffff168152602001908152602001600020819055508173ffffffffffffffffffffffffffffffffffffffff167f87342df63874e81545b667a9f796b2b67e7e4430236e63aaf0e3f6bb137bc76f82604051610d8091906136eb565b60405180910390a250508080600101915050610bbd565b5050505050565b6000610da8612080565b610db38433846120ca565b600073ffffffffffffffffffffffffffffffffffffffff168473ffffffffffffffffffffffffffffffffffffffff1603610e22576040517f08c379a0000000000000000000000000000000000000000000000000000000008152600401610e19906141f8565b60405180910390fd5b60006101c360009054906101000a900460ff1615610f155760005b6101c480549050811015610f135760006101c48281548110610e6257610e6161407f565b5b9060005260206000200160009054906101000a900473ffffffffffffffffffffffffffffffffffffffff169050600060646101c760008473ffffffffffffffffffffffffffffffffffffffff1673ffffffffffffffffffffffffffffffffffffffff1681526020019081526020016000205487610edf9190614218565b610ee99190614289565b90508084610ef79190613fb9565b9350610f04888383612156565b50508080600101915050610e3d565b505b610f2b85858386610f2691906142ba565b612156565b60019150509392505050565b600061012d6000838152602001908152602001600020600101549050919050565b7f3c11d16cbaffd01df69ce1c404f6340ee057498f5f00246190ea54220576a84881565b610f8582610f37565b610f8e8161206c565b610f9883836123cf565b505050565b60006012905090565b6000801b610fb38161206c565b610fbb612080565b816101c360006101000a81548160ff0219169083151502179055505050565b610fe2611e9b565b73ffffffffffffffffffffffffffffffffffffffff168173ffffffffffffffffffffffffffffffffffffffff161461104f576040517f08c379a000000000000000000000000000000000000000000000000000000000815260040161104690614360565b60405180910390fd5b61105982826124b1565b5050565b7f000000000000000000000000000000000000000000000000000000000000000073ffffffffffffffffffffffffffffffffffffffff163073ffffffffffffffffffffffffffffffffffffffff16036110eb576040517f08c379a00000000000000000000000000000000000000000000000000000000081526004016110e2906143f2565b60405180910390fd5b7f000000000000000000000000000000000000000000000000000000000000000073ffffffffffffffffffffffffffffffffffffffff1661112a612594565b73ffffffffffffffffffffffffffffffffffffffff1614611180576040517f08c379a000000000000000000000000000000000000000000000000000000000815260040161117790614484565b60405180910390fd5b611189816125eb565b6111e281600067ffffffffffffffff8111156111a8576111a761370b565b5b6040519080825280601f01601f1916602001820160405280156111da5781602001600182028036833780820191505090505b506000612619565b50565b6101c55481565b6000806111f7611e9b565b90506112188185856112098589611d10565b6112139190613fb9565b611ea3565b600191505092915050565b7f65d7a28e3265b37a6474929f336521b332c1681b933f6cb9f3376673440d862a61124d8161206c565b611255612787565b50565b7f9f2df0fed2c77648de5860a4cc508cd0818c85b8b8a1ab4ceeef8d981c8956a66112828161206c565b61128a612080565b6101c660009054906101000a900460ff16156112f9576101c554826112ad610a7a565b6112b79190613fb9565b11156112f8576040517f08c379a00000000000000000000000000000000000000000000000000000000081526004016112ef906144f0565b60405180910390fd5b5b61130383836127ea565b505050565b611319611313611e9b565b82612941565b50565b7f000000000000000000000000000000000000000000000000000000000000000073ffffffffffffffffffffffffffffffffffffffff163073ffffffffffffffffffffffffffffffffffffffff16036113aa576040517f08c379a00000000000000000000000000000000000000000000000000000000081526004016113a1906143f2565b60405180910390fd5b7f000000000000000000000000000000000000000000000000000000000000000073ffffffffffffffffffffffffffffffffffffffff166113e9612594565b73ffffffffffffffffffffffffffffffffffffffff161461143f576040517f08c379a000000000000000000000000000000000000000000000000000000000815260040161143690614484565b60405180910390fd5b611448826125eb565b61145482826001612619565b5050565b60007f000000000000000000000000000000000000000000000000000000000000000073ffffffffffffffffffffffffffffffffffffffff163073ffffffffffffffffffffffffffffffffffffffff16146114e8576040517f08c379a00000000000000000000000000000000000000000000000000000000081526004016114df90614582565b60405180910390fd5b7f360894a13ba1a3210667c828492db98dca3e2076cc3735a920a3ca505d382bbc60001b905090565b6101c4818154811061152257600080fd5b906000526020600020016000915054906101000a900473ffffffffffffffffffffffffffffffffffffffff1681565b6000609760009054906101000a900460ff16905090565b6000801b6115758161206c565b61157d612080565b60008260405160200161159091906145de565b6040516020818303038152906040528051906020012090507f3c11d16cbaffd01df69ce1c404f6340ee057498f5f00246190ea54220576a8488114806115f557507f65d7a28e3265b37a6474929f336521b332c1681b933f6cb9f3376673440d862a81145b8061161f57507f9f2df0fed2c77648de5860a4cc508cd0818c85b8b8a1ab4ceeef8d981c8956a681145b8061164957507f189ab7a9244df0848122154315af71fe140f3db0fe014031783b0946b8c9d2e381145b611688576040517f08c379a000000000000000000000000000000000000000000000000000000000815260040161167f90614641565b60405180910390fd5b61169281856123cf565b50505050565b6000603360008373ffffffffffffffffffffffffffffffffffffffff1673ffffffffffffffffffffffffffffffffffffffff168152602001908152602001600020549050919050565b6116f3826116ed611e9b565b836120ca565b6116fd8282612941565b5050565b7f65d7a28e3265b37a6474929f336521b332c1681b933f6cb9f3376673440d862a61172b8161206c565b611733612080565b61173b612b10565b50565b600061012d600084815260200190815260200160002060000160008373ffffffffffffffffffffffffffffffffffffffff1673ffffffffffffffffffffffffffffffffffffffff16815260200190815260200160002060009054906101000a900460ff16905092915050565b6060603780546117b990613eed565b80601f01602080910402602001604051908101604052809291908181526020018280546117e590613eed565b80156118325780601f1061180757610100808354040283529160200191611832565b820191906000526020600020905b81548152906001019060200180831161181557829003601f168201915b5050505050905090565b60008060019054906101000a900460ff1615905080801561186d5750600160008054906101000a900460ff1660ff16105b8061189a575061187c30612b73565b1580156118995750600160008054906101000a900460ff1660ff16145b5b6118d9576040517f08c379a00000000000000000000000000000000000000000000000000000000081526004016118d0906146d3565b60405180910390fd5b60016000806101000a81548160ff021916908360ff1602179055508015611916576001600060016101000a81548160ff0219169083151502179055505b836101c581905550826101c660006101000a81548160ff0219169083151502179055506119438686612b96565b61194b612bf3565b611953612c44565b61195b612c9d565b611963612cee565b6119706000801b836123cf565b61199a7f65d7a28e3265b37a6474929f336521b332c1681b933f6cb9f3376673440d862a836123cf565b6119c47f9f2df0fed2c77648de5860a4cc508cd0818c85b8b8a1ab4ceeef8d981c8956a6836123cf565b6119ee7f189ab7a9244df0848122154315af71fe140f3db0fe014031783b0946b8c9d2e3836123cf565b611a187f3c11d16cbaffd01df69ce1c404f6340ee057498f5f00246190ea54220576a848836123cf565b8015611a715760008060016101000a81548160ff0219169083151502179055507f7f26b83ff96e1f2b6a682f133852f6798a09c465da95921460cefb38474024986001604051611a689190614738565b60405180910390a15b505050505050565b7f3c11d16cbaffd01df69ce1c404f6340ee057498f5f00246190ea54220576a848611aa38161206c565b611aab612080565b611ab58383612941565b505050565b6000801b81565b600080611acc611e9b565b90506000611ada8286611d10565b905083811015611b1f576040517f08c379a0000000000000000000000000000000000000000000000000000000008152600401611b16906147c5565b60405180910390fd5b611b2c8286868403611ea3565b60019250505092915050565b6000611b42612080565b6000339050600073ffffffffffffffffffffffffffffffffffffffff168173ffffffffffffffffffffffffffffffffffffffff1603611bb6576040517f08c379a0000000000000000000000000000000000000000000000000000000008152600401611bad906141f8565b60405180910390fd5b60006101c360009054906101000a900460ff1615611ca95760005b6101c480549050811015611ca75760006101c48281548110611bf657611bf561407f565b5b9060005260206000200160009054906101000a900473ffffffffffffffffffffffffffffffffffffffff169050600060646101c760008473ffffffffffffffffffffffffffffffffffffffff1673ffffffffffffffffffffffffffffffffffffffff1681526020019081526020016000205488611c739190614218565b611c7d9190614289565b90508084611c8b9190613fb9565b9350611c98858383612156565b50508080600101915050611bd1565b505b611cbf82868387611cba91906142ba565b612156565b60019250505092915050565b7f9f2df0fed2c77648de5860a4cc508cd0818c85b8b8a1ab4ceeef8d981c8956a681565b611cf882610f37565b611d018161206c565b611d0b83836124b1565b505050565b6000603460008473ffffffffffffffffffffffffffffffffffffffff1673ffffffffffffffffffffffffffffffffffffffff16815260200190815260200160002060008373ffffffffffffffffffffffffffffffffffffffff1673ffffffffffffffffffffffffffffffffffffffff16815260200190815260200160002054905092915050565b7f65d7a28e3265b37a6474929f336521b332c1681b933f6cb9f3376673440d862a81565b6000611dc5612080565b6101c760008373ffffffffffffffffffffffffffffffffffffffff1673ffffffffffffffffffffffffffffffffffffffff168152602001908152602001600020549050919050565b7f189ab7a9244df0848122154315af71fe140f3db0fe014031783b0946b8c9d2e381565b60007f01ffc9a7000000000000000000000000000000000000000000000000000000007bffffffffffffffffffffffffffffffffffffffffffffffffffffffff1916827bffffffffffffffffffffffffffffffffffffffffffffffffffffffff1916149050919050565b600033905090565b600073ffffffffffffffffffffffffffffffffffffffff168373ffffffffffffffffffffffffffffffffffffffff1603611f12576040517f08c379a0000000000000000000000000000000000000000000000000000000008152600401611f0990614857565b60405180910390fd5b600073ffffffffffffffffffffffffffffffffffffffff168273ffffffffffffffffffffffffffffffffffffffff1603611f81576040517f08c379a0000000000000000000000000000000000000000000000000000000008152600401611f78906148e9565b60405180910390fd5b80603460008573ffffffffffffffffffffffffffffffffffffffff1673ffffffffffffffffffffffffffffffffffffffff16815260200190815260200160002060008473ffffffffffffffffffffffffffffffffffffffff1673ffffffffffffffffffffffffffffffffffffffff168152602001908152602001600020819055508173ffffffffffffffffffffffffffffffffffffffff168373ffffffffffffffffffffffffffffffffffffffff167f8c5be1e5ebec7d5bd14f71427d1e84f3dd0314c0f7b2291e5b200ac8c7c3b9258360405161205f91906136eb565b60405180910390a3505050565b61207d81612078611e9b565b612d3f565b50565b612088611551565b156120c8576040517f08c379a00000000000000000000000000000000000000000000000000000000081526004016120bf90614955565b60405180910390fd5b565b60006120d68484611d10565b90507fffffffffffffffffffffffffffffffffffffffffffffffffffffffffffffffff81146121505781811015612142576040517f08c379a0000000000000000000000000000000000000000000000000000000008152600401612139906149c1565b60405180910390fd5b61214f8484848403611ea3565b5b50505050565b600073ffffffffffffffffffffffffffffffffffffffff168373ffffffffffffffffffffffffffffffffffffffff16036121c5576040517f08c379a00000000000000000000000000000000000000000000000000000000081526004016121bc90614a53565b60405180910390fd5b600073ffffffffffffffffffffffffffffffffffffffff168273ffffffffffffffffffffffffffffffffffffffff1603612234576040517f08c379a000000000000000000000000000000000000000000000000000000000815260040161222b90614ae5565b60405180910390fd5b61223f838383612dc4565b6000603360008573ffffffffffffffffffffffffffffffffffffffff1673ffffffffffffffffffffffffffffffffffffffff168152602001908152602001600020549050818110156122c6576040517f08c379a00000000000000000000000000000000000000000000000000000000081526004016122bd90614b77565b60405180910390fd5b818103603360008673ffffffffffffffffffffffffffffffffffffffff1673ffffffffffffffffffffffffffffffffffffffff1681526020019081526020016000208190555081603360008573ffffffffffffffffffffffffffffffffffffffff1673ffffffffffffffffffffffffffffffffffffffff168152602001908152602001600020600082825401925050819055508273ffffffffffffffffffffffffffffffffffffffff168473ffffffffffffffffffffffffffffffffffffffff167fddf252ad1be2c89b69c2b068fc378daa952ba7f163c4a11628f55a4df523b3ef846040516123b691906136eb565b60405180910390a36123c9848484612dd4565b50505050565b6123d9828261173e565b6124ad57600161012d600084815260200190815260200160002060000160008373ffffffffffffffffffffffffffffffffffffffff1673ffffffffffffffffffffffffffffffffffffffff16815260200190815260200160002060006101000a81548160ff021916908315150217905550612452611e9b565b73ffffffffffffffffffffffffffffffffffffffff168173ffffffffffffffffffffffffffffffffffffffff16837f2f8788117e7eff1d82e926ec794901d17c78024a50270940304540a733656f0d60405160405180910390a45b5050565b6124bb828261173e565b1561259057600061012d600084815260200190815260200160002060000160008373ffffffffffffffffffffffffffffffffffffffff1673ffffffffffffffffffffffffffffffffffffffff16815260200190815260200160002060006101000a81548160ff021916908315150217905550612535611e9b565b73ffffffffffffffffffffffffffffffffffffffff168173ffffffffffffffffffffffffffffffffffffffff16837ff6391f5c32d9c69d2a47ea670b442974b53935d1edc7fd64eb21e047a839171b60405160405180910390a45b5050565b60006125c27f360894a13ba1a3210667c828492db98dca3e2076cc3735a920a3ca505d382bbc60001b612dd9565b60000160009054906101000a900473ffffffffffffffffffffffffffffffffffffffff16905090565b7f189ab7a9244df0848122154315af71fe140f3db0fe014031783b0946b8c9d2e36126158161206c565b5050565b6126457f4910fdfa16fed3260ed0e7147f7cc6da11a60208b5b9406d12a635614ffd914360001b612de3565b60000160009054906101000a900460ff16156126695761266483612ded565b612782565b8273ffffffffffffffffffffffffffffffffffffffff166352d1902d6040518163ffffffff1660e01b8152600401602060405180830381865afa9250505080156126d157506040513d601f19601f820116820180604052508101906126ce9190614bac565b60015b612710576040517f08c379a000000000000000000000000000000000000000000000000000000000815260040161270790614c4b565b60405180910390fd5b7f360894a13ba1a3210667c828492db98dca3e2076cc3735a920a3ca505d382bbc60001b8114612775576040517f08c379a000000000000000000000000000000000000000000000000000000000815260040161276c90614cdd565b60405180910390fd5b50612781838383612ea6565b5b505050565b61278f612ed2565b6000609760006101000a81548160ff0219169083151502179055507f5db9ee0a495bf2e6ff9c91a7834c1ba4fdd244a5e8aa4e537bd38aeae4b073aa6127d3611e9b565b6040516127e09190613cb3565b60405180910390a1565b600073ffffffffffffffffffffffffffffffffffffffff168273ffffffffffffffffffffffffffffffffffffffff1603612859576040517f08c379a000000000000000000000000000000000000000000000000000000000815260040161285090614d49565b60405180910390fd5b61286560008383612dc4565b80603560008282546128779190613fb9565b9250508190555080603360008473ffffffffffffffffffffffffffffffffffffffff1673ffffffffffffffffffffffffffffffffffffffff168152602001908152602001600020600082825401925050819055508173ffffffffffffffffffffffffffffffffffffffff16600073ffffffffffffffffffffffffffffffffffffffff167fddf252ad1be2c89b69c2b068fc378daa952ba7f163c4a11628f55a4df523b3ef8360405161292991906136eb565b60405180910390a361293d60008383612dd4565b5050565b600073ffffffffffffffffffffffffffffffffffffffff168273ffffffffffffffffffffffffffffffffffffffff16036129b0576040517f08c379a00000000000000000000000000000000000000000000000000000000081526004016129a790614ddb565b60405180910390fd5b6129bc82600083612dc4565b6000603360008473ffffffffffffffffffffffffffffffffffffffff1673ffffffffffffffffffffffffffffffffffffffff16815260200190815260200160002054905081811015612a43576040517f08c379a0000000000000000000000000000000000000000000000000000000008152600401612a3a90614e6d565b60405180910390fd5b818103603360008573ffffffffffffffffffffffffffffffffffffffff1673ffffffffffffffffffffffffffffffffffffffff1681526020019081526020016000208190555081603560008282540392505081905550600073ffffffffffffffffffffffffffffffffffffffff168373ffffffffffffffffffffffffffffffffffffffff167fddf252ad1be2c89b69c2b068fc378daa952ba7f163c4a11628f55a4df523b3ef84604051612af791906136eb565b60405180910390a3612b0b83600084612dd4565b505050565b612b18612080565b6001609760006101000a81548160ff0219169083151502179055507f62e78cea01bee320cd4e420270b5ea74000d11b0c9f74754ebdbfc544b05a258612b5c611e9b565b604051612b699190613cb3565b60405180910390a1565b6000808273ffffffffffffffffffffffffffffffffffffffff163b119050919050565b600060019054906101000a900460ff16612be5576040517f08c379a0000000000000000000000000000000000000000000000000000000008152600401612bdc90614eff565b60405180910390fd5b612bef8282612f1b565b5050565b600060019054906101000a900460ff16612c42576040517f08c379a0000000000000000000000000000000000000000000000000000000008152600401612c3990614eff565b60405180910390fd5b565b600060019054906101000a900460ff16612c93576040517f08c379a0000000000000000000000000000000000000000000000000000000008152600401612c8a90614eff565b60405180910390fd5b612c9b612f8e565b565b600060019054906101000a900460ff16612cec576040517f08c379a0000000000000000000000000000000000000000000000000000000008152600401612ce390614eff565b60405180910390fd5b565b600060019054906101000a900460ff16612d3d576040517f08c379a0000000000000000000000000000000000000000000000000000000008152600401612d3490614eff565b60405180910390fd5b565b612d49828261173e565b612dc057612d5681612ffa565b612d648360001c6020613027565b604051602001612d75929190614fb7565b6040516020818303038152906040526040517f08c379a0000000000000000000000000000000000000000000000000000000008152600401612db791906135e6565b60405180910390fd5b5050565b612dcf838383613263565b505050565b505050565b6000819050919050565b6000819050919050565b612df681612b73565b612e35576040517f08c379a0000000000000000000000000000000000000000000000000000000008152600401612e2c90615063565b60405180910390fd5b80612e627f360894a13ba1a3210667c828492db98dca3e2076cc3735a920a3ca505d382bbc60001b612dd9565b60000160006101000a81548173ffffffffffffffffffffffffffffffffffffffff021916908373ffffffffffffffffffffffffffffffffffffffff16021790555050565b612eaf836132bb565b600082511180612ebc5750805b15612ecd57612ecb838361330a565b505b505050565b612eda611551565b612f19576040517f08c379a0000000000000000000000000000000000000000000000000000000008152600401612f10906150cf565b60405180910390fd5b565b600060019054906101000a900460ff16612f6a576040517f08c379a0000000000000000000000000000000000000000000000000000000008152600401612f6190614eff565b60405180910390fd5b8160369081612f799190615291565b508060379081612f899190615291565b505050565b600060019054906101000a900460ff16612fdd576040517f08c379a0000000000000000000000000000000000000000000000000000000008152600401612fd490614eff565b60405180910390fd5b6000609760006101000a81548160ff021916908315150217905550565b60606130208273ffffffffffffffffffffffffffffffffffffffff16601460ff16613027565b9050919050565b60606000600283600261303a9190614218565b6130449190613fb9565b67ffffffffffffffff81111561305d5761305c61370b565b5b6040519080825280601f01601f19166020018201604052801561308f5781602001600182028036833780820191505090505b5090507f3000000000000000000000000000000000000000000000000000000000000000816000815181106130c7576130c661407f565b5b60200101907effffffffffffffffffffffffffffffffffffffffffffffffffffffffffffff1916908160001a9053507f78000000000000000000000000000000000000000000000000000000000000008160018151811061312b5761312a61407f565b5b60200101907effffffffffffffffffffffffffffffffffffffffffffffffffffffffffffff1916908160001a9053506000600184600261316b9190614218565b6131759190613fb9565b90505b6001811115613215577f3031323334353637383961626364656600000000000000000000000000000000600f8616601081106131b7576131b661407f565b5b1a60f81b8282815181106131ce576131cd61407f565b5b60200101907effffffffffffffffffffffffffffffffffffffffffffffffffffffffffffff1916908160001a905350600485901c94508061320e90615363565b9050613178565b5060008414613259576040517f08c379a0000000000000000000000000000000000000000000000000000000008152600401613250906153d8565b60405180910390fd5b8091505092915050565b61326e838383613337565b613276611551565b156132b6576040517f08c379a00000000000000000000000000000000000000000000000000000000081526004016132ad9061546a565b60405180910390fd5b505050565b6132c481612ded565b8073ffffffffffffffffffffffffffffffffffffffff167fbc7cd75a20ee27fd9adebab32041f755214dbc6bffa90cc0225b39da2e5c2d3b60405160405180910390a250565b606061332f83836040518060600160405280602781526020016155556027913961333c565b905092915050565b505050565b60606000808573ffffffffffffffffffffffffffffffffffffffff168560405161336691906154d1565b600060405180830381855af49150503d80600081146133a1576040519150601f19603f3d011682016040523d82523d6000602084013e6133a6565b606091505b50915091506133b7868383876133c2565b925050509392505050565b6060831561342457600083510361341c576133dc85612b73565b61341b576040517f08c379a000000000000000000000000000000000000000000000000000000000815260040161341290615534565b60405180910390fd5b5b82905061342f565b61342e8383613437565b5b949350505050565b60008251111561344a5781518083602001fd5b806040517f08c379a000000000000000000000000000000000000000000000000000000000815260040161347e91906135e6565b60405180910390fd5b6000604051905090565b600080fd5b600080fd5b60007fffffffff0000000000000000000000000000000000000000000000000000000082169050919050565b6134d08161349b565b81146134db57600080fd5b50565b6000813590506134ed816134c7565b92915050565b60006020828403121561350957613508613491565b5b6000613517848285016134de565b91505092915050565b60008115159050919050565b61353581613520565b82525050565b6000602082019050613550600083018461352c565b92915050565b600081519050919050565b600082825260208201905092915050565b60005b83811015613590578082015181840152602081019050613575565b60008484015250505050565b6000601f19601f8301169050919050565b60006135b882613556565b6135c28185613561565b93506135d2818560208601613572565b6135db8161359c565b840191505092915050565b6000602082019050818103600083015261360081846135ad565b905092915050565b600073ffffffffffffffffffffffffffffffffffffffff82169050919050565b600061363382613608565b9050919050565b61364381613628565b811461364e57600080fd5b50565b6000813590506136608161363a565b92915050565b6000819050919050565b61367981613666565b811461368457600080fd5b50565b60008135905061369681613670565b92915050565b600080604083850312156136b3576136b2613491565b5b60006136c185828601613651565b92505060206136d285828601613687565b9150509250929050565b6136e581613666565b82525050565b600060208201905061370060008301846136dc565b92915050565b600080fd5b7f4e487b7100000000000000000000000000000000000000000000000000000000600052604160045260246000fd5b6137438261359c565b810181811067ffffffffffffffff821117156137625761376161370b565b5b80604052505050565b6000613775613487565b9050613781828261373a565b919050565b600067ffffffffffffffff8211156137a1576137a061370b565b5b602082029050602081019050919050565b600080fd5b60006137ca6137c584613786565b61376b565b905080838252602082019050602084028301858111156137ed576137ec6137b2565b5b835b8181101561381657806138028882613651565b8452602084019350506020810190506137ef565b5050509392505050565b600082601f83011261383557613834613706565b5b81356138458482602086016137b7565b91505092915050565b600067ffffffffffffffff8211156138695761386861370b565b5b602082029050602081019050919050565b600061388d6138888461384e565b61376b565b905080838252602082019050602084028301858111156138b0576138af6137b2565b5b835b818110156138d957806138c58882613687565b8452602084019350506020810190506138b2565b5050509392505050565b600082601f8301126138f8576138f7613706565b5b813561390884826020860161387a565b91505092915050565b6000806040838503121561392857613927613491565b5b600083013567ffffffffffffffff81111561394657613945613496565b5b61395285828601613820565b925050602083013567ffffffffffffffff81111561397357613972613496565b5b61397f858286016138e3565b9150509250929050565b6000806000606084860312156139a2576139a1613491565b5b60006139b086828701613651565b93505060206139c186828701613651565b92505060406139d286828701613687565b9150509250925092565b6000819050919050565b6139ef816139dc565b81146139fa57600080fd5b50565b600081359050613a0c816139e6565b92915050565b600060208284031215613a2857613a27613491565b5b6000613a36848285016139fd565b91505092915050565b613a48816139dc565b82525050565b6000602082019050613a636000830184613a3f565b92915050565b60008060408385031215613a8057613a7f613491565b5b6000613a8e858286016139fd565b9250506020613a9f85828601613651565b9150509250929050565b600060ff82169050919050565b613abf81613aa9565b82525050565b6000602082019050613ada6000830184613ab6565b92915050565b613ae981613520565b8114613af457600080fd5b50565b600081359050613b0681613ae0565b92915050565b600060208284031215613b2257613b21613491565b5b6000613b3084828501613af7565b91505092915050565b600060208284031215613b4f57613b4e613491565b5b6000613b5d84828501613651565b91505092915050565b600060208284031215613b7c57613b7b613491565b5b6000613b8a84828501613687565b91505092915050565b600080fd5b600067ffffffffffffffff821115613bb357613bb261370b565b5b613bbc8261359c565b9050602081019050919050565b82818337600083830152505050565b6000613beb613be684613b98565b61376b565b905082815260208101848484011115613c0757613c06613b93565b5b613c12848285613bc9565b509392505050565b600082601f830112613c2f57613c2e613706565b5b8135613c3f848260208601613bd8565b91505092915050565b60008060408385031215613c5f57613c5e613491565b5b6000613c6d85828601613651565b925050602083013567ffffffffffffffff811115613c8e57613c8d613496565b5b613c9a85828601613c1a565b9150509250929050565b613cad81613628565b82525050565b6000602082019050613cc86000830184613ca4565b92915050565b600067ffffffffffffffff821115613ce957613ce861370b565b5b613cf28261359c565b9050602081019050919050565b6000613d12613d0d84613cce565b61376b565b905082815260208101848484011115613d2e57613d2d613b93565b5b613d39848285613bc9565b509392505050565b600082601f830112613d5657613d55613706565b5b8135613d66848260208601613cff565b91505092915050565b60008060408385031215613d8657613d85613491565b5b6000613d9485828601613651565b925050602083013567ffffffffffffffff811115613db557613db4613496565b5b613dc185828601613d41565b9150509250929050565b600080600080600060a08688031215613de757613de6613491565b5b600086013567ffffffffffffffff811115613e0557613e04613496565b5b613e1188828901613d41565b955050602086013567ffffffffffffffff811115613e3257613e31613496565b5b613e3e88828901613d41565b9450506040613e4f88828901613687565b9350506060613e6088828901613af7565b9250506080613e7188828901613651565b9150509295509295909350565b60008060408385031215613e9557613e94613491565b5b6000613ea385828601613651565b9250506020613eb485828601613651565b9150509250929050565b7f4e487b7100000000000000000000000000000000000000000000000000000000600052602260045260246000fd5b60006002820490506001821680613f0557607f821691505b602082108103613f1857613f17613ebe565b5b50919050565b7f417272617973206c656e677468206d69736d6174636800000000000000000000600082015250565b6000613f54601683613561565b9150613f5f82613f1e565b602082019050919050565b60006020820190508181036000830152613f8381613f47565b9050919050565b7f4e487b7100000000000000000000000000000000000000000000000000000000600052601160045260246000fd5b6000613fc482613666565b9150613fcf83613666565b9250828201905080821115613fe757613fe6613f8a565b5b92915050565b7f45786365656473206d6178696d756d206e756d626572206f6620636f6d6d697360008201527f73696f6e20616464726573736573000000000000000000000000000000000000602082015250565b6000614049602e83613561565b915061405482613fed565b604082019050919050565b600060208201905081810360008301526140788161403c565b9050919050565b7f4e487b7100000000000000000000000000000000000000000000000000000000600052603260045260246000fd5b7f546f74616c20636f6d6d697373696f6e2070657263656e74616765732065786360008201527f6565642031303025000000000000000000000000000000000000000000000000602082015250565b600061410a602883613561565b9150614115826140ae565b604082019050919050565b60006020820190508181036000830152614139816140fd565b9050919050565b7f50657263656e74616765206d757374206265203c3d2031303000000000000000600082015250565b6000614176601983613561565b915061418182614140565b602082019050919050565b600060208201905081810360008301526141a581614169565b9050919050565b7f5472616e736665722066726f6d20302061646472657373000000000000000000600082015250565b60006141e2601783613561565b91506141ed826141ac565b602082019050919050565b60006020820190508181036000830152614211816141d5565b9050919050565b600061422382613666565b915061422e83613666565b925082820261423c81613666565b9150828204841483151761425357614252613f8a565b5b5092915050565b7f4e487b7100000000000000000000000000000000000000000000000000000000600052601260045260246000fd5b600061429482613666565b915061429f83613666565b9250826142af576142ae61425a565b5b828204905092915050565b60006142c582613666565b91506142d083613666565b92508282039050818111156142e8576142e7613f8a565b5b92915050565b7f416363657373436f6e74726f6c3a2063616e206f6e6c792072656e6f756e636560008201527f20726f6c657320666f722073656c660000000000000000000000000000000000602082015250565b600061434a602f83613561565b9150614355826142ee565b604082019050919050565b600060208201905081810360008301526143798161433d565b9050919050565b7f46756e6374696f6e206d7573742062652063616c6c6564207468726f7567682060008201527f64656c656761746563616c6c0000000000000000000000000000000000000000602082015250565b60006143dc602c83613561565b91506143e782614380565b604082019050919050565b6000602082019050818103600083015261440b816143cf565b9050919050565b7f46756e6374696f6e206d7573742062652063616c6c6564207468726f7567682060008201527f6163746976652070726f78790000000000000000000000000000000000000000602082015250565b600061446e602c83613561565b915061447982614412565b604082019050919050565b6000602082019050818103600083015261449d81614461565b9050919050565b7f45786365656473206d6178696d756d20746f74616c20737570706c7900000000600082015250565b60006144da601c83613561565b91506144e5826144a4565b602082019050919050565b60006020820190508181036000830152614509816144cd565b9050919050565b7f555550535570677261646561626c653a206d757374206e6f742062652063616c60008201527f6c6564207468726f7567682064656c656761746563616c6c0000000000000000602082015250565b600061456c603883613561565b915061457782614510565b604082019050919050565b6000602082019050818103600083015261459b8161455f565b9050919050565b600081905092915050565b60006145b882613556565b6145c281856145a2565b93506145d2818560208601613572565b80840191505092915050565b60006145ea82846145ad565b915081905092915050565b7f496e76616c696420726f6c650000000000000000000000000000000000000000600082015250565b600061462b600c83613561565b9150614636826145f5565b602082019050919050565b6000602082019050818103600083015261465a8161461e565b9050919050565b7f496e697469616c697a61626c653a20636f6e747261637420697320616c72656160008201527f647920696e697469616c697a6564000000000000000000000000000000000000602082015250565b60006146bd602e83613561565b91506146c882614661565b604082019050919050565b600060208201905081810360008301526146ec816146b0565b9050919050565b6000819050919050565b6000819050919050565b600061472261471d614718846146f3565b6146fd565b613aa9565b9050919050565b61473281614707565b82525050565b600060208201905061474d6000830184614729565b92915050565b7f45524332303a2064656372656173656420616c6c6f77616e63652062656c6f7760008201527f207a65726f000000000000000000000000000000000000000000000000000000602082015250565b60006147af602583613561565b91506147ba82614753565b604082019050919050565b600060208201905081810360008301526147de816147a2565b9050919050565b7f45524332303a20617070726f76652066726f6d20746865207a65726f2061646460008201527f7265737300000000000000000000000000000000000000000000000000000000602082015250565b6000614841602483613561565b915061484c826147e5565b604082019050919050565b6000602082019050818103600083015261487081614834565b9050919050565b7f45524332303a20617070726f766520746f20746865207a65726f20616464726560008201527f7373000000000000000000000000000000000000000000000000000000000000602082015250565b60006148d3602283613561565b91506148de82614877565b604082019050919050565b60006020820190508181036000830152614902816148c6565b9050919050565b7f5061757361626c653a2070617573656400000000000000000000000000000000600082015250565b600061493f601083613561565b915061494a82614909565b602082019050919050565b6000602082019050818103600083015261496e81614932565b9050919050565b7f45524332303a20696e73756666696369656e7420616c6c6f77616e6365000000600082015250565b60006149ab601d83613561565b91506149b682614975565b602082019050919050565b600060208201905081810360008301526149da8161499e565b9050919050565b7f45524332303a207472616e736665722066726f6d20746865207a65726f20616460008201527f6472657373000000000000000000000000000000000000000000000000000000602082015250565b6000614a3d602583613561565b9150614a48826149e1565b604082019050919050565b60006020820190508181036000830152614a6c81614a30565b9050919050565b7f45524332303a207472616e7366657220746f20746865207a65726f206164647260008201527f6573730000000000000000000000000000000000000000000000000000000000602082015250565b6000614acf602383613561565b9150614ada82614a73565b604082019050919050565b60006020820190508181036000830152614afe81614ac2565b9050919050565b7f45524332303a207472616e7366657220616d6f756e742065786365656473206260008201527f616c616e63650000000000000000000000000000000000000000000000000000602082015250565b6000614b61602683613561565b9150614b6c82614b05565b604082019050919050565b60006020820190508181036000830152614b9081614b54565b9050919050565b600081519050614ba6816139e6565b92915050565b600060208284031215614bc257614bc1613491565b5b6000614bd084828501614b97565b91505092915050565b7f45524331393637557067726164653a206e657720696d706c656d656e7461746960008201527f6f6e206973206e6f742055555053000000000000000000000000000000000000602082015250565b6000614c35602e83613561565b9150614c4082614bd9565b604082019050919050565b60006020820190508181036000830152614c6481614c28565b9050919050565b7f45524331393637557067726164653a20756e737570706f727465642070726f7860008201527f6961626c65555549440000000000000000000000000000000000000000000000602082015250565b6000614cc7602983613561565b9150614cd282614c6b565b604082019050919050565b60006020820190508181036000830152614cf681614cba565b9050919050565b7f45524332303a206d696e7420746f20746865207a65726f206164647265737300600082015250565b6000614d33601f83613561565b9150614d3e82614cfd565b602082019050919050565b60006020820190508181036000830152614d6281614d26565b9050919050565b7f45524332303a206275726e2066726f6d20746865207a65726f2061646472657360008201527f7300000000000000000000000000000000000000000000000000000000000000602082015250565b6000614dc5602183613561565b9150614dd082614d69565b604082019050919050565b60006020820190508181036000830152614df481614db8565b9050919050565b7f45524332303a206275726e20616d6f756e7420657863656564732062616c616e60008201527f6365000000000000000000000000000000000000000000000000000000000000602082015250565b6000614e57602283613561565b9150614e6282614dfb565b604082019050919050565b60006020820190508181036000830152614e8681614e4a565b9050919050565b7f496e697469616c697a61626c653a20636f6e7472616374206973206e6f74206960008201527f6e697469616c697a696e67000000000000000000000000000000000000000000602082015250565b6000614ee9602b83613561565b9150614ef482614e8d565b604082019050919050565b60006020820190508181036000830152614f1881614edc565b9050919050565b7f416363657373436f6e74726f6c3a206163636f756e7420000000000000000000600082015250565b6000614f556017836145a2565b9150614f6082614f1f565b601782019050919050565b7f206973206d697373696e6720726f6c6520000000000000000000000000000000600082015250565b6000614fa16011836145a2565b9150614fac82614f6b565b601182019050919050565b6000614fc282614f48565b9150614fce82856145ad565b9150614fd982614f94565b9150614fe582846145ad565b91508190509392505050565b7f455243313936373a206e657720696d706c656d656e746174696f6e206973206e60008201527f6f74206120636f6e747261637400000000000000000000000000000000000000602082015250565b600061504d602d83613561565b915061505882614ff1565b604082019050919050565b6000602082019050818103600083015261507c81615040565b9050919050565b7f5061757361626c653a206e6f7420706175736564000000000000000000000000600082015250565b60006150b9601483613561565b91506150c482615083565b602082019050919050565b600060208201905081810360008301526150e8816150ac565b9050919050565b60008190508160005260206000209050919050565b60006020601f8301049050919050565b600082821b905092915050565b6000600883026151517fffffffffffffffffffffffffffffffffffffffffffffffffffffffffffffffff82615114565b61515b8683615114565b95508019841693508086168417925050509392505050565b600061518e61518961518484613666565b6146fd565b613666565b9050919050565b6000819050919050565b6151a883615173565b6151bc6151b482615195565b848454615121565b825550505050565b600090565b6151d16151c4565b6151dc81848461519f565b505050565b5b81811015615200576151f56000826151c9565b6001810190506151e2565b5050565b601f82111561524557615216816150ef565b61521f84615104565b8101602085101561522e578190505b61524261523a85615104565b8301826151e1565b50505b505050565b600082821c905092915050565b60006152686000198460080261524a565b1980831691505092915050565b60006152818383615257565b9150826002028217905092915050565b61529a82613556565b67ffffffffffffffff8111156152b3576152b261370b565b5b6152bd8254613eed565b6152c8828285615204565b600060209050601f8311600181146152fb57600084156152e9578287015190505b6152f38582615275565b86555061535b565b601f198416615309866150ef565b60005b828110156153315784890151825560018201915060208501945060208101905061530c565b8683101561534e578489015161534a601f891682615257565b8355505b6001600288020188555050505b505050505050565b600061536e82613666565b91506000820361538157615380613f8a565b5b600182039050919050565b7f537472696e67733a20686578206c656e67746820696e73756666696369656e74600082015250565b60006153c2602083613561565b91506153cd8261538c565b602082019050919050565b600060208201905081810360008301526153f1816153b5565b9050919050565b7f45524332305061757361626c653a20746f6b656e207472616e7366657220776860008201527f696c652070617573656400000000000000000000000000000000000000000000602082015250565b6000615454602a83613561565b915061545f826153f8565b604082019050919050565b6000602082019050818103600083015261548381615447565b9050919050565b600081519050919050565b600081905092915050565b60006154ab8261548a565b6154b58185615495565b93506154c5818560208601613572565b80840191505092915050565b60006154dd82846154a0565b915081905092915050565b7f416464726573733a2063616c6c20746f206e6f6e2d636f6e7472616374000000600082015250565b600061551e601d83613561565b9150615529826154e8565b602082019050919050565b6000602082019050818103600083015261554d81615511565b905091905056fe416464726573733a206c6f772d6c6576656c2064656c65676174652063616c6c206661696c6564a2646970667358221220de30a518de02202fed7e0f364374be5ede95916223e979e9a6cfb39b5342c76064736f6c63430008180033",
  "linkReferences": {},
  "deployedLinkReferences": {}
}