{
  "_format": "hh-sol-artifact-1",
  "contractName": "ImpressoVotableAC",
  "sourceName": "contracts/ImpressoVotableAC.sol",
  "abi": [
    {
      "anonymous": false,
      "inputs": [
        {
          "indexed": false,
          "internalType": "address",
          "name": "previousAdmin",
          "type": "address"
        },
        {
          "indexed": false,
          "internalType": "address",
          "name": "newAdmin",
          "type": "address"
        }
      ],
      "name": "AdminChanged",
      "type": "event"
    },
    {
      "anonymous": false,
      "inputs": [
        {
          "indexed": true,
          "internalType": "address",
          "name": "owner",
          "type": "address"
        },
        {
          "indexed": true,
          "internalType": "address",
          "name": "spender",
          "type": "address"
        },
        {
          "indexed": false,
          "internalType": "uint256",
          "name": "value",
          "type": "uint256"
        }
      ],
      "name": "Approval",
      "type": "event"
    },
    {
      "anonymous": false,
      "inputs": [
        {
          "indexed": true,
          "internalType": "address",
          "name": "beacon",
          "type": "address"
        }
      ],
      "name": "BeaconUpgraded",
      "type": "event"
    },
    {
      "anonymous": false,
      "inputs": [
        {
          "indexed": true,
          "internalType": "address",
          "name": "commissioner",
          "type": "address"
        },
        {
          "indexed": false,
          "internalType": "uint256",
          "name": "newPercentage",
          "type": "uint256"
        }
      ],
      "name": "CommissionUpdated",
      "type": "event"
    },
    {
      "anonymous": false,
      "inputs": [
        {
          "indexed": false,
          "internalType": "uint8",
          "name": "version",
          "type": "uint8"
        }
      ],
      "name": "Initialized",
      "type": "event"
    },
    {
      "anonymous": false,
      "inputs": [
        {
          "indexed": false,
          "internalType": "address",
          "name": "account",
          "type": "address"
        }
      ],
      "name": "Paused",
      "type": "event"
    },
    {
      "anonymous": false,
      "inputs": [
        {
          "indexed": true,
          "internalType": "bytes32",
          "name": "role",
          "type": "bytes32"
        },
        {
          "indexed": true,
          "internalType": "bytes32",
          "name": "previousAdminRole",
          "type": "bytes32"
        },
        {
          "indexed": true,
          "internalType": "bytes32",
          "name": "newAdminRole",
          "type": "bytes32"
        }
      ],
      "name": "RoleAdminChanged",
      "type": "event"
    },
    {
      "anonymous": false,
      "inputs": [
        {
          "indexed": true,
          "internalType": "bytes32",
          "name": "role",
          "type": "bytes32"
        },
        {
          "indexed": true,
          "internalType": "address",
          "name": "account",
          "type": "address"
        },
        {
          "indexed": true,
          "internalType": "address",
          "name": "sender",
          "type": "address"
        }
      ],
      "name": "RoleGranted",
      "type": "event"
    },
    {
      "anonymous": false,
      "inputs": [
        {
          "indexed": true,
          "internalType": "bytes32",
          "name": "role",
          "type": "bytes32"
        },
        {
          "indexed": true,
          "internalType": "address",
          "name": "account",
          "type": "address"
        },
        {
          "indexed": true,
          "internalType": "address",
          "name": "sender",
          "type": "address"
        }
      ],
      "name": "RoleRevoked",
      "type": "event"
    },
    {
      "anonymous": false,
      "inputs": [
        {
          "indexed": true,
          "internalType": "address",
          "name": "from",
          "type": "address"
        },
        {
          "indexed": true,
          "internalType": "address",
          "name": "to",
          "type": "address"
        },
        {
          "indexed": false,
          "internalType": "uint256",
          "name": "value",
          "type": "uint256"
        }
      ],
      "name": "Transfer",
      "type": "event"
    },
    {
      "anonymous": false,
      "inputs": [
        {
          "indexed": false,
          "internalType": "address",
          "name": "account",
          "type": "address"
        }
      ],
      "name": "Unpaused",
      "type": "event"
    },
    {
      "anonymous": false,
      "inputs": [
        {
          "indexed": true,
          "internalType": "address",
          "name": "implementation",
          "type": "address"
        }
      ],
      "name": "Upgraded",
      "type": "event"
    },
    {
      "anonymous": false,
      "inputs": [
        {
          "indexed": false,
          "internalType": "string",
          "name": "title",
          "type": "string"
        },
        {
          "indexed": false,
          "internalType": "address",
          "name": "voterAddress",
          "type": "address"
        }
      ],
      "name": "Vote",
      "type": "event"
    },
    {
      "anonymous": false,
      "inputs": [
        {
          "indexed": false,
          "internalType": "string",
          "name": "title",
          "type": "string"
        }
      ],
      "name": "VotingEnded",
      "type": "event"
    },
    {
      "anonymous": false,
      "inputs": [
        {
          "indexed": false,
          "internalType": "string",
          "name": "title",
          "type": "string"
        },
        {
          "indexed": false,
          "internalType": "uint256",
          "name": "votesNeeded",
          "type": "uint256"
        }
      ],
      "name": "VotingStarted",
      "type": "event"
    },
    {
      "inputs": [],
      "name": "BURNER_ROLE",
      "outputs": [
        {
          "internalType": "bytes32",
          "name": "",
          "type": "bytes32"
        }
      ],
      "stateMutability": "view",
      "type": "function"
    },
    {
      "inputs": [],
      "name": "DEFAULT_ADMIN_ROLE",
      "outputs": [
        {
          "internalType": "bytes32",
          "name": "",
          "type": "bytes32"
        }
      ],
      "stateMutability": "view",
      "type": "function"
    },
    {
      "inputs": [],
      "name": "MINTER_ROLE",
      "outputs": [
        {
          "internalType": "bytes32",
          "name": "",
          "type": "bytes32"
        }
      ],
      "stateMutability": "view",
      "type": "function"
    },
    {
      "inputs": [],
      "name": "PAUSER_ROLE",
      "outputs": [
        {
          "internalType": "bytes32",
          "name": "",
          "type": "bytes32"
        }
      ],
      "stateMutability": "view",
      "type": "function"
    },
    {
      "inputs": [],
      "name": "UPGRADER_ROLE",
      "outputs": [
        {
          "internalType": "bytes32",
          "name": "",
          "type": "bytes32"
        }
      ],
      "stateMutability": "view",
      "type": "function"
    },
    {
      "inputs": [
        {
          "internalType": "uint256",
          "name": "",
          "type": "uint256"
        }
      ],
      "name": "_commissionAddresses",
      "outputs": [
        {
          "internalType": "address",
          "name": "",
          "type": "address"
        }
      ],
      "stateMutability": "view",
      "type": "function"
    },
    {
      "inputs": [],
      "name": "_maxTotalSupply",
      "outputs": [
        {
          "internalType": "uint256",
          "name": "",
          "type": "uint256"
        }
      ],
      "stateMutability": "view",
      "type": "function"
    },
    {
      "inputs": [
        {
          "internalType": "address",
          "name": "owner",
          "type": "address"
        },
        {
          "internalType": "address",
          "name": "spender",
          "type": "address"
        }
      ],
      "name": "allowance",
      "outputs": [
        {
          "internalType": "uint256",
          "name": "",
          "type": "uint256"
        }
      ],
      "stateMutability": "view",
      "type": "function"
    },
    {
      "inputs": [
        {
          "internalType": "address",
          "name": "spender",
          "type": "address"
        },
        {
          "internalType": "uint256",
          "name": "amount",
          "type": "uint256"
        }
      ],
      "name": "approve",
      "outputs": [
        {
          "internalType": "bool",
          "name": "",
          "type": "bool"
        }
      ],
      "stateMutability": "nonpayable",
      "type": "function"
    },
    {
      "inputs": [
        {
          "internalType": "address",
          "name": "account",
          "type": "address"
        }
      ],
      "name": "balanceOf",
      "outputs": [
        {
          "internalType": "uint256",
          "name": "",
          "type": "uint256"
        }
      ],
      "stateMutability": "view",
      "type": "function"
    },
    {
      "inputs": [
        {
          "internalType": "address",
          "name": "voter",
          "type": "address"
        }
      ],
      "name": "blacklistVoter",
      "outputs": [],
      "stateMutability": "nonpayable",
      "type": "function"
    },
    {
      "inputs": [
        {
          "internalType": "uint256",
          "name": "amount",
          "type": "uint256"
        }
      ],
      "name": "burn",
      "outputs": [],
      "stateMutability": "nonpayable",
      "type": "function"
    },
    {
      "inputs": [
        {
          "internalType": "address",
          "name": "account",
          "type": "address"
        },
        {
          "internalType": "uint256",
          "name": "amount",
          "type": "uint256"
        }
      ],
      "name": "burn",
      "outputs": [],
      "stateMutability": "nonpayable",
      "type": "function"
    },
    {
      "inputs": [
        {
          "internalType": "address",
          "name": "account",
          "type": "address"
        },
        {
          "internalType": "uint256",
          "name": "amount",
          "type": "uint256"
        }
      ],
      "name": "burnFrom",
      "outputs": [],
      "stateMutability": "nonpayable",
      "type": "function"
    },
    {
      "inputs": [
        {
          "internalType": "string",
          "name": "title",
          "type": "string"
        },
        {
          "internalType": "uint256",
          "name": "votesNeeded",
          "type": "uint256"
        }
      ],
      "name": "createVoting",
      "outputs": [],
      "stateMutability": "nonpayable",
      "type": "function"
    },
    {
      "inputs": [],
      "name": "decimals",
      "outputs": [
        {
          "internalType": "uint8",
          "name": "",
          "type": "uint8"
        }
      ],
      "stateMutability": "view",
      "type": "function"
    },
    {
      "inputs": [
        {
          "internalType": "address",
          "name": "spender",
          "type": "address"
        },
        {
          "internalType": "uint256",
          "name": "subtractedValue",
          "type": "uint256"
        }
      ],
      "name": "decreaseAllowance",
      "outputs": [
        {
          "internalType": "bool",
          "name": "",
          "type": "bool"
        }
      ],
      "stateMutability": "nonpayable",
      "type": "function"
    },
    {
      "inputs": [
        {
          "internalType": "address",
          "name": "addr",
          "type": "address"
        }
      ],
      "name": "getCommissionPercentage",
      "outputs": [
        {
          "internalType": "uint256",
          "name": "",
          "type": "uint256"
        }
      ],
      "stateMutability": "view",
      "type": "function"
    },
    {
      "inputs": [
        {
          "internalType": "bytes32",
          "name": "role",
          "type": "bytes32"
        }
      ],
      "name": "getRoleAdmin",
      "outputs": [
        {
          "internalType": "bytes32",
          "name": "",
          "type": "bytes32"
        }
      ],
      "stateMutability": "view",
      "type": "function"
    },
    {
      "inputs": [
        {
          "internalType": "bytes32",
          "name": "role",
          "type": "bytes32"
        },
        {
          "internalType": "address",
          "name": "account",
          "type": "address"
        }
      ],
      "name": "grantRole",
      "outputs": [],
      "stateMutability": "nonpayable",
      "type": "function"
    },
    {
      "inputs": [
        {
          "internalType": "address",
          "name": "user",
          "type": "address"
        },
        {
          "internalType": "string",
          "name": "role",
          "type": "string"
        }
      ],
      "name": "grantRoleForAddress",
      "outputs": [],
      "stateMutability": "nonpayable",
      "type": "function"
    },
    {
      "inputs": [
        {
          "internalType": "bytes32",
          "name": "role",
          "type": "bytes32"
        },
        {
          "internalType": "address",
          "name": "account",
          "type": "address"
        }
      ],
      "name": "hasRole",
      "outputs": [
        {
          "internalType": "bool",
          "name": "",
          "type": "bool"
        }
      ],
      "stateMutability": "view",
      "type": "function"
    },
    {
      "inputs": [
        {
          "internalType": "address",
          "name": "spender",
          "type": "address"
        },
        {
          "internalType": "uint256",
          "name": "addedValue",
          "type": "uint256"
        }
      ],
      "name": "increaseAllowance",
      "outputs": [
        {
          "internalType": "bool",
          "name": "",
          "type": "bool"
        }
      ],
      "stateMutability": "nonpayable",
      "type": "function"
    },
    {
      "inputs": [
        {
          "internalType": "string",
          "name": "name",
          "type": "string"
        },
        {
          "internalType": "string",
          "name": "symbol",
          "type": "string"
        },
        {
          "internalType": "uint256",
          "name": "maxTotalSupply",
          "type": "uint256"
        },
        {
          "internalType": "bool",
          "name": "useMaxTotalSupply",
          "type": "bool"
        },
        {
          "internalType": "address",
          "name": "owner",
          "type": "address"
        }
      ],
      "name": "initialize",
      "outputs": [],
      "stateMutability": "nonpayable",
      "type": "function"
    },
    {
      "inputs": [
        {
          "internalType": "string",
          "name": "",
          "type": "string"
        }
      ],
      "name": "isVotingActive",
      "outputs": [
        {
          "internalType": "bool",
          "name": "",
          "type": "bool"
        }
      ],
      "stateMutability": "view",
      "type": "function"
    },
    {
      "inputs": [
        {
          "internalType": "address",
          "name": "to",
          "type": "address"
        },
        {
          "internalType": "uint256",
          "name": "amount",
          "type": "uint256"
        }
      ],
      "name": "mint",
      "outputs": [],
      "stateMutability": "nonpayable",
      "type": "function"
    },
    {
      "inputs": [],
      "name": "name",
      "outputs": [
        {
          "internalType": "string",
          "name": "",
          "type": "string"
        }
      ],
      "stateMutability": "view",
      "type": "function"
    },
    {
      "inputs": [],
      "name": "pause",
      "outputs": [],
      "stateMutability": "nonpayable",
      "type": "function"
    },
    {
      "inputs": [],
      "name": "paused",
      "outputs": [
        {
          "internalType": "bool",
          "name": "",
          "type": "bool"
        }
      ],
      "stateMutability": "view",
      "type": "function"
    },
    {
      "inputs": [],
      "name": "proxiableUUID",
      "outputs": [
        {
          "internalType": "bytes32",
          "name": "",
          "type": "bytes32"
        }
      ],
      "stateMutability": "view",
      "type": "function"
    },
    {
      "inputs": [
        {
          "internalType": "bytes32",
          "name": "role",
          "type": "bytes32"
        },
        {
          "internalType": "address",
          "name": "account",
          "type": "address"
        }
      ],
      "name": "renounceRole",
      "outputs": [],
      "stateMutability": "nonpayable",
      "type": "function"
    },
    {
      "inputs": [
        {
          "internalType": "bytes32",
          "name": "role",
          "type": "bytes32"
        },
        {
          "internalType": "address",
          "name": "account",
          "type": "address"
        }
      ],
      "name": "revokeRole",
      "outputs": [],
      "stateMutability": "nonpayable",
      "type": "function"
    },
    {
      "inputs": [
        {
          "internalType": "address[]",
          "name": "addrs",
          "type": "address[]"
        },
        {
          "internalType": "uint256[]",
          "name": "percentages",
          "type": "uint256[]"
        }
      ],
      "name": "setCommissionPercentages",
      "outputs": [],
      "stateMutability": "nonpayable",
      "type": "function"
    },
    {
      "inputs": [
        {
          "internalType": "bytes4",
          "name": "interfaceId",
          "type": "bytes4"
        }
      ],
      "name": "supportsInterface",
      "outputs": [
        {
          "internalType": "bool",
          "name": "",
          "type": "bool"
        }
      ],
      "stateMutability": "view",
      "type": "function"
    },
    {
      "inputs": [],
      "name": "symbol",
      "outputs": [
        {
          "internalType": "string",
          "name": "",
          "type": "string"
        }
      ],
      "stateMutability": "view",
      "type": "function"
    },
    {
      "inputs": [
        {
          "internalType": "bool",
          "name": "enable",
          "type": "bool"
        }
      ],
      "name": "toggleCommission",
      "outputs": [],
      "stateMutability": "nonpayable",
      "type": "function"
    },
    {
      "inputs": [],
      "name": "totalSupply",
      "outputs": [
        {
          "internalType": "uint256",
          "name": "",
          "type": "uint256"
        }
      ],
      "stateMutability": "view",
      "type": "function"
    },
    {
      "inputs": [
        {
          "internalType": "string",
          "name": "",
          "type": "string"
        }
      ],
      "name": "totalVotes",
      "outputs": [
        {
          "internalType": "uint256",
          "name": "",
          "type": "uint256"
        }
      ],
      "stateMutability": "view",
      "type": "function"
    },
    {
      "inputs": [
        {
          "internalType": "address",
          "name": "to",
          "type": "address"
        },
        {
          "internalType": "uint256",
          "name": "amount",
          "type": "uint256"
        }
      ],
      "name": "transfer",
      "outputs": [
        {
          "internalType": "bool",
          "name": "",
          "type": "bool"
        }
      ],
      "stateMutability": "nonpayable",
      "type": "function"
    },
    {
      "inputs": [
        {
          "internalType": "address",
          "name": "from",
          "type": "address"
        },
        {
          "internalType": "address",
          "name": "to",
          "type": "address"
        },
        {
          "internalType": "uint256",
          "name": "amount",
          "type": "uint256"
        }
      ],
      "name": "transferFrom",
      "outputs": [
        {
          "internalType": "bool",
          "name": "",
          "type": "bool"
        }
      ],
      "stateMutability": "nonpayable",
      "type": "function"
    },
    {
      "inputs": [],
      "name": "unpause",
      "outputs": [],
      "stateMutability": "nonpayable",
      "type": "function"
    },
    {
      "inputs": [
        {
          "internalType": "address",
          "name": "newImplementation",
          "type": "address"
        }
      ],
      "name": "upgradeTo",
      "outputs": [],
      "stateMutability": "nonpayable",
      "type": "function"
    },
    {
      "inputs": [
        {
          "internalType": "address",
          "name": "newImplementation",
          "type": "address"
        },
        {
          "internalType": "bytes",
          "name": "data",
          "type": "bytes"
        }
      ],
      "name": "upgradeToAndCall",
      "outputs": [],
      "stateMutability": "payable",
      "type": "function"
    },
    {
      "inputs": [
        {
          "internalType": "string",
          "name": "votingTitle",
          "type": "string"
        }
      ],
      "name": "vote",
      "outputs": [],
      "stateMutability": "nonpayable",
      "type": "function"
    },
    {
      "inputs": [
        {
          "internalType": "string",
          "name": "",
          "type": "string"
        }
      ],
      "name": "votesCountNeeded",
      "outputs": [
        {
          "internalType": "uint256",
          "name": "",
          "type": "uint256"
        }
      ],
      "stateMutability": "view",
      "type": "function"
    },
    {
      "inputs": [
        {
          "internalType": "string",
          "name": "",
          "type": "string"
        },
        {
          "internalType": "address",
          "name": "",
          "type": "address"
        }
      ],
      "name": "votings",
      "outputs": [
        {
          "internalType": "bool",
          "name": "",
          "type": "bool"
        }
      ],
      "stateMutability": "view",
      "type": "function"
    }
  ],
  "bytecode": "0x60a06040523073ffffffffffffffffffffffffffffffffffffffff1660809073ffffffffffffffffffffffffffffffffffffffff168152503480156200004457600080fd5b5060016101c360006101000a81548160ff021916908315150217905550620000716200007760201b60201c565b62000221565b600060019054906101000a900460ff1615620000ca576040517f08c379a0000000000000000000000000000000000000000000000000000000008152600401620000c190620001c4565b60405180910390fd5b60ff801660008054906101000a900460ff1660ff16146200013b5760ff6000806101000a81548160ff021916908360ff1602179055507f7f26b83ff96e1f2b6a682f133852f6798a09c465da95921460cefb384740249860ff60405162000132919062000204565b60405180910390a15b565b600082825260208201905092915050565b7f496e697469616c697a61626c653a20636f6e747261637420697320696e69746960008201527f616c697a696e6700000000000000000000000000000000000000000000000000602082015250565b6000620001ac6027836200013d565b9150620001b9826200014e565b604082019050919050565b60006020820190508181036000830152620001df816200019d565b9050919050565b600060ff82169050919050565b620001fe81620001e6565b82525050565b60006020820190506200021b6000830184620001f3565b92915050565b60805161617c620002596000396000818161141a015281816114a8015281816116d9015281816117670152611817015261617c6000f3fe60806040526004361061027d5760003560e01c806352d1902d1161014f5780639b698275116100c1578063d547741f1161007a578063d547741f146109e5578063dd62ed3e14610a0e578063e63ab1e914610a4b578063f500aa0a14610a76578063f72c0d8b14610ab3578063fc36e15b14610ade5761027d565b80639b698275146108c35780639dc29fac146108ec578063a217fddf14610915578063a457c2d714610940578063a9059cbb1461097d578063d5391393146109ba5761027d565b806370a082311161011357806370a08231146107b557806375dee998146107f257806379cc67901461081b5780638456cb591461084457806391d148541461085b57806395d89b41146108985761027d565b806352d1902d146106bc57806356df006b146106e75780635900f8f8146107245780635c975abb1461076157806360621e8a1461078c5761027d565b8063282c51f3116101f35780633730837c116101ac5780633730837c146105cf57806339509351146105fa5780633f4ba83a1461063757806340c10f191461064e57806342966c68146106775780634f1ef286146106a05761027d565b8063282c51f3146104d55780632f2ff15d14610500578063313ce56714610529578063342d18671461055457806336568abe1461057d5780633659cfe6146105a65761027d565b806318160ddd1161024557806318160ddd146103a15780631a1625a5146103cc5780631df1a88a146103f55780632220112d1461043257806323b872dd1461045b578063248a9ca3146104985761027d565b806301ffc9a71461028257806304574fe8146102bf57806306fdde03146102fc578063095ea7b3146103275780631635f9cf14610364575b600080fd5b34801561028e57600080fd5b506102a960048036038101906102a49190613cd3565b610b07565b6040516102b69190613d1b565b60405180910390f35b3480156102cb57600080fd5b506102e660048036038101906102e19190613e7c565b610b81565b6040516102f39190613d1b565b60405180910390f35b34801561030857600080fd5b50610311610bb8565b60405161031e9190613f44565b60405180910390f35b34801561033357600080fd5b5061034e60048036038101906103499190613ffa565b610c4a565b60405161035b9190613d1b565b60405180910390f35b34801561037057600080fd5b5061038b6004803603810190610386919061403a565b610c6d565b6040516103989190613d1b565b60405180910390f35b3480156103ad57600080fd5b506103b6610cb3565b6040516103c391906140a5565b60405180910390f35b3480156103d857600080fd5b506103f360048036038101906103ee91906140c0565b610cbd565b005b34801561040157600080fd5b5061041c60048036038101906104179190613e7c565b610e10565b60405161042991906140a5565b60405180910390f35b34801561043e57600080fd5b50610459600480360381019061045491906142a7565b610e3f565b005b34801561046757600080fd5b50610482600480360381019061047d919061431f565b611159565b60405161048f9190613d1b565b60405180910390f35b3480156104a457600080fd5b506104bf60048036038101906104ba91906143a8565b6112f2565b6040516104cc91906143e4565b60405180910390f35b3480156104e157600080fd5b506104ea611313565b6040516104f791906143e4565b60405180910390f35b34801561050c57600080fd5b50610527600480360381019061052291906143ff565b611337565b005b34801561053557600080fd5b5061053e611358565b60405161054b919061445b565b60405180910390f35b34801561056057600080fd5b5061057b600480360381019061057691906144a2565b611361565b005b34801561058957600080fd5b506105a4600480360381019061059f91906143ff565b611395565b005b3480156105b257600080fd5b506105cd60048036038101906105c891906144cf565b611418565b005b3480156105db57600080fd5b506105e46115a0565b6040516105f191906140a5565b60405180910390f35b34801561060657600080fd5b50610621600480360381019061061c9190613ffa565b6115a7565b60405161062e9190613d1b565b60405180910390f35b34801561064357600080fd5b5061064c6115de565b005b34801561065a57600080fd5b5061067560048036038101906106709190613ffa565b611613565b005b34801561068357600080fd5b5061069e600480360381019061069991906144fc565b6116c3565b005b6106ba60048036038101906106b591906145ca565b6116d7565b005b3480156106c857600080fd5b506106d1611813565b6040516106de91906143e4565b60405180910390f35b3480156106f357600080fd5b5061070e600480360381019061070991906144fc565b6118cc565b60405161071b9190614635565b60405180910390f35b34801561073057600080fd5b5061074b60048036038101906107469190613e7c565b61190c565b60405161075891906140a5565b60405180910390f35b34801561076d57600080fd5b5061077661193b565b6040516107839190613d1b565b60405180910390f35b34801561079857600080fd5b506107b360048036038101906107ae9190614650565b611952565b005b3480156107c157600080fd5b506107dc60048036038101906107d791906144cf565b611a82565b6040516107e991906140a5565b60405180910390f35b3480156107fe57600080fd5b50610819600480360381019061081491906144cf565b611acb565b005b34801561082757600080fd5b50610842600480360381019061083d9190613ffa565b611b3d565b005b34801561085057600080fd5b50610859611b5d565b005b34801561086757600080fd5b50610882600480360381019061087d91906143ff565b611b9a565b60405161088f9190613d1b565b60405180910390f35b3480156108a457600080fd5b506108ad611c06565b6040516108ba9190613f44565b60405180910390f35b3480156108cf57600080fd5b506108ea60048036038101906108e591906146ac565b611c98565b005b3480156108f857600080fd5b50610913600480360381019061090e9190613ffa565b611ed5565b005b34801561092157600080fd5b5061092a611f16565b60405161093791906143e4565b60405180910390f35b34801561094c57600080fd5b5061096760048036038101906109629190613ffa565b611f1d565b6040516109749190613d1b565b60405180910390f35b34801561098957600080fd5b506109a4600480360381019061099f9190613ffa565b611f94565b6040516109b19190613d1b565b60405180910390f35b3480156109c657600080fd5b506109cf612127565b6040516109dc91906143e4565b60405180910390f35b3480156109f157600080fd5b50610a0c6004803603810190610a0791906143ff565b61214b565b005b348015610a1a57600080fd5b50610a356004803603810190610a30919061475f565b61216c565b604051610a4291906140a5565b60405180910390f35b348015610a5757600080fd5b50610a606121f3565b604051610a6d91906143e4565b60405180910390f35b348015610a8257600080fd5b50610a9d6004803603810190610a9891906144cf565b612217565b604051610aaa91906140a5565b60405180910390f35b348015610abf57600080fd5b50610ac8612269565b604051610ad591906143e4565b60405180910390f35b348015610aea57600080fd5b50610b056004803603810190610b009190613e7c565b61228d565b005b60007f7965db0b000000000000000000000000000000000000000000000000000000007bffffffffffffffffffffffffffffffffffffffffffffffffffffffff1916827bffffffffffffffffffffffffffffffffffffffffffffffffffffffff19161480610b7a5750610b798261256e565b5b9050919050565b6101cd818051602081018201805184825260208301602085012081835280955050505050506000915054906101000a900460ff1681565b606060368054610bc7906147ce565b80601f0160208091040260200160405190810160405280929190818152602001828054610bf3906147ce565b8015610c405780601f10610c1557610100808354040283529160200191610c40565b820191906000526020600020905b815481529060010190602001808311610c2357829003601f168201915b5050505050905090565b600080610c556125d8565b9050610c628185856125e0565b600191505092915050565b6101cb828051602081018201805184825260208301602085012081835280955050505050506020528060005260406000206000915091509054906101000a900460ff1681565b6000603554905090565b6000801b610cca816127a9565b610cd26127bd565b60008211610d15576040517f08c379a0000000000000000000000000000000000000000000000000000000008152600401610d0c9061484b565b60405180910390fd5b60006101ce84604051610d2891906148a7565b90815260200160405180910390205414610d77576040517f08c379a0000000000000000000000000000000000000000000000000000000008152600401610d6e90614930565b60405180910390fd5b816101ce84604051610d8991906148a7565b90815260200160405180910390208190555060016101cd84604051610dae91906148a7565b908152602001604051809103902060006101000a81548160ff0219169083151502179055507e974e7a9f2acf0f113201dd02a3c9904153c5c7f5a5b71959eb47bb505f9b8c8383604051610e03929190614950565b60405180910390a1505050565b6101ce818051602081018201805184825260208301602085012081835280955050505050506000915090505481565b6000801b610e4c816127a9565b610e546127bd565b8151835114610e98576040517f08c379a0000000000000000000000000000000000000000000000000000000008152600401610e8f906149cc565b60405180910390fd5b60036101c4805490508451610ead9190614a1b565b1115610eee576040517f08c379a0000000000000000000000000000000000000000000000000000000008152600401610ee590614ac1565b60405180910390fd5b6000805b8351811015610f3057838181518110610f0e57610f0d614ae1565b5b602002602001015182610f219190614a1b565b91508080600101915050610ef2565b506064811115610f75576040517f08c379a0000000000000000000000000000000000000000000000000000000008152600401610f6c90614b82565b60405180910390fd5b60005b8451811015611152576000858281518110610f9657610f95614ae1565b5b602002602001015190506000858381518110610fb557610fb4614ae1565b5b602002602001015190506064811115611003576040517f08c379a0000000000000000000000000000000000000000000000000000000008152600401610ffa90614bee565b60405180910390fd5b60006101c760008473ffffffffffffffffffffffffffffffffffffffff1673ffffffffffffffffffffffffffffffffffffffff16815260200190815260200160002054036110b0576101c4829080600181540180825580915050600190039060005260206000200160009091909190916101000a81548173ffffffffffffffffffffffffffffffffffffffff021916908373ffffffffffffffffffffffffffffffffffffffff1602179055505b806101c760008473ffffffffffffffffffffffffffffffffffffffff1673ffffffffffffffffffffffffffffffffffffffff168152602001908152602001600020819055508173ffffffffffffffffffffffffffffffffffffffff167f87342df63874e81545b667a9f796b2b67e7e4430236e63aaf0e3f6bb137bc76f8260405161113b91906140a5565b60405180910390a250508080600101915050610f78565b5050505050565b60006111636127bd565b61116e843384612807565b600073ffffffffffffffffffffffffffffffffffffffff168473ffffffffffffffffffffffffffffffffffffffff16036111dd576040517f08c379a00000000000000000000000000000000000000000000000000000000081526004016111d490614c5a565b60405180910390fd5b60006101c360009054906101000a900460ff16156112d05760005b6101c4805490508110156112ce5760006101c4828154811061121d5761121c614ae1565b5b9060005260206000200160009054906101000a900473ffffffffffffffffffffffffffffffffffffffff169050600060646101c760008473ffffffffffffffffffffffffffffffffffffffff1673ffffffffffffffffffffffffffffffffffffffff168152602001908152602001600020548761129a9190614c7a565b6112a49190614ceb565b905080846112b29190614a1b565b93506112bf888383612893565b505080806001019150506111f8565b505b6112e6858583866112e19190614d1c565b612893565b60019150509392505050565b600061012d6000838152602001908152602001600020600101549050919050565b7f3c11d16cbaffd01df69ce1c404f6340ee057498f5f00246190ea54220576a84881565b611340826112f2565b611349816127a9565b6113538383612b0c565b505050565b60006012905090565b6000801b61136e816127a9565b6113766127bd565b816101c360006101000a81548160ff0219169083151502179055505050565b61139d6125d8565b73ffffffffffffffffffffffffffffffffffffffff168173ffffffffffffffffffffffffffffffffffffffff161461140a576040517f08c379a000000000000000000000000000000000000000000000000000000000815260040161140190614dc2565b60405180910390fd5b6114148282612bee565b5050565b7f000000000000000000000000000000000000000000000000000000000000000073ffffffffffffffffffffffffffffffffffffffff163073ffffffffffffffffffffffffffffffffffffffff16036114a6576040517f08c379a000000000000000000000000000000000000000000000000000000000815260040161149d90614e54565b60405180910390fd5b7f000000000000000000000000000000000000000000000000000000000000000073ffffffffffffffffffffffffffffffffffffffff166114e5612cd1565b73ffffffffffffffffffffffffffffffffffffffff161461153b576040517f08c379a000000000000000000000000000000000000000000000000000000000815260040161153290614ee6565b60405180910390fd5b61154481612d28565b61159d81600067ffffffffffffffff81111561156357611562613d51565b5b6040519080825280601f01601f1916602001820160405280156115955781602001600182028036833780820191505090505b506000612d56565b50565b6101c55481565b6000806115b26125d8565b90506115d38185856115c4858961216c565b6115ce9190614a1b565b6125e0565b600191505092915050565b7f65d7a28e3265b37a6474929f336521b332c1681b933f6cb9f3376673440d862a611608816127a9565b611610612ec4565b50565b7f9f2df0fed2c77648de5860a4cc508cd0818c85b8b8a1ab4ceeef8d981c8956a661163d816127a9565b6116456127bd565b6101c660009054906101000a900460ff16156116b4576101c55482611668610cb3565b6116729190614a1b565b11156116b3576040517f08c379a00000000000000000000000000000000000000000000000000000000081526004016116aa90614f52565b60405180910390fd5b5b6116be8383612f27565b505050565b6116d46116ce6125d8565b8261307e565b50565b7f000000000000000000000000000000000000000000000000000000000000000073ffffffffffffffffffffffffffffffffffffffff163073ffffffffffffffffffffffffffffffffffffffff1603611765576040517f08c379a000000000000000000000000000000000000000000000000000000000815260040161175c90614e54565b60405180910390fd5b7f000000000000000000000000000000000000000000000000000000000000000073ffffffffffffffffffffffffffffffffffffffff166117a4612cd1565b73ffffffffffffffffffffffffffffffffffffffff16146117fa576040517f08c379a00000000000000000000000000000000000000000000000000000000081526004016117f190614ee6565b60405180910390fd5b61180382612d28565b61180f82826001612d56565b5050565b60007f000000000000000000000000000000000000000000000000000000000000000073ffffffffffffffffffffffffffffffffffffffff163073ffffffffffffffffffffffffffffffffffffffff16146118a3576040517f08c379a000000000000000000000000000000000000000000000000000000000815260040161189a90614fe4565b60405180910390fd5b7f360894a13ba1a3210667c828492db98dca3e2076cc3735a920a3ca505d382bbc60001b905090565b6101c481815481106118dd57600080fd5b906000526020600020016000915054906101000a900473ffffffffffffffffffffffffffffffffffffffff1681565b6101cc818051602081018201805184825260208301602085012081835280955050505050506000915090505481565b6000609760009054906101000a900460ff16905090565b6000801b61195f816127a9565b6119676127bd565b60008260405160200161197a91906148a7565b6040516020818303038152906040528051906020012090507f3c11d16cbaffd01df69ce1c404f6340ee057498f5f00246190ea54220576a8488114806119df57507f65d7a28e3265b37a6474929f336521b332c1681b933f6cb9f3376673440d862a81145b80611a0957507f9f2df0fed2c77648de5860a4cc508cd0818c85b8b8a1ab4ceeef8d981c8956a681145b80611a3357507f189ab7a9244df0848122154315af71fe140f3db0fe014031783b0946b8c9d2e381145b611a72576040517f08c379a0000000000000000000000000000000000000000000000000000000008152600401611a6990615050565b60405180910390fd5b611a7c8185612b0c565b50505050565b6000603360008373ffffffffffffffffffffffffffffffffffffffff1673ffffffffffffffffffffffffffffffffffffffff168152602001908152602001600020549050919050565b6000801b611ad8816127a9565b611ae06127bd565b60016101ca60008473ffffffffffffffffffffffffffffffffffffffff1673ffffffffffffffffffffffffffffffffffffffff16815260200190815260200160002060006101000a81548160ff0219169083151502179055505050565b611b4f82611b496125d8565b83612807565b611b59828261307e565b5050565b7f65d7a28e3265b37a6474929f336521b332c1681b933f6cb9f3376673440d862a611b87816127a9565b611b8f6127bd565b611b9761324d565b50565b600061012d600084815260200190815260200160002060000160008373ffffffffffffffffffffffffffffffffffffffff1673ffffffffffffffffffffffffffffffffffffffff16815260200190815260200160002060009054906101000a900460ff16905092915050565b606060378054611c15906147ce565b80601f0160208091040260200160405190810160405280929190818152602001828054611c41906147ce565b8015611c8e5780601f10611c6357610100808354040283529160200191611c8e565b820191906000526020600020905b815481529060010190602001808311611c7157829003601f168201915b5050505050905090565b60008060019054906101000a900460ff16159050808015611cc95750600160008054906101000a900460ff1660ff16105b80611cf65750611cd8306132b0565b158015611cf55750600160008054906101000a900460ff1660ff16145b5b611d35576040517f08c379a0000000000000000000000000000000000000000000000000000000008152600401611d2c906150e2565b60405180910390fd5b60016000806101000a81548160ff021916908360ff1602179055508015611d72576001600060016101000a81548160ff0219169083151502179055505b836101c581905550826101c660006101000a81548160ff021916908315150217905550611d9f86866132d3565b611da7613330565b611daf613381565b611db76133da565b611dbf61342b565b611dcc6000801b83612b0c565b611df67f65d7a28e3265b37a6474929f336521b332c1681b933f6cb9f3376673440d862a83612b0c565b611e207f9f2df0fed2c77648de5860a4cc508cd0818c85b8b8a1ab4ceeef8d981c8956a683612b0c565b611e4a7f189ab7a9244df0848122154315af71fe140f3db0fe014031783b0946b8c9d2e383612b0c565b611e747f3c11d16cbaffd01df69ce1c404f6340ee057498f5f00246190ea54220576a84883612b0c565b8015611ecd5760008060016101000a81548160ff0219169083151502179055507f7f26b83ff96e1f2b6a682f133852f6798a09c465da95921460cefb38474024986001604051611ec49190615147565b60405180910390a15b505050505050565b7f3c11d16cbaffd01df69ce1c404f6340ee057498f5f00246190ea54220576a848611eff816127a9565b611f076127bd565b611f11838361307e565b505050565b6000801b81565b600080611f286125d8565b90506000611f36828661216c565b905083811015611f7b576040517f08c379a0000000000000000000000000000000000000000000000000000000008152600401611f72906151d4565b60405180910390fd5b611f8882868684036125e0565b60019250505092915050565b6000611f9e6127bd565b6000339050600073ffffffffffffffffffffffffffffffffffffffff168173ffffffffffffffffffffffffffffffffffffffff1603612012576040517f08c379a000000000000000000000000000000000000000000000000000000000815260040161200990614c5a565b60405180910390fd5b60006101c360009054906101000a900460ff16156121055760005b6101c4805490508110156121035760006101c4828154811061205257612051614ae1565b5b9060005260206000200160009054906101000a900473ffffffffffffffffffffffffffffffffffffffff169050600060646101c760008473ffffffffffffffffffffffffffffffffffffffff1673ffffffffffffffffffffffffffffffffffffffff16815260200190815260200160002054886120cf9190614c7a565b6120d99190614ceb565b905080846120e79190614a1b565b93506120f4858383612893565b5050808060010191505061202d565b505b61211b828683876121169190614d1c565b612893565b60019250505092915050565b7f9f2df0fed2c77648de5860a4cc508cd0818c85b8b8a1ab4ceeef8d981c8956a681565b612154826112f2565b61215d816127a9565b6121678383612bee565b505050565b6000603460008473ffffffffffffffffffffffffffffffffffffffff1673ffffffffffffffffffffffffffffffffffffffff16815260200190815260200160002060008373ffffffffffffffffffffffffffffffffffffffff1673ffffffffffffffffffffffffffffffffffffffff16815260200190815260200160002054905092915050565b7f65d7a28e3265b37a6474929f336521b332c1681b933f6cb9f3376673440d862a81565b60006122216127bd565b6101c760008373ffffffffffffffffffffffffffffffffffffffff1673ffffffffffffffffffffffffffffffffffffffff168152602001908152602001600020549050919050565b7f189ab7a9244df0848122154315af71fe140f3db0fe014031783b0946b8c9d2e381565b6122956127bd565b6101cd816040516122a691906148a7565b908152602001604051809103902060009054906101000a900460ff16612301576040517f08c379a00000000000000000000000000000000000000000000000000000000081526004016122f890615240565b60405180910390fd5b6101ca60003373ffffffffffffffffffffffffffffffffffffffff1673ffffffffffffffffffffffffffffffffffffffff16815260200190815260200160002060009054906101000a900460ff161561238f576040517f08c379a0000000000000000000000000000000000000000000000000000000008152600401612386906152ac565b60405180910390fd5b6101cb816040516123a091906148a7565b908152602001604051809103902060003373ffffffffffffffffffffffffffffffffffffffff1673ffffffffffffffffffffffffffffffffffffffff16815260200190815260200160002060009054906101000a900460ff1615612439576040517f08c379a000000000000000000000000000000000000000000000000000000000815260040161243090615318565b60405180910390fd5b60016101cb8260405161244c91906148a7565b908152602001604051809103902060003373ffffffffffffffffffffffffffffffffffffffff1673ffffffffffffffffffffffffffffffffffffffff16815260200190815260200160002060006101000a81548160ff0219169083151502179055506101cc816040516124bf91906148a7565b908152602001604051809103902060008154809291906124de90615338565b91905055507f6df8a0bf3c87bd629e9f543b9d0831beeea8b80de3f478dd846541ed8d97405b8133604051612514929190615380565b60405180910390a16101ce8160405161252d91906148a7565b9081526020016040518091039020546101cc8260405161254d91906148a7565b9081526020016040518091039020541061256b5761256a8161347c565b5b50565b60007f01ffc9a7000000000000000000000000000000000000000000000000000000007bffffffffffffffffffffffffffffffffffffffffffffffffffffffff1916827bffffffffffffffffffffffffffffffffffffffffffffffffffffffff1916149050919050565b600033905090565b600073ffffffffffffffffffffffffffffffffffffffff168373ffffffffffffffffffffffffffffffffffffffff160361264f576040517f08c379a000000000000000000000000000000000000000000000000000000000815260040161264690615422565b60405180910390fd5b600073ffffffffffffffffffffffffffffffffffffffff168273ffffffffffffffffffffffffffffffffffffffff16036126be576040517f08c379a00000000000000000000000000000000000000000000000000000000081526004016126b5906154b4565b60405180910390fd5b80603460008573ffffffffffffffffffffffffffffffffffffffff1673ffffffffffffffffffffffffffffffffffffffff16815260200190815260200160002060008473ffffffffffffffffffffffffffffffffffffffff1673ffffffffffffffffffffffffffffffffffffffff168152602001908152602001600020819055508173ffffffffffffffffffffffffffffffffffffffff168373ffffffffffffffffffffffffffffffffffffffff167f8c5be1e5ebec7d5bd14f71427d1e84f3dd0314c0f7b2291e5b200ac8c7c3b9258360405161279c91906140a5565b60405180910390a3505050565b6127ba816127b56125d8565b613488565b50565b6127c561193b565b15612805576040517f08c379a00000000000000000000000000000000000000000000000000000000081526004016127fc90615520565b60405180910390fd5b565b6000612813848461216c565b90507fffffffffffffffffffffffffffffffffffffffffffffffffffffffffffffffff811461288d578181101561287f576040517f08c379a00000000000000000000000000000000000000000000000000000000081526004016128769061558c565b60405180910390fd5b61288c84848484036125e0565b5b50505050565b600073ffffffffffffffffffffffffffffffffffffffff168373ffffffffffffffffffffffffffffffffffffffff1603612902576040517f08c379a00000000000000000000000000000000000000000000000000000000081526004016128f99061561e565b60405180910390fd5b600073ffffffffffffffffffffffffffffffffffffffff168273ffffffffffffffffffffffffffffffffffffffff1603612971576040517f08c379a0000000000000000000000000000000000000000000000000000000008152600401612968906156b0565b60405180910390fd5b61297c83838361350d565b6000603360008573ffffffffffffffffffffffffffffffffffffffff1673ffffffffffffffffffffffffffffffffffffffff16815260200190815260200160002054905081811015612a03576040517f08c379a00000000000000000000000000000000000000000000000000000000081526004016129fa90615742565b60405180910390fd5b818103603360008673ffffffffffffffffffffffffffffffffffffffff1673ffffffffffffffffffffffffffffffffffffffff1681526020019081526020016000208190555081603360008573ffffffffffffffffffffffffffffffffffffffff1673ffffffffffffffffffffffffffffffffffffffff168152602001908152602001600020600082825401925050819055508273ffffffffffffffffffffffffffffffffffffffff168473ffffffffffffffffffffffffffffffffffffffff167fddf252ad1be2c89b69c2b068fc378daa952ba7f163c4a11628f55a4df523b3ef84604051612af391906140a5565b60405180910390a3612b0684848461351d565b50505050565b612b168282611b9a565b612bea57600161012d600084815260200190815260200160002060000160008373ffffffffffffffffffffffffffffffffffffffff1673ffffffffffffffffffffffffffffffffffffffff16815260200190815260200160002060006101000a81548160ff021916908315150217905550612b8f6125d8565b73ffffffffffffffffffffffffffffffffffffffff168173ffffffffffffffffffffffffffffffffffffffff16837f2f8788117e7eff1d82e926ec794901d17c78024a50270940304540a733656f0d60405160405180910390a45b5050565b612bf88282611b9a565b15612ccd57600061012d600084815260200190815260200160002060000160008373ffffffffffffffffffffffffffffffffffffffff1673ffffffffffffffffffffffffffffffffffffffff16815260200190815260200160002060006101000a81548160ff021916908315150217905550612c726125d8565b73ffffffffffffffffffffffffffffffffffffffff168173ffffffffffffffffffffffffffffffffffffffff16837ff6391f5c32d9c69d2a47ea670b442974b53935d1edc7fd64eb21e047a839171b60405160405180910390a45b5050565b6000612cff7f360894a13ba1a3210667c828492db98dca3e2076cc3735a920a3ca505d382bbc60001b613522565b60000160009054906101000a900473ffffffffffffffffffffffffffffffffffffffff16905090565b7f189ab7a9244df0848122154315af71fe140f3db0fe014031783b0946b8c9d2e3612d52816127a9565b5050565b612d827f4910fdfa16fed3260ed0e7147f7cc6da11a60208b5b9406d12a635614ffd914360001b61352c565b60000160009054906101000a900460ff1615612da657612da183613536565b612ebf565b8273ffffffffffffffffffffffffffffffffffffffff166352d1902d6040518163ffffffff1660e01b8152600401602060405180830381865afa925050508015612e0e57506040513d601f19601f82011682018060405250810190612e0b9190615777565b60015b612e4d576040517f08c379a0000000000000000000000000000000000000000000000000000000008152600401612e4490615816565b60405180910390fd5b7f360894a13ba1a3210667c828492db98dca3e2076cc3735a920a3ca505d382bbc60001b8114612eb2576040517f08c379a0000000000000000000000000000000000000000000000000000000008152600401612ea9906158a8565b60405180910390fd5b50612ebe8383836135ef565b5b505050565b612ecc61361b565b6000609760006101000a81548160ff0219169083151502179055507f5db9ee0a495bf2e6ff9c91a7834c1ba4fdd244a5e8aa4e537bd38aeae4b073aa612f106125d8565b604051612f1d9190614635565b60405180910390a1565b600073ffffffffffffffffffffffffffffffffffffffff168273ffffffffffffffffffffffffffffffffffffffff1603612f96576040517f08c379a0000000000000000000000000000000000000000000000000000000008152600401612f8d90615914565b60405180910390fd5b612fa26000838361350d565b8060356000828254612fb49190614a1b565b9250508190555080603360008473ffffffffffffffffffffffffffffffffffffffff1673ffffffffffffffffffffffffffffffffffffffff168152602001908152602001600020600082825401925050819055508173ffffffffffffffffffffffffffffffffffffffff16600073ffffffffffffffffffffffffffffffffffffffff167fddf252ad1be2c89b69c2b068fc378daa952ba7f163c4a11628f55a4df523b3ef8360405161306691906140a5565b60405180910390a361307a6000838361351d565b5050565b600073ffffffffffffffffffffffffffffffffffffffff168273ffffffffffffffffffffffffffffffffffffffff16036130ed576040517f08c379a00000000000000000000000000000000000000000000000000000000081526004016130e4906159a6565b60405180910390fd5b6130f98260008361350d565b6000603360008473ffffffffffffffffffffffffffffffffffffffff1673ffffffffffffffffffffffffffffffffffffffff16815260200190815260200160002054905081811015613180576040517f08c379a000000000000000000000000000000000000000000000000000000000815260040161317790615a38565b60405180910390fd5b818103603360008573ffffffffffffffffffffffffffffffffffffffff1673ffffffffffffffffffffffffffffffffffffffff1681526020019081526020016000208190555081603560008282540392505081905550600073ffffffffffffffffffffffffffffffffffffffff168373ffffffffffffffffffffffffffffffffffffffff167fddf252ad1be2c89b69c2b068fc378daa952ba7f163c4a11628f55a4df523b3ef8460405161323491906140a5565b60405180910390a36132488360008461351d565b505050565b6132556127bd565b6001609760006101000a81548160ff0219169083151502179055507f62e78cea01bee320cd4e420270b5ea74000d11b0c9f74754ebdbfc544b05a2586132996125d8565b6040516132a69190614635565b60405180910390a1565b6000808273ffffffffffffffffffffffffffffffffffffffff163b119050919050565b600060019054906101000a900460ff16613322576040517f08c379a000000000000000000000000000000000000000000000000000000000815260040161331990615aca565b60405180910390fd5b61332c8282613664565b5050565b600060019054906101000a900460ff1661337f576040517f08c379a000000000000000000000000000000000000000000000000000000000815260040161337690615aca565b60405180910390fd5b565b600060019054906101000a900460ff166133d0576040517f08c379a00000000000000000000000000000000000000000000000000000000081526004016133c790615aca565b60405180910390fd5b6133d86136d7565b565b600060019054906101000a900460ff16613429576040517f08c379a000000000000000000000000000000000000000000000000000000000815260040161342090615aca565b60405180910390fd5b565b600060019054906101000a900460ff1661347a576040517f08c379a000000000000000000000000000000000000000000000000000000000815260040161347190615aca565b60405180910390fd5b565b61348581613743565b50565b6134928282611b9a565b6135095761349f816137da565b6134ad8360001c6020613807565b6040516020016134be929190615b82565b6040516020818303038152906040526040517f08c379a00000000000000000000000000000000000000000000000000000000081526004016135009190613f44565b60405180910390fd5b5050565b613518838383613a43565b505050565b505050565b6000819050919050565b6000819050919050565b61353f816132b0565b61357e576040517f08c379a000000000000000000000000000000000000000000000000000000000815260040161357590615c2e565b60405180910390fd5b806135ab7f360894a13ba1a3210667c828492db98dca3e2076cc3735a920a3ca505d382bbc60001b613522565b60000160006101000a81548173ffffffffffffffffffffffffffffffffffffffff021916908373ffffffffffffffffffffffffffffffffffffffff16021790555050565b6135f883613a9b565b6000825111806136055750805b15613616576136148383613aea565b505b505050565b61362361193b565b613662576040517f08c379a000000000000000000000000000000000000000000000000000000000815260040161365990615c9a565b60405180910390fd5b565b600060019054906101000a900460ff166136b3576040517f08c379a00000000000000000000000000000000000000000000000000000000081526004016136aa90615aca565b60405180910390fd5b81603690816136c29190615e5c565b5080603790816136d29190615e5c565b505050565b600060019054906101000a900460ff16613726576040517f08c379a000000000000000000000000000000000000000000000000000000000815260040161371d90615aca565b60405180910390fd5b6000609760006101000a81548160ff021916908315150217905550565b60006101cc8260405161375691906148a7565b90815260200160405180910390208190555060006101cd8260405161377b91906148a7565b908152602001604051809103902060006101000a81548160ff0219169083151502179055507f74e0b2978c99ca20b757f0f8b458fc435f508ea64c542132a673e898b96f535d816040516137cf9190613f44565b60405180910390a150565b60606138008273ffffffffffffffffffffffffffffffffffffffff16601460ff16613807565b9050919050565b60606000600283600261381a9190614c7a565b6138249190614a1b565b67ffffffffffffffff81111561383d5761383c613d51565b5b6040519080825280601f01601f19166020018201604052801561386f5781602001600182028036833780820191505090505b5090507f3000000000000000000000000000000000000000000000000000000000000000816000815181106138a7576138a6614ae1565b5b60200101907effffffffffffffffffffffffffffffffffffffffffffffffffffffffffffff1916908160001a9053507f78000000000000000000000000000000000000000000000000000000000000008160018151811061390b5761390a614ae1565b5b60200101907effffffffffffffffffffffffffffffffffffffffffffffffffffffffffffff1916908160001a9053506000600184600261394b9190614c7a565b6139559190614a1b565b90505b60018111156139f5577f3031323334353637383961626364656600000000000000000000000000000000600f86166010811061399757613996614ae1565b5b1a60f81b8282815181106139ae576139ad614ae1565b5b60200101907effffffffffffffffffffffffffffffffffffffffffffffffffffffffffffff1916908160001a905350600485901c9450806139ee90615f2e565b9050613958565b5060008414613a39576040517f08c379a0000000000000000000000000000000000000000000000000000000008152600401613a3090615fa3565b60405180910390fd5b8091505092915050565b613a4e838383613b17565b613a5661193b565b15613a96576040517f08c379a0000000000000000000000000000000000000000000000000000000008152600401613a8d90616035565b60405180910390fd5b505050565b613aa481613536565b8073ffffffffffffffffffffffffffffffffffffffff167fbc7cd75a20ee27fd9adebab32041f755214dbc6bffa90cc0225b39da2e5c2d3b60405160405180910390a250565b6060613b0f838360405180606001604052806027815260200161612060279139613b1c565b905092915050565b505050565b60606000808573ffffffffffffffffffffffffffffffffffffffff1685604051613b46919061609c565b600060405180830381855af49150503d8060008114613b81576040519150601f19603f3d011682016040523d82523d6000602084013e613b86565b606091505b5091509150613b9786838387613ba2565b925050509392505050565b60608315613c04576000835103613bfc57613bbc856132b0565b613bfb576040517f08c379a0000000000000000000000000000000000000000000000000000000008152600401613bf2906160ff565b60405180910390fd5b5b829050613c0f565b613c0e8383613c17565b5b949350505050565b600082511115613c2a5781518083602001fd5b806040517f08c379a0000000000000000000000000000000000000000000000000000000008152600401613c5e9190613f44565b60405180910390fd5b6000604051905090565b600080fd5b600080fd5b60007fffffffff0000000000000000000000000000000000000000000000000000000082169050919050565b613cb081613c7b565b8114613cbb57600080fd5b50565b600081359050613ccd81613ca7565b92915050565b600060208284031215613ce957613ce8613c71565b5b6000613cf784828501613cbe565b91505092915050565b60008115159050919050565b613d1581613d00565b82525050565b6000602082019050613d306000830184613d0c565b92915050565b600080fd5b600080fd5b6000601f19601f8301169050919050565b7f4e487b7100000000000000000000000000000000000000000000000000000000600052604160045260246000fd5b613d8982613d40565b810181811067ffffffffffffffff82111715613da857613da7613d51565b5b80604052505050565b6000613dbb613c67565b9050613dc78282613d80565b919050565b600067ffffffffffffffff821115613de757613de6613d51565b5b613df082613d40565b9050602081019050919050565b82818337600083830152505050565b6000613e1f613e1a84613dcc565b613db1565b905082815260208101848484011115613e3b57613e3a613d3b565b5b613e46848285613dfd565b509392505050565b600082601f830112613e6357613e62613d36565b5b8135613e73848260208601613e0c565b91505092915050565b600060208284031215613e9257613e91613c71565b5b600082013567ffffffffffffffff811115613eb057613eaf613c76565b5b613ebc84828501613e4e565b91505092915050565b600081519050919050565b600082825260208201905092915050565b60005b83811015613eff578082015181840152602081019050613ee4565b60008484015250505050565b6000613f1682613ec5565b613f208185613ed0565b9350613f30818560208601613ee1565b613f3981613d40565b840191505092915050565b60006020820190508181036000830152613f5e8184613f0b565b905092915050565b600073ffffffffffffffffffffffffffffffffffffffff82169050919050565b6000613f9182613f66565b9050919050565b613fa181613f86565b8114613fac57600080fd5b50565b600081359050613fbe81613f98565b92915050565b6000819050919050565b613fd781613fc4565b8114613fe257600080fd5b50565b600081359050613ff481613fce565b92915050565b6000806040838503121561401157614010613c71565b5b600061401f85828601613faf565b925050602061403085828601613fe5565b9150509250929050565b6000806040838503121561405157614050613c71565b5b600083013567ffffffffffffffff81111561406f5761406e613c76565b5b61407b85828601613e4e565b925050602061408c85828601613faf565b9150509250929050565b61409f81613fc4565b82525050565b60006020820190506140ba6000830184614096565b92915050565b600080604083850312156140d7576140d6613c71565b5b600083013567ffffffffffffffff8111156140f5576140f4613c76565b5b61410185828601613e4e565b925050602061411285828601613fe5565b9150509250929050565b600067ffffffffffffffff82111561413757614136613d51565b5b602082029050602081019050919050565b600080fd5b600061416061415b8461411c565b613db1565b9050808382526020820190506020840283018581111561418357614182614148565b5b835b818110156141ac57806141988882613faf565b845260208401935050602081019050614185565b5050509392505050565b600082601f8301126141cb576141ca613d36565b5b81356141db84826020860161414d565b91505092915050565b600067ffffffffffffffff8211156141ff576141fe613d51565b5b602082029050602081019050919050565b600061422361421e846141e4565b613db1565b9050808382526020820190506020840283018581111561424657614245614148565b5b835b8181101561426f578061425b8882613fe5565b845260208401935050602081019050614248565b5050509392505050565b600082601f83011261428e5761428d613d36565b5b813561429e848260208601614210565b91505092915050565b600080604083850312156142be576142bd613c71565b5b600083013567ffffffffffffffff8111156142dc576142db613c76565b5b6142e8858286016141b6565b925050602083013567ffffffffffffffff81111561430957614308613c76565b5b61431585828601614279565b9150509250929050565b60008060006060848603121561433857614337613c71565b5b600061434686828701613faf565b935050602061435786828701613faf565b925050604061436886828701613fe5565b9150509250925092565b6000819050919050565b61438581614372565b811461439057600080fd5b50565b6000813590506143a28161437c565b92915050565b6000602082840312156143be576143bd613c71565b5b60006143cc84828501614393565b91505092915050565b6143de81614372565b82525050565b60006020820190506143f960008301846143d5565b92915050565b6000806040838503121561441657614415613c71565b5b600061442485828601614393565b925050602061443585828601613faf565b9150509250929050565b600060ff82169050919050565b6144558161443f565b82525050565b6000602082019050614470600083018461444c565b92915050565b61447f81613d00565b811461448a57600080fd5b50565b60008135905061449c81614476565b92915050565b6000602082840312156144b8576144b7613c71565b5b60006144c68482850161448d565b91505092915050565b6000602082840312156144e5576144e4613c71565b5b60006144f384828501613faf565b91505092915050565b60006020828403121561451257614511613c71565b5b600061452084828501613fe5565b91505092915050565b600067ffffffffffffffff82111561454457614543613d51565b5b61454d82613d40565b9050602081019050919050565b600061456d61456884614529565b613db1565b90508281526020810184848401111561458957614588613d3b565b5b614594848285613dfd565b509392505050565b600082601f8301126145b1576145b0613d36565b5b81356145c184826020860161455a565b91505092915050565b600080604083850312156145e1576145e0613c71565b5b60006145ef85828601613faf565b925050602083013567ffffffffffffffff8111156146105761460f613c76565b5b61461c8582860161459c565b9150509250929050565b61462f81613f86565b82525050565b600060208201905061464a6000830184614626565b92915050565b6000806040838503121561466757614666613c71565b5b600061467585828601613faf565b925050602083013567ffffffffffffffff81111561469657614695613c76565b5b6146a285828601613e4e565b9150509250929050565b600080600080600060a086880312156146c8576146c7613c71565b5b600086013567ffffffffffffffff8111156146e6576146e5613c76565b5b6146f288828901613e4e565b955050602086013567ffffffffffffffff81111561471357614712613c76565b5b61471f88828901613e4e565b945050604061473088828901613fe5565b93505060606147418882890161448d565b925050608061475288828901613faf565b9150509295509295909350565b6000806040838503121561477657614775613c71565b5b600061478485828601613faf565b925050602061479585828601613faf565b9150509250929050565b7f4e487b7100000000000000000000000000000000000000000000000000000000600052602260045260246000fd5b600060028204905060018216806147e657607f821691505b6020821081036147f9576147f861479f565b5b50919050565b7f766f7465734e6565646564206d757374206265203e2030000000000000000000600082015250565b6000614835601783613ed0565b9150614840826147ff565b602082019050919050565b6000602082019050818103600083015261486481614828565b9050919050565b600081905092915050565b600061488182613ec5565b61488b818561486b565b935061489b818560208601613ee1565b80840191505092915050565b60006148b38284614876565b915081905092915050565b7f566f74696e6720776974682074686973207469746c6520616c7265616479206560008201527f7869737473000000000000000000000000000000000000000000000000000000602082015250565b600061491a602583613ed0565b9150614925826148be565b604082019050919050565b600060208201905081810360008301526149498161490d565b9050919050565b6000604082019050818103600083015261496a8185613f0b565b90506149796020830184614096565b9392505050565b7f417272617973206c656e677468206d69736d6174636800000000000000000000600082015250565b60006149b6601683613ed0565b91506149c182614980565b602082019050919050565b600060208201905081810360008301526149e5816149a9565b9050919050565b7f4e487b7100000000000000000000000000000000000000000000000000000000600052601160045260246000fd5b6000614a2682613fc4565b9150614a3183613fc4565b9250828201905080821115614a4957614a486149ec565b5b92915050565b7f45786365656473206d6178696d756d206e756d626572206f6620636f6d6d697360008201527f73696f6e20616464726573736573000000000000000000000000000000000000602082015250565b6000614aab602e83613ed0565b9150614ab682614a4f565b604082019050919050565b60006020820190508181036000830152614ada81614a9e565b9050919050565b7f4e487b7100000000000000000000000000000000000000000000000000000000600052603260045260246000fd5b7f546f74616c20636f6d6d697373696f6e2070657263656e74616765732065786360008201527f6565642031303025000000000000000000000000000000000000000000000000602082015250565b6000614b6c602883613ed0565b9150614b7782614b10565b604082019050919050565b60006020820190508181036000830152614b9b81614b5f565b9050919050565b7f50657263656e74616765206d757374206265203c3d2031303000000000000000600082015250565b6000614bd8601983613ed0565b9150614be382614ba2565b602082019050919050565b60006020820190508181036000830152614c0781614bcb565b9050919050565b7f5472616e736665722066726f6d20302061646472657373000000000000000000600082015250565b6000614c44601783613ed0565b9150614c4f82614c0e565b602082019050919050565b60006020820190508181036000830152614c7381614c37565b9050919050565b6000614c8582613fc4565b9150614c9083613fc4565b9250828202614c9e81613fc4565b91508282048414831517614cb557614cb46149ec565b5b5092915050565b7f4e487b7100000000000000000000000000000000000000000000000000000000600052601260045260246000fd5b6000614cf682613fc4565b9150614d0183613fc4565b925082614d1157614d10614cbc565b5b828204905092915050565b6000614d2782613fc4565b9150614d3283613fc4565b9250828203905081811115614d4a57614d496149ec565b5b92915050565b7f416363657373436f6e74726f6c3a2063616e206f6e6c792072656e6f756e636560008201527f20726f6c657320666f722073656c660000000000000000000000000000000000602082015250565b6000614dac602f83613ed0565b9150614db782614d50565b604082019050919050565b60006020820190508181036000830152614ddb81614d9f565b9050919050565b7f46756e6374696f6e206d7573742062652063616c6c6564207468726f7567682060008201527f64656c656761746563616c6c0000000000000000000000000000000000000000602082015250565b6000614e3e602c83613ed0565b9150614e4982614de2565b604082019050919050565b60006020820190508181036000830152614e6d81614e31565b9050919050565b7f46756e6374696f6e206d7573742062652063616c6c6564207468726f7567682060008201527f6163746976652070726f78790000000000000000000000000000000000000000602082015250565b6000614ed0602c83613ed0565b9150614edb82614e74565b604082019050919050565b60006020820190508181036000830152614eff81614ec3565b9050919050565b7f45786365656473206d6178696d756d20746f74616c20737570706c7900000000600082015250565b6000614f3c601c83613ed0565b9150614f4782614f06565b602082019050919050565b60006020820190508181036000830152614f6b81614f2f565b9050919050565b7f555550535570677261646561626c653a206d757374206e6f742062652063616c60008201527f6c6564207468726f7567682064656c656761746563616c6c0000000000000000602082015250565b6000614fce603883613ed0565b9150614fd982614f72565b604082019050919050565b60006020820190508181036000830152614ffd81614fc1565b9050919050565b7f496e76616c696420726f6c650000000000000000000000000000000000000000600082015250565b600061503a600c83613ed0565b915061504582615004565b602082019050919050565b600060208201905081810360008301526150698161502d565b9050919050565b7f496e697469616c697a61626c653a20636f6e747261637420697320616c72656160008201527f647920696e697469616c697a6564000000000000000000000000000000000000602082015250565b60006150cc602e83613ed0565b91506150d782615070565b604082019050919050565b600060208201905081810360008301526150fb816150bf565b9050919050565b6000819050919050565b6000819050919050565b600061513161512c61512784615102565b61510c565b61443f565b9050919050565b61514181615116565b82525050565b600060208201905061515c6000830184615138565b92915050565b7f45524332303a2064656372656173656420616c6c6f77616e63652062656c6f7760008201527f207a65726f000000000000000000000000000000000000000000000000000000602082015250565b60006151be602583613ed0565b91506151c982615162565b604082019050919050565b600060208201905081810360008301526151ed816151b1565b9050919050565b7f566f74696e6720656e646564206f72206e6f7420657869737473000000000000600082015250565b600061522a601a83613ed0565b9150615235826151f4565b602082019050919050565b600060208201905081810360008301526152598161521d565b9050919050565b7f4e6f7420616c6c6f77656420746f20766f746500000000000000000000000000600082015250565b6000615296601383613ed0565b91506152a182615260565b602082019050919050565b600060208201905081810360008301526152c581615289565b9050919050565b7f416c726561647920766f74656400000000000000000000000000000000000000600082015250565b6000615302600d83613ed0565b915061530d826152cc565b602082019050919050565b60006020820190508181036000830152615331816152f5565b9050919050565b600061534382613fc4565b91507fffffffffffffffffffffffffffffffffffffffffffffffffffffffffffffffff8203615375576153746149ec565b5b600182019050919050565b6000604082019050818103600083015261539a8185613f0b565b90506153a96020830184614626565b9392505050565b7f45524332303a20617070726f76652066726f6d20746865207a65726f2061646460008201527f7265737300000000000000000000000000000000000000000000000000000000602082015250565b600061540c602483613ed0565b9150615417826153b0565b604082019050919050565b6000602082019050818103600083015261543b816153ff565b9050919050565b7f45524332303a20617070726f766520746f20746865207a65726f20616464726560008201527f7373000000000000000000000000000000000000000000000000000000000000602082015250565b600061549e602283613ed0565b91506154a982615442565b604082019050919050565b600060208201905081810360008301526154cd81615491565b9050919050565b7f5061757361626c653a2070617573656400000000000000000000000000000000600082015250565b600061550a601083613ed0565b9150615515826154d4565b602082019050919050565b60006020820190508181036000830152615539816154fd565b9050919050565b7f45524332303a20696e73756666696369656e7420616c6c6f77616e6365000000600082015250565b6000615576601d83613ed0565b915061558182615540565b602082019050919050565b600060208201905081810360008301526155a581615569565b9050919050565b7f45524332303a207472616e736665722066726f6d20746865207a65726f20616460008201527f6472657373000000000000000000000000000000000000000000000000000000602082015250565b6000615608602583613ed0565b9150615613826155ac565b604082019050919050565b60006020820190508181036000830152615637816155fb565b9050919050565b7f45524332303a207472616e7366657220746f20746865207a65726f206164647260008201527f6573730000000000000000000000000000000000000000000000000000000000602082015250565b600061569a602383613ed0565b91506156a58261563e565b604082019050919050565b600060208201905081810360008301526156c98161568d565b9050919050565b7f45524332303a207472616e7366657220616d6f756e742065786365656473206260008201527f616c616e63650000000000000000000000000000000000000000000000000000602082015250565b600061572c602683613ed0565b9150615737826156d0565b604082019050919050565b6000602082019050818103600083015261575b8161571f565b9050919050565b6000815190506157718161437c565b92915050565b60006020828403121561578d5761578c613c71565b5b600061579b84828501615762565b91505092915050565b7f45524331393637557067726164653a206e657720696d706c656d656e7461746960008201527f6f6e206973206e6f742055555053000000000000000000000000000000000000602082015250565b6000615800602e83613ed0565b915061580b826157a4565b604082019050919050565b6000602082019050818103600083015261582f816157f3565b9050919050565b7f45524331393637557067726164653a20756e737570706f727465642070726f7860008201527f6961626c65555549440000000000000000000000000000000000000000000000602082015250565b6000615892602983613ed0565b915061589d82615836565b604082019050919050565b600060208201905081810360008301526158c181615885565b9050919050565b7f45524332303a206d696e7420746f20746865207a65726f206164647265737300600082015250565b60006158fe601f83613ed0565b9150615909826158c8565b602082019050919050565b6000602082019050818103600083015261592d816158f1565b9050919050565b7f45524332303a206275726e2066726f6d20746865207a65726f2061646472657360008201527f7300000000000000000000000000000000000000000000000000000000000000602082015250565b6000615990602183613ed0565b915061599b82615934565b604082019050919050565b600060208201905081810360008301526159bf81615983565b9050919050565b7f45524332303a206275726e20616d6f756e7420657863656564732062616c616e60008201527f6365000000000000000000000000000000000000000000000000000000000000602082015250565b6000615a22602283613ed0565b9150615a2d826159c6565b604082019050919050565b60006020820190508181036000830152615a5181615a15565b9050919050565b7f496e697469616c697a61626c653a20636f6e7472616374206973206e6f74206960008201527f6e697469616c697a696e67000000000000000000000000000000000000000000602082015250565b6000615ab4602b83613ed0565b9150615abf82615a58565b604082019050919050565b60006020820190508181036000830152615ae381615aa7565b9050919050565b7f416363657373436f6e74726f6c3a206163636f756e7420000000000000000000600082015250565b6000615b2060178361486b565b9150615b2b82615aea565b601782019050919050565b7f206973206d697373696e6720726f6c6520000000000000000000000000000000600082015250565b6000615b6c60118361486b565b9150615b7782615b36565b601182019050919050565b6000615b8d82615b13565b9150615b998285614876565b9150615ba482615b5f565b9150615bb08284614876565b91508190509392505050565b7f455243313936373a206e657720696d706c656d656e746174696f6e206973206e60008201527f6f74206120636f6e747261637400000000000000000000000000000000000000602082015250565b6000615c18602d83613ed0565b9150615c2382615bbc565b604082019050919050565b60006020820190508181036000830152615c4781615c0b565b9050919050565b7f5061757361626c653a206e6f7420706175736564000000000000000000000000600082015250565b6000615c84601483613ed0565b9150615c8f82615c4e565b602082019050919050565b60006020820190508181036000830152615cb381615c77565b9050919050565b60008190508160005260206000209050919050565b60006020601f8301049050919050565b600082821b905092915050565b600060088302615d1c7fffffffffffffffffffffffffffffffffffffffffffffffffffffffffffffffff82615cdf565b615d268683615cdf565b95508019841693508086168417925050509392505050565b6000615d59615d54615d4f84613fc4565b61510c565b613fc4565b9050919050565b6000819050919050565b615d7383615d3e565b615d87615d7f82615d60565b848454615cec565b825550505050565b600090565b615d9c615d8f565b615da7818484615d6a565b505050565b5b81811015615dcb57615dc0600082615d94565b600181019050615dad565b5050565b601f821115615e1057615de181615cba565b615dea84615ccf565b81016020851015615df9578190505b615e0d615e0585615ccf565b830182615dac565b50505b505050565b600082821c905092915050565b6000615e3360001984600802615e15565b1980831691505092915050565b6000615e4c8383615e22565b9150826002028217905092915050565b615e6582613ec5565b67ffffffffffffffff811115615e7e57615e7d613d51565b5b615e8882546147ce565b615e93828285615dcf565b600060209050601f831160018114615ec65760008415615eb4578287015190505b615ebe8582615e40565b865550615f26565b601f198416615ed486615cba565b60005b82811015615efc57848901518255600182019150602085019450602081019050615ed7565b86831015615f195784890151615f15601f891682615e22565b8355505b6001600288020188555050505b505050505050565b6000615f3982613fc4565b915060008203615f4c57615f4b6149ec565b5b600182039050919050565b7f537472696e67733a20686578206c656e67746820696e73756666696369656e74600082015250565b6000615f8d602083613ed0565b9150615f9882615f57565b602082019050919050565b60006020820190508181036000830152615fbc81615f80565b9050919050565b7f45524332305061757361626c653a20746f6b656e207472616e7366657220776860008201527f696c652070617573656400000000000000000000000000000000000000000000602082015250565b600061601f602a83613ed0565b915061602a82615fc3565b604082019050919050565b6000602082019050818103600083015261604e81616012565b9050919050565b600081519050919050565b600081905092915050565b600061607682616055565b6160808185616060565b9350616090818560208601613ee1565b80840191505092915050565b60006160a8828461606b565b915081905092915050565b7f416464726573733a2063616c6c20746f206e6f6e2d636f6e7472616374000000600082015250565b60006160e9601d83613ed0565b91506160f4826160b3565b602082019050919050565b60006020820190508181036000830152616118816160dc565b905091905056fe416464726573733a206c6f772d6c6576656c2064656c65676174652063616c6c206661696c6564a264697066735822122043c129e2d036caba45f68e9aef1351e30473bc129eeb98b69f9619664b4f4d2c64736f6c63430008180033",
  "linkReferences": {},
  "deployedLinkReferences": {}
}